{"contracts/MockRandamuVRF.sol":{"MockRandamuVRF":{"abi":[{"anonymous":false,"inputs":[{"indexed":true,"internalType":"uint256","name":"requestId","type":"uint256"},{"indexed":false,"internalType":"uint256","name":"randomness","type":"uint256"}],"name":"RandomnessFulfilled","type":"event"},{"anonymous":false,"inputs":[{"indexed":true,"internalType":"uint256","name":"requestId","type":"uint256"},{"indexed":true,"internalType":"uint256","name":"seed","type":"uint256"}],"name":"RandomnessRequested","type":"event"},{"inputs":[{"internalType":"uint256","name":"requestId","type":"uint256"},{"internalType":"uint256","name":"randomness","type":"uint256"}],"name":"fulfillRandomness","outputs":[],"stateMutability":"nonpayable","type":"function"},{"inputs":[{"internalType":"uint256","name":"requestId","type":"uint256"}],"name":"getRandomness","outputs":[{"internalType":"uint256","name":"randomness","type":"uint256"}],"stateMutability":"view","type":"function"},{"inputs":[{"internalType":"uint256","name":"requestId","type":"uint256"}],"name":"isRequestFulfilled","outputs":[{"internalType":"bool","name":"fulfilled","type":"bool"}],"stateMutability":"view","type":"function"},{"inputs":[{"internalType":"uint256","name":"","type":"uint256"}],"name":"randomnessValues","outputs":[{"internalType":"uint256","name":"","type":"uint256"}],"stateMutability":"view","type":"function"},{"inputs":[{"internalType":"uint256","name":"","type":"uint256"}],"name":"requestFulfilled","outputs":[{"internalType":"bool","name":"","type":"bool"}],"stateMutability":"view","type":"function"},{"inputs":[{"internalType":"uint256","name":"seed","type":"uint256"}],"name":"requestRandomness","outputs":[{"internalType":"uint256","name":"requestId","type":"uint256"}],"stateMutability":"nonpayable","type":"function"},{"inputs":[{"internalType":"uint256","name":"requestId","type":"uint256"}],"name":"resetRequest","outputs":[],"stateMutability":"nonpayable","type":"function"}],"evm":{"bytecode":{"linkReferences":{},"object":"608060405234801561001057600080fd5b506103de806100206000396000f3fe608060405234801561001057600080fd5b506004361061007d5760003560e01c806368064c641161005b57806368064c64146100ec5780637363ae1f1461011f5780638d2a188914610132578063ad44777b1461015257600080fd5b80630695a25214610082578063453f4f62146100975780635170c5f8146100bd575b600080fd5b61009561009036600461036d565b610175565b005b6100aa6100a536600461038f565b6101d1565b6040519081526020015b60405180910390f35b6100956100cb36600461038f565b600090815260208181526040808320805460ff191690556001909152812055565b61010f6100fa36600461038f565b60006020819052908152604090205460ff1681565b60405190151581526020016100b4565b6100aa61012d36600461038f565b61023e565b6100aa61014036600461038f565b60016020526000908152604090205481565b61010f61016036600461038f565b60009081526020819052604090205460ff1690565b600082815260208181526040808320805460ff19166001908117909155825291829020839055905182815283917f546aca7b2683440b8f02fa95faeb8efc79dd0f16af3d815a002742ea6f76116c910160405180910390a25050565b60008181526020819052604081205460ff1661022b5760405162461bcd60e51b815260206004820152601560248201527414995c5d595cdd081b9bdd08199d5b199a5b1b1959605a1b604482015260640160405180910390fd5b5060009081526001602052604090205490565b6040805142602082015290810182905233606090811b6bffffffffffffffffffffffff19169082015260009060740160408051601f198184030181529082905280516020909101209150829082907f3d94fecedaa4f90b8bd459797adb95f5bb11426025c5541390d9ccc1ad1b60a190600090a36102bc81836102c1565b919050565b604080516020810183905242918101919091524460608083019190915241901b6bffffffffffffffffffffffff1916608082015260009060940160408051601f1981840301815282825280516020918201206000878152808352838120805460ff1916600190811790915583529290922082905581835290925084917f546aca7b2683440b8f02fa95faeb8efc79dd0f16af3d815a002742ea6f76116c910160405180910390a2505050565b6000806040838503121561038057600080fd5b50508035926020909101359150565b6000602082840312156103a157600080fd5b503591905056fea26469706673582212205fbe24f9b0f94c770d5e507dd49f45a12311229265ea4597d7c6d6bb16443cfa64736f6c63430008180033","opcodes":"PUSH1 0x80 PUSH1 0x40 MSTORE CALLVALUE DUP1 ISZERO PUSH2 0x10 JUMPI PUSH1 0x0 DUP1 REVERT JUMPDEST POP PUSH2 0x3DE DUP1 PUSH2 0x20 PUSH1 0x0 CODECOPY PUSH1 0x0 RETURN INVALID PUSH1 0x80 PUSH1 0x40 MSTORE CALLVALUE DUP1 ISZERO PUSH2 0x10 JUMPI PUSH1 0x0 DUP1 REVERT JUMPDEST POP PUSH1 0x4 CALLDATASIZE LT PUSH2 0x7D JUMPI PUSH1 0x0 CALLDATALOAD PUSH1 0xE0 SHR DUP1 PUSH4 0x68064C64 GT PUSH2 0x5B JUMPI DUP1 PUSH4 0x68064C64 EQ PUSH2 0xEC JUMPI DUP1 PUSH4 0x7363AE1F EQ PUSH2 0x11F JUMPI DUP1 PUSH4 0x8D2A1889 EQ PUSH2 0x132 JUMPI DUP1 PUSH4 0xAD44777B EQ PUSH2 0x152 JUMPI PUSH1 0x0 DUP1 REVERT JUMPDEST DUP1 PUSH4 0x695A252 EQ PUSH2 0x82 JUMPI DUP1 PUSH4 0x453F4F62 EQ PUSH2 0x97 JUMPI DUP1 PUSH4 0x5170C5F8 EQ PUSH2 0xBD JUMPI JUMPDEST PUSH1 0x0 DUP1 REVERT JUMPDEST PUSH2 0x95 PUSH2 0x90 CALLDATASIZE PUSH1 0x4 PUSH2 0x36D JUMP JUMPDEST PUSH2 0x175 JUMP JUMPDEST STOP JUMPDEST PUSH2 0xAA PUSH2 0xA5 CALLDATASIZE PUSH1 0x4 PUSH2 0x38F JUMP JUMPDEST PUSH2 0x1D1 JUMP JUMPDEST PUSH1 0x40 MLOAD SWAP1 DUP2 MSTORE PUSH1 0x20 ADD JUMPDEST PUSH1 0x40 MLOAD DUP1 SWAP2 SUB SWAP1 RETURN JUMPDEST PUSH2 0x95 PUSH2 0xCB CALLDATASIZE PUSH1 0x4 PUSH2 0x38F JUMP JUMPDEST PUSH1 0x0 SWAP1 DUP2 MSTORE PUSH1 0x20 DUP2 DUP2 MSTORE PUSH1 0x40 DUP1 DUP4 KECCAK256 DUP1 SLOAD PUSH1 0xFF NOT AND SWAP1 SSTORE PUSH1 0x1 SWAP1 SWAP2 MSTORE DUP2 KECCAK256 SSTORE JUMP JUMPDEST PUSH2 0x10F PUSH2 0xFA CALLDATASIZE PUSH1 0x4 PUSH2 0x38F JUMP JUMPDEST PUSH1 0x0 PUSH1 0x20 DUP2 SWAP1 MSTORE SWAP1 DUP2 MSTORE PUSH1 0x40 SWAP1 KECCAK256 SLOAD PUSH1 0xFF AND DUP2 JUMP JUMPDEST PUSH1 0x40 MLOAD SWAP1 ISZERO ISZERO DUP2 MSTORE PUSH1 0x20 ADD PUSH2 0xB4 JUMP JUMPDEST PUSH2 0xAA PUSH2 0x12D CALLDATASIZE PUSH1 0x4 PUSH2 0x38F JUMP JUMPDEST PUSH2 0x23E JUMP JUMPDEST PUSH2 0xAA PUSH2 0x140 CALLDATASIZE PUSH1 0x4 PUSH2 0x38F JUMP JUMPDEST PUSH1 0x1 PUSH1 0x20 MSTORE PUSH1 0x0 SWAP1 DUP2 MSTORE PUSH1 0x40 SWAP1 KECCAK256 SLOAD DUP2 JUMP JUMPDEST PUSH2 0x10F PUSH2 0x160 CALLDATASIZE PUSH1 0x4 PUSH2 0x38F JUMP JUMPDEST PUSH1 0x0 SWAP1 DUP2 MSTORE PUSH1 0x20 DUP2 SWAP1 MSTORE PUSH1 0x40 SWAP1 KECCAK256 SLOAD PUSH1 0xFF AND SWAP1 JUMP JUMPDEST PUSH1 0x0 DUP3 DUP2 MSTORE PUSH1 0x20 DUP2 DUP2 MSTORE PUSH1 0x40 DUP1 DUP4 KECCAK256 DUP1 SLOAD PUSH1 0xFF NOT AND PUSH1 0x1 SWAP1 DUP2 OR SWAP1 SWAP2 SSTORE DUP3 MSTORE SWAP2 DUP3 SWAP1 KECCAK256 DUP4 SWAP1 SSTORE SWAP1 MLOAD DUP3 DUP2 MSTORE DUP4 SWAP2 PUSH32 0x546ACA7B2683440B8F02FA95FAEB8EFC79DD0F16AF3D815A002742EA6F76116C SWAP2 ADD PUSH1 0x40 MLOAD DUP1 SWAP2 SUB SWAP1 LOG2 POP POP JUMP JUMPDEST PUSH1 0x0 DUP2 DUP2 MSTORE PUSH1 0x20 DUP2 SWAP1 MSTORE PUSH1 0x40 DUP2 KECCAK256 SLOAD PUSH1 0xFF AND PUSH2 0x22B JUMPI PUSH1 0x40 MLOAD PUSH3 0x461BCD PUSH1 0xE5 SHL DUP2 MSTORE PUSH1 0x20 PUSH1 0x4 DUP3 ADD MSTORE PUSH1 0x15 PUSH1 0x24 DUP3 ADD MSTORE PUSH21 0x14995C5D595CDD081B9BDD08199D5B199A5B1B1959 PUSH1 0x5A SHL PUSH1 0x44 DUP3 ADD MSTORE PUSH1 0x64 ADD PUSH1 0x40 MLOAD DUP1 SWAP2 SUB SWAP1 REVERT JUMPDEST POP PUSH1 0x0 SWAP1 DUP2 MSTORE PUSH1 0x1 PUSH1 0x20 MSTORE PUSH1 0x40 SWAP1 KECCAK256 SLOAD SWAP1 JUMP JUMPDEST PUSH1 0x40 DUP1 MLOAD TIMESTAMP PUSH1 0x20 DUP3 ADD MSTORE SWAP1 DUP2 ADD DUP3 SWAP1 MSTORE CALLER PUSH1 0x60 SWAP1 DUP2 SHL PUSH12 0xFFFFFFFFFFFFFFFFFFFFFFFF NOT AND SWAP1 DUP3 ADD MSTORE PUSH1 0x0 SWAP1 PUSH1 0x74 ADD PUSH1 0x40 DUP1 MLOAD PUSH1 0x1F NOT DUP2 DUP5 SUB ADD DUP2 MSTORE SWAP1 DUP3 SWAP1 MSTORE DUP1 MLOAD PUSH1 0x20 SWAP1 SWAP2 ADD KECCAK256 SWAP2 POP DUP3 SWAP1 DUP3 SWAP1 PUSH32 0x3D94FECEDAA4F90B8BD459797ADB95F5BB11426025C5541390D9CCC1AD1B60A1 SWAP1 PUSH1 0x0 SWAP1 LOG3 PUSH2 0x2BC DUP2 DUP4 PUSH2 0x2C1 JUMP JUMPDEST SWAP2 SWAP1 POP JUMP JUMPDEST PUSH1 0x40 DUP1 MLOAD PUSH1 0x20 DUP2 ADD DUP4 SWAP1 MSTORE TIMESTAMP SWAP2 DUP2 ADD SWAP2 SWAP1 SWAP2 MSTORE PREVRANDAO PUSH1 0x60 DUP1 DUP4 ADD SWAP2 SWAP1 SWAP2 MSTORE COINBASE SWAP1 SHL PUSH12 0xFFFFFFFFFFFFFFFFFFFFFFFF NOT AND PUSH1 0x80 DUP3 ADD MSTORE PUSH1 0x0 SWAP1 PUSH1 0x94 ADD PUSH1 0x40 DUP1 MLOAD PUSH1 0x1F NOT DUP2 DUP5 SUB ADD DUP2 MSTORE DUP3 DUP3 MSTORE DUP1 MLOAD PUSH1 0x20 SWAP2 DUP3 ADD KECCAK256 PUSH1 0x0 DUP8 DUP2 MSTORE DUP1 DUP4 MSTORE DUP4 DUP2 KECCAK256 DUP1 SLOAD PUSH1 0xFF NOT AND PUSH1 0x1 SWAP1 DUP2 OR SWAP1 SWAP2 SSTORE DUP4 MSTORE SWAP3 SWAP1 SWAP3 KECCAK256 DUP3 SWAP1 SSTORE DUP2 DUP4 MSTORE SWAP1 SWAP3 POP DUP5 SWAP2 PUSH32 0x546ACA7B2683440B8F02FA95FAEB8EFC79DD0F16AF3D815A002742EA6F76116C SWAP2 ADD PUSH1 0x40 MLOAD DUP1 SWAP2 SUB SWAP1 LOG2 POP POP POP JUMP JUMPDEST PUSH1 0x0 DUP1 PUSH1 0x40 DUP4 DUP6 SUB SLT ISZERO PUSH2 0x380 JUMPI PUSH1 0x0 DUP1 REVERT JUMPDEST POP POP DUP1 CALLDATALOAD SWAP3 PUSH1 0x20 SWAP1 SWAP2 ADD CALLDATALOAD SWAP2 POP JUMP JUMPDEST PUSH1 0x0 PUSH1 0x20 DUP3 DUP5 SUB SLT ISZERO PUSH2 0x3A1 JUMPI PUSH1 0x0 DUP1 REVERT JUMPDEST POP CALLDATALOAD SWAP2 SWAP1 POP JUMP INVALID LOG2 PUSH5 0x6970667358 0x22 SLT KECCAK256 PUSH0 0xBE 0x24 0xF9 0xB0 0xF9 0x4C PUSH24 0xD5E507DD49F45A12311229265EA4597D7C6D6BB16443CFA PUSH5 0x736F6C6343 STOP ADDMOD XOR STOP CALLER "},"methodIdentifiers":{"fulfillRandomness(uint256,uint256)":"0695a252","getRandomness(uint256)":"453f4f62","isRequestFulfilled(uint256)":"ad44777b","randomnessValues(uint256)":"8d2a1889","requestFulfilled(uint256)":"68064c64","requestRandomness(uint256)":"7363ae1f","resetRequest(uint256)":"5170c5f8"}}}}}