{
  "_format": "hh-sol-artifact-1",
  "contractName": "AuctionHouse",
  "sourceName": "contracts/AuctionHouse.sol",
  "abi": [
    {
      "inputs": [
        {
          "internalType": "address",
          "name": "_winnerSBT",
          "type": "address"
        },
        {
          "internalType": "address",
          "name": "_randamuVRF",
          "type": "address"
        },
        {
          "internalType": "address",
          "name": "_adminWallet",
          "type": "address"
        },
        {
          "internalType": "address",
          "name": "_blocklockSender",
          "type": "address"
        }
      ],
      "stateMutability": "nonpayable",
      "type": "constructor"
    },
    {
      "inputs": [],
      "name": "AccessControlBadConfirmation",
      "type": "error"
    },
    {
      "inputs": [
        {
          "internalType": "address",
          "name": "account",
          "type": "address"
        },
        {
          "internalType": "bytes32",
          "name": "neededRole",
          "type": "bytes32"
        }
      ],
      "name": "AccessControlUnauthorizedAccount",
      "type": "error"
    },
    {
      "inputs": [],
      "name": "ReentrancyGuardReentrantCall",
      "type": "error"
    },
    {
      "anonymous": false,
      "inputs": [
        {
          "indexed": true,
          "internalType": "address",
          "name": "oldAdmin",
          "type": "address"
        },
        {
          "indexed": true,
          "internalType": "address",
          "name": "newAdmin",
          "type": "address"
        }
      ],
      "name": "AdminWalletUpdated",
      "type": "event"
    },
    {
      "anonymous": false,
      "inputs": [
        {
          "indexed": true,
          "internalType": "uint256",
          "name": "auctionId",
          "type": "uint256"
        },
        {
          "indexed": true,
          "internalType": "address",
          "name": "nft",
          "type": "address"
        },
        {
          "indexed": true,
          "internalType": "uint256",
          "name": "tokenId",
          "type": "uint256"
        },
        {
          "indexed": false,
          "internalType": "address",
          "name": "seller",
          "type": "address"
        },
        {
          "indexed": false,
          "internalType": "uint256",
          "name": "reserve",
          "type": "uint256"
        },
        {
          "indexed": false,
          "internalType": "uint256",
          "name": "endBlock",
          "type": "uint256"
        }
      ],
      "name": "AuctionCreated",
      "type": "event"
    },
    {
      "anonymous": false,
      "inputs": [
        {
          "indexed": true,
          "internalType": "uint256",
          "name": "auctionId",
          "type": "uint256"
        },
        {
          "indexed": true,
          "internalType": "address",
          "name": "winner",
          "type": "address"
        },
        {
          "indexed": false,
          "internalType": "uint256",
          "name": "amount",
          "type": "uint256"
        }
      ],
      "name": "AuctionFinalized",
      "type": "event"
    },
    {
      "anonymous": false,
      "inputs": [
        {
          "indexed": true,
          "internalType": "uint256",
          "name": "auctionId",
          "type": "uint256"
        },
        {
          "indexed": true,
          "internalType": "uint256",
          "name": "bidIndex",
          "type": "uint256"
        },
        {
          "indexed": true,
          "internalType": "address",
          "name": "bidder",
          "type": "address"
        },
        {
          "indexed": false,
          "internalType": "uint256",
          "name": "blocklockRequestId",
          "type": "uint256"
        },
        {
          "indexed": false,
          "internalType": "uint256",
          "name": "deposit",
          "type": "uint256"
        }
      ],
      "name": "BidCommitted",
      "type": "event"
    },
    {
      "anonymous": false,
      "inputs": [
        {
          "indexed": true,
          "internalType": "uint256",
          "name": "auctionId",
          "type": "uint256"
        },
        {
          "indexed": true,
          "internalType": "address",
          "name": "bidder",
          "type": "address"
        },
        {
          "indexed": false,
          "internalType": "uint256",
          "name": "amount",
          "type": "uint256"
        }
      ],
      "name": "BidRevealed",
      "type": "event"
    },
    {
      "anonymous": false,
      "inputs": [
        {
          "indexed": true,
          "internalType": "address",
          "name": "sender",
          "type": "address"
        },
        {
          "indexed": false,
          "internalType": "uint256",
          "name": "amount",
          "type": "uint256"
        }
      ],
      "name": "Funded",
      "type": "event"
    },
    {
      "anonymous": false,
      "inputs": [
        {
          "indexed": true,
          "internalType": "uint256",
          "name": "subscriptionId",
          "type": "uint256"
        }
      ],
      "name": "NewSubscriptionId",
      "type": "event"
    },
    {
      "anonymous": false,
      "inputs": [
        {
          "indexed": true,
          "internalType": "address",
          "name": "from",
          "type": "address"
        },
        {
          "indexed": true,
          "internalType": "address",
          "name": "to",
          "type": "address"
        }
      ],
      "name": "OwnershipTransferRequested",
      "type": "event"
    },
    {
      "anonymous": false,
      "inputs": [
        {
          "indexed": true,
          "internalType": "address",
          "name": "from",
          "type": "address"
        },
        {
          "indexed": true,
          "internalType": "address",
          "name": "to",
          "type": "address"
        }
      ],
      "name": "OwnershipTransferred",
      "type": "event"
    },
    {
      "anonymous": false,
      "inputs": [
        {
          "indexed": false,
          "internalType": "address",
          "name": "",
          "type": "address"
        },
        {
          "indexed": false,
          "internalType": "uint256",
          "name": "",
          "type": "uint256"
        }
      ],
      "name": "Received",
      "type": "event"
    },
    {
      "anonymous": false,
      "inputs": [
        {
          "indexed": true,
          "internalType": "bytes32",
          "name": "role",
          "type": "bytes32"
        },
        {
          "indexed": true,
          "internalType": "bytes32",
          "name": "previousAdminRole",
          "type": "bytes32"
        },
        {
          "indexed": true,
          "internalType": "bytes32",
          "name": "newAdminRole",
          "type": "bytes32"
        }
      ],
      "name": "RoleAdminChanged",
      "type": "event"
    },
    {
      "anonymous": false,
      "inputs": [
        {
          "indexed": true,
          "internalType": "bytes32",
          "name": "role",
          "type": "bytes32"
        },
        {
          "indexed": true,
          "internalType": "address",
          "name": "account",
          "type": "address"
        },
        {
          "indexed": true,
          "internalType": "address",
          "name": "sender",
          "type": "address"
        }
      ],
      "name": "RoleGranted",
      "type": "event"
    },
    {
      "anonymous": false,
      "inputs": [
        {
          "indexed": true,
          "internalType": "bytes32",
          "name": "role",
          "type": "bytes32"
        },
        {
          "indexed": true,
          "internalType": "address",
          "name": "account",
          "type": "address"
        },
        {
          "indexed": true,
          "internalType": "address",
          "name": "sender",
          "type": "address"
        }
      ],
      "name": "RoleRevoked",
      "type": "event"
    },
    {
      "anonymous": false,
      "inputs": [
        {
          "indexed": true,
          "internalType": "uint256",
          "name": "auctionId",
          "type": "uint256"
        },
        {
          "indexed": true,
          "internalType": "address",
          "name": "bidder",
          "type": "address"
        },
        {
          "indexed": false,
          "internalType": "uint256",
          "name": "taxAmount",
          "type": "uint256"
        }
      ],
      "name": "TaxCollected",
      "type": "event"
    },
    {
      "anonymous": false,
      "inputs": [
        {
          "indexed": true,
          "internalType": "uint256",
          "name": "auctionId",
          "type": "uint256"
        },
        {
          "indexed": true,
          "internalType": "uint256",
          "name": "requestId",
          "type": "uint256"
        },
        {
          "indexed": false,
          "internalType": "uint256",
          "name": "randomness",
          "type": "uint256"
        }
      ],
      "name": "TieBreakRandomnessFulfilled",
      "type": "event"
    },
    {
      "anonymous": false,
      "inputs": [
        {
          "indexed": true,
          "internalType": "uint256",
          "name": "auctionId",
          "type": "uint256"
        },
        {
          "indexed": true,
          "internalType": "uint256",
          "name": "requestId",
          "type": "uint256"
        }
      ],
      "name": "TieBreakRandomnessRequested",
      "type": "event"
    },
    {
      "anonymous": false,
      "inputs": [
        {
          "indexed": true,
          "internalType": "address",
          "name": "recipient",
          "type": "address"
        },
        {
          "indexed": false,
          "internalType": "uint256",
          "name": "amount",
          "type": "uint256"
        }
      ],
      "name": "Withdrawn",
      "type": "event"
    },
    {
      "inputs": [],
      "name": "ADMIN_ROLE",
      "outputs": [
        {
          "internalType": "bytes32",
          "name": "",
          "type": "bytes32"
        }
      ],
      "stateMutability": "view",
      "type": "function"
    },
    {
      "inputs": [],
      "name": "BASIS_POINTS",
      "outputs": [
        {
          "internalType": "uint256",
          "name": "",
          "type": "uint256"
        }
      ],
      "stateMutability": "view",
      "type": "function"
    },
    {
      "inputs": [],
      "name": "DEFAULT_ADMIN_ROLE",
      "outputs": [
        {
          "internalType": "bytes32",
          "name": "",
          "type": "bytes32"
        }
      ],
      "stateMutability": "view",
      "type": "function"
    },
    {
      "inputs": [],
      "name": "SELLER_ROLE",
      "outputs": [
        {
          "internalType": "bytes32",
          "name": "",
          "type": "bytes32"
        }
      ],
      "stateMutability": "view",
      "type": "function"
    },
    {
      "inputs": [],
      "name": "TAX_PERCENTAGE",
      "outputs": [
        {
          "internalType": "uint256",
          "name": "",
          "type": "uint256"
        }
      ],
      "stateMutability": "view",
      "type": "function"
    },
    {
      "inputs": [],
      "name": "acceptOwnership",
      "outputs": [],
      "stateMutability": "nonpayable",
      "type": "function"
    },
    {
      "inputs": [
        {
          "internalType": "address",
          "name": "seller",
          "type": "address"
        }
      ],
      "name": "addSeller",
      "outputs": [],
      "stateMutability": "nonpayable",
      "type": "function"
    },
    {
      "inputs": [],
      "name": "adminWallet",
      "outputs": [
        {
          "internalType": "address",
          "name": "",
          "type": "address"
        }
      ],
      "stateMutability": "view",
      "type": "function"
    },
    {
      "inputs": [
        {
          "internalType": "uint256",
          "name": "",
          "type": "uint256"
        }
      ],
      "name": "auctions",
      "outputs": [
        {
          "internalType": "address",
          "name": "nft",
          "type": "address"
        },
        {
          "internalType": "uint256",
          "name": "tokenId",
          "type": "uint256"
        },
        {
          "internalType": "uint256",
          "name": "reserve",
          "type": "uint256"
        },
        {
          "internalType": "uint256",
          "name": "endBlock",
          "type": "uint256"
        },
        {
          "internalType": "uint256",
          "name": "depositPct",
          "type": "uint256"
        },
        {
          "internalType": "address",
          "name": "seller",
          "type": "address"
        },
        {
          "internalType": "bool",
          "name": "settled",
          "type": "bool"
        },
        {
          "internalType": "address",
          "name": "winner",
          "type": "address"
        },
        {
          "internalType": "uint256",
          "name": "winningBid",
          "type": "uint256"
        },
        {
          "internalType": "uint256",
          "name": "totalTaxCollected",
          "type": "uint256"
        }
      ],
      "stateMutability": "view",
      "type": "function"
    },
    {
      "inputs": [],
      "name": "blocklock",
      "outputs": [
        {
          "internalType": "contract IBlocklockSender",
          "name": "",
          "type": "address"
        }
      ],
      "stateMutability": "view",
      "type": "function"
    },
    {
      "inputs": [
        {
          "internalType": "uint256",
          "name": "auctionId",
          "type": "uint256"
        },
        {
          "components": [
            {
              "components": [
                {
                  "internalType": "uint256[2]",
                  "name": "x",
                  "type": "uint256[2]"
                },
                {
                  "internalType": "uint256[2]",
                  "name": "y",
                  "type": "uint256[2]"
                }
              ],
              "internalType": "struct BLS.PointG2",
              "name": "u",
              "type": "tuple"
            },
            {
              "internalType": "bytes",
              "name": "v",
              "type": "bytes"
            },
            {
              "internalType": "bytes",
              "name": "w",
              "type": "bytes"
            }
          ],
          "internalType": "struct TypesLib.Ciphertext",
          "name": "encryptedBid",
          "type": "tuple"
        },
        {
          "internalType": "bytes",
          "name": "condition",
          "type": "bytes"
        },
        {
          "internalType": "uint32",
          "name": "callbackGasLimit",
          "type": "uint32"
        }
      ],
      "name": "commitBid",
      "outputs": [],
      "stateMutability": "payable",
      "type": "function"
    },
    {
      "inputs": [
        {
          "internalType": "address",
          "name": "nft",
          "type": "address"
        },
        {
          "internalType": "uint256",
          "name": "tokenId",
          "type": "uint256"
        },
        {
          "internalType": "uint256",
          "name": "reserve",
          "type": "uint256"
        },
        {
          "internalType": "uint256",
          "name": "endBlock",
          "type": "uint256"
        },
        {
          "internalType": "uint256",
          "name": "depositPct",
          "type": "uint256"
        }
      ],
      "name": "createAuction",
      "outputs": [],
      "stateMutability": "nonpayable",
      "type": "function"
    },
    {
      "inputs": [],
      "name": "createSubscriptionAndFundNative",
      "outputs": [],
      "stateMutability": "payable",
      "type": "function"
    },
    {
      "inputs": [
        {
          "internalType": "uint256",
          "name": "auctionId",
          "type": "uint256"
        },
        {
          "internalType": "address",
          "name": "bidder",
          "type": "address"
        },
        {
          "internalType": "uint256",
          "name": "amount",
          "type": "uint256"
        }
      ],
      "name": "decodeBid",
      "outputs": [],
      "stateMutability": "nonpayable",
      "type": "function"
    },
    {
      "inputs": [],
      "name": "emergencyWithdraw",
      "outputs": [],
      "stateMutability": "nonpayable",
      "type": "function"
    },
    {
      "inputs": [
        {
          "internalType": "address",
          "name": "nft",
          "type": "address"
        },
        {
          "internalType": "uint256",
          "name": "tokenId",
          "type": "uint256"
        }
      ],
      "name": "emergencyWithdrawNFT",
      "outputs": [],
      "stateMutability": "nonpayable",
      "type": "function"
    },
    {
      "inputs": [
        {
          "internalType": "uint256",
          "name": "auctionId",
          "type": "uint256"
        }
      ],
      "name": "finalize",
      "outputs": [],
      "stateMutability": "nonpayable",
      "type": "function"
    },
    {
      "inputs": [
        {
          "internalType": "uint256",
          "name": "requestId",
          "type": "uint256"
        },
        {
          "internalType": "uint256",
          "name": "randomness",
          "type": "uint256"
        }
      ],
      "name": "fulfillRandomness",
      "outputs": [],
      "stateMutability": "nonpayable",
      "type": "function"
    },
    {
      "inputs": [],
      "name": "fundContractNative",
      "outputs": [],
      "stateMutability": "payable",
      "type": "function"
    },
    {
      "inputs": [
        {
          "internalType": "uint256",
          "name": "auctionId",
          "type": "uint256"
        }
      ],
      "name": "getAuction",
      "outputs": [
        {
          "internalType": "address",
          "name": "nft",
          "type": "address"
        },
        {
          "internalType": "uint256",
          "name": "tokenId",
          "type": "uint256"
        },
        {
          "internalType": "uint256",
          "name": "reserve",
          "type": "uint256"
        },
        {
          "internalType": "uint256",
          "name": "endBlock",
          "type": "uint256"
        },
        {
          "internalType": "address",
          "name": "seller",
          "type": "address"
        },
        {
          "internalType": "bool",
          "name": "settled",
          "type": "bool"
        },
        {
          "internalType": "address",
          "name": "winner",
          "type": "address"
        },
        {
          "internalType": "uint256",
          "name": "winningBid",
          "type": "uint256"
        },
        {
          "internalType": "uint256",
          "name": "bidderCount",
          "type": "uint256"
        }
      ],
      "stateMutability": "view",
      "type": "function"
    },
    {
      "inputs": [
        {
          "internalType": "uint256",
          "name": "auctionId",
          "type": "uint256"
        }
      ],
      "name": "getAuctionBids",
      "outputs": [
        {
          "internalType": "address[]",
          "name": "bidders",
          "type": "address[]"
        },
        {
          "internalType": "uint256[]",
          "name": "deposits",
          "type": "uint256[]"
        },
        {
          "internalType": "uint256[]",
          "name": "decodedBids",
          "type": "uint256[]"
        },
        {
          "internalType": "bool[]",
          "name": "decoded",
          "type": "bool[]"
        }
      ],
      "stateMutability": "view",
      "type": "function"
    },
    {
      "inputs": [],
      "name": "getBalance",
      "outputs": [
        {
          "internalType": "uint256",
          "name": "",
          "type": "uint256"
        }
      ],
      "stateMutability": "view",
      "type": "function"
    },
    {
      "inputs": [
        {
          "internalType": "uint256",
          "name": "auctionId",
          "type": "uint256"
        },
        {
          "internalType": "uint256",
          "name": "index",
          "type": "uint256"
        }
      ],
      "name": "getBidder",
      "outputs": [
        {
          "internalType": "address",
          "name": "",
          "type": "address"
        }
      ],
      "stateMutability": "view",
      "type": "function"
    },
    {
      "inputs": [
        {
          "internalType": "uint256",
          "name": "auctionId",
          "type": "uint256"
        }
      ],
      "name": "getBidderCount",
      "outputs": [
        {
          "internalType": "uint256",
          "name": "",
          "type": "uint256"
        }
      ],
      "stateMutability": "view",
      "type": "function"
    },
    {
      "inputs": [
        {
          "internalType": "uint256",
          "name": "auctionId",
          "type": "uint256"
        },
        {
          "internalType": "address",
          "name": "bidder",
          "type": "address"
        }
      ],
      "name": "getDecodedBid",
      "outputs": [
        {
          "internalType": "uint256",
          "name": "",
          "type": "uint256"
        }
      ],
      "stateMutability": "view",
      "type": "function"
    },
    {
      "inputs": [
        {
          "internalType": "uint256",
          "name": "auctionId",
          "type": "uint256"
        },
        {
          "internalType": "address",
          "name": "bidder",
          "type": "address"
        }
      ],
      "name": "getDeposit",
      "outputs": [
        {
          "internalType": "uint256",
          "name": "",
          "type": "uint256"
        }
      ],
      "stateMutability": "view",
      "type": "function"
    },
    {
      "inputs": [
        {
          "internalType": "bytes32",
          "name": "role",
          "type": "bytes32"
        }
      ],
      "name": "getRoleAdmin",
      "outputs": [
        {
          "internalType": "bytes32",
          "name": "",
          "type": "bytes32"
        }
      ],
      "stateMutability": "view",
      "type": "function"
    },
    {
      "inputs": [
        {
          "internalType": "uint256",
          "name": "auctionId",
          "type": "uint256"
        }
      ],
      "name": "getTaxCollected",
      "outputs": [
        {
          "internalType": "uint256",
          "name": "",
          "type": "uint256"
        }
      ],
      "stateMutability": "view",
      "type": "function"
    },
    {
      "inputs": [
        {
          "internalType": "bytes32",
          "name": "role",
          "type": "bytes32"
        },
        {
          "internalType": "address",
          "name": "account",
          "type": "address"
        }
      ],
      "name": "grantRole",
      "outputs": [],
      "stateMutability": "nonpayable",
      "type": "function"
    },
    {
      "inputs": [
        {
          "internalType": "uint256",
          "name": "",
          "type": "uint256"
        },
        {
          "internalType": "address",
          "name": "",
          "type": "address"
        }
      ],
      "name": "hasBid",
      "outputs": [
        {
          "internalType": "bool",
          "name": "",
          "type": "bool"
        }
      ],
      "stateMutability": "view",
      "type": "function"
    },
    {
      "inputs": [
        {
          "internalType": "bytes32",
          "name": "role",
          "type": "bytes32"
        },
        {
          "internalType": "address",
          "name": "account",
          "type": "address"
        }
      ],
      "name": "hasRole",
      "outputs": [
        {
          "internalType": "bool",
          "name": "",
          "type": "bool"
        }
      ],
      "stateMutability": "view",
      "type": "function"
    },
    {
      "inputs": [
        {
          "internalType": "uint256",
          "name": "auctionId",
          "type": "uint256"
        },
        {
          "internalType": "address",
          "name": "bidder",
          "type": "address"
        }
      ],
      "name": "isBidDecoded",
      "outputs": [
        {
          "internalType": "bool",
          "name": "",
          "type": "bool"
        }
      ],
      "stateMutability": "view",
      "type": "function"
    },
    {
      "inputs": [
        {
          "internalType": "uint256",
          "name": "requestId",
          "type": "uint256"
        }
      ],
      "name": "isInFlight",
      "outputs": [
        {
          "internalType": "bool",
          "name": "",
          "type": "bool"
        }
      ],
      "stateMutability": "view",
      "type": "function"
    },
    {
      "inputs": [
        {
          "internalType": "address",
          "name": "",
          "type": "address"
        },
        {
          "internalType": "address",
          "name": "",
          "type": "address"
        },
        {
          "internalType": "uint256",
          "name": "",
          "type": "uint256"
        },
        {
          "internalType": "bytes",
          "name": "",
          "type": "bytes"
        }
      ],
      "name": "onERC721Received",
      "outputs": [
        {
          "internalType": "bytes4",
          "name": "",
          "type": "bytes4"
        }
      ],
      "stateMutability": "nonpayable",
      "type": "function"
    },
    {
      "inputs": [],
      "name": "owner",
      "outputs": [
        {
          "internalType": "address",
          "name": "",
          "type": "address"
        }
      ],
      "stateMutability": "view",
      "type": "function"
    },
    {
      "inputs": [
        {
          "internalType": "uint256",
          "name": "subId",
          "type": "uint256"
        }
      ],
      "name": "pendingRequestExists",
      "outputs": [
        {
          "internalType": "bool",
          "name": "",
          "type": "bool"
        }
      ],
      "stateMutability": "view",
      "type": "function"
    },
    {
      "inputs": [],
      "name": "randamuVRF",
      "outputs": [
        {
          "internalType": "contract IRandamuVRF",
          "name": "",
          "type": "address"
        }
      ],
      "stateMutability": "view",
      "type": "function"
    },
    {
      "inputs": [
        {
          "internalType": "uint256",
          "name": "requestId",
          "type": "uint256"
        },
        {
          "internalType": "bytes",
          "name": "decryptionKey",
          "type": "bytes"
        }
      ],
      "name": "receiveBlocklock",
      "outputs": [],
      "stateMutability": "nonpayable",
      "type": "function"
    },
    {
      "inputs": [
        {
          "internalType": "address",
          "name": "seller",
          "type": "address"
        }
      ],
      "name": "removeSeller",
      "outputs": [],
      "stateMutability": "nonpayable",
      "type": "function"
    },
    {
      "inputs": [
        {
          "internalType": "bytes32",
          "name": "role",
          "type": "bytes32"
        },
        {
          "internalType": "address",
          "name": "callerConfirmation",
          "type": "address"
        }
      ],
      "name": "renounceRole",
      "outputs": [],
      "stateMutability": "nonpayable",
      "type": "function"
    },
    {
      "inputs": [
        {
          "internalType": "uint256",
          "name": "auctionId",
          "type": "uint256"
        }
      ],
      "name": "requestTieBreakRandomness",
      "outputs": [],
      "stateMutability": "nonpayable",
      "type": "function"
    },
    {
      "inputs": [
        {
          "internalType": "bytes32",
          "name": "role",
          "type": "bytes32"
        },
        {
          "internalType": "address",
          "name": "account",
          "type": "address"
        }
      ],
      "name": "revokeRole",
      "outputs": [],
      "stateMutability": "nonpayable",
      "type": "function"
    },
    {
      "inputs": [
        {
          "internalType": "address",
          "name": "_blocklock",
          "type": "address"
        }
      ],
      "name": "setBlocklock",
      "outputs": [],
      "stateMutability": "nonpayable",
      "type": "function"
    },
    {
      "inputs": [
        {
          "internalType": "uint256",
          "name": "subId",
          "type": "uint256"
        }
      ],
      "name": "setSubId",
      "outputs": [],
      "stateMutability": "nonpayable",
      "type": "function"
    },
    {
      "inputs": [],
      "name": "subscriptionId",
      "outputs": [
        {
          "internalType": "uint256",
          "name": "",
          "type": "uint256"
        }
      ],
      "stateMutability": "view",
      "type": "function"
    },
    {
      "inputs": [
        {
          "internalType": "bytes4",
          "name": "interfaceId",
          "type": "bytes4"
        }
      ],
      "name": "supportsInterface",
      "outputs": [
        {
          "internalType": "bool",
          "name": "",
          "type": "bool"
        }
      ],
      "stateMutability": "view",
      "type": "function"
    },
    {
      "inputs": [],
      "name": "topUpSubscriptionNative",
      "outputs": [],
      "stateMutability": "payable",
      "type": "function"
    },
    {
      "inputs": [
        {
          "internalType": "address",
          "name": "to",
          "type": "address"
        }
      ],
      "name": "transferOwnership",
      "outputs": [],
      "stateMutability": "nonpayable",
      "type": "function"
    },
    {
      "inputs": [
        {
          "internalType": "address",
          "name": "newAdminWallet",
          "type": "address"
        }
      ],
      "name": "updateAdminWallet",
      "outputs": [],
      "stateMutability": "nonpayable",
      "type": "function"
    },
    {
      "inputs": [
        {
          "internalType": "address[]",
          "name": "consumers",
          "type": "address[]"
        }
      ],
      "name": "updateSubscription",
      "outputs": [],
      "stateMutability": "nonpayable",
      "type": "function"
    },
    {
      "inputs": [],
      "name": "winnerSBT",
      "outputs": [
        {
          "internalType": "contract WinnerSBT",
          "name": "",
          "type": "address"
        }
      ],
      "stateMutability": "view",
      "type": "function"
    },
    {
      "inputs": [
        {
          "internalType": "uint256",
          "name": "amount",
          "type": "uint256"
        },
        {
          "internalType": "address",
          "name": "recipient",
          "type": "address"
        }
      ],
      "name": "withdrawNative",
      "outputs": [],
      "stateMutability": "nonpayable",
      "type": "function"
    },
    {
      "stateMutability": "payable",
      "type": "receive"
    }
  ],
  "bytecode": "0x60c034620001b057601f620039db38819003918201601f19168301916001600160401b03831184841017620001b557808492608094604052833981010312620001b0576200004d81620001cb565b906200005c60208201620001cb565b906200007960606200007160408401620001cb565b9201620001cb565b916001805533156200016b57600280546001600160a01b031990811633179091556004805482166001600160a01b039586161790556000600655918316939192918415620001265782166080521660a0526007541617600755620000dd33620001e0565b50620000e93362000260565b50620000f53362000302565b5060405161361b9081620003a082396080518181816121c2015261285b015260a051818181610a450152611d010152f35b60405162461bcd60e51b815260206004820152601460248201527f496e76616c69642061646d696e2077616c6c65740000000000000000000000006044820152606490fd5b60405162461bcd60e51b815260206004820152601860248201527f43616e6e6f7420736574206f776e657220746f207a65726f00000000000000006044820152606490fd5b600080fd5b634e487b7160e01b600052604160045260246000fd5b51906001600160a01b0382168203620001b057565b6001600160a01b031660008181527fad3228b676f7d3cd4284a5443f17f1962b36e491b30a40b2405849e597ba5fb5602052604081205490919060ff166200025c57818052816020526040822081835260205260408220600160ff198254161790553391600080516020620039bb8339815191528180a4600190565b5090565b6001600160a01b031660008181527f7d7ffb7a348e1c6a02869081a26547b49160dd3df72d1d75a570eb9b698292ec60205260408120549091907fa49807205ce4d355092ef5a8a18f56e8913cf4a201fbe287825b095693c217759060ff16620002fd57808352826020526040832082845260205260408320600160ff19825416179055600080516020620039bb833981519152339380a4600190565b505090565b6001600160a01b031660008181527f76a187d6a2b709324658910cc6e93f7bc2a670e53959e6ecbfa9a8f2b634cf9260205260408120549091907f43f25613eb2f15fb17222a5d424ca2655743e71265d98e4b93c05e5fb589ecde9060ff16620002fd57808352826020526040832082845260205260408320600160ff19825416179055600080516020620039bb833981519152339380a460019056fe608080604052600436101561004e575b50361561001b57600080fd5b604080513381523460208201527f88a5966d370b9919b20f3e2c13ff65706f196a4e32cc2c12bf57088f885258749190a1005b600090813560e01c90816301ffc9a714612c025750806305261aea146126a95780630695a2521461266957806309c1ba2e1461264b57806312065fe01461262f578063150b7a02146125c85780631d2b2afd1461253d578063248a9ca3146125115780632f2ff15d146124d457806336568abe1461248c57806336b19cd71461246357806336bfffed1461232957806341af6c87146122d3578063449e8812146122875780634fa26d40146121f157806355a20427146121ac578063571a26a01461210c57806358fff20e146120df5780635d94180214611e065780635eec087014611d305780636548a5aa14611ceb57806370b4768e14611b0457806373b60be01461125057806375b238fc146112275780637876ab0c1461120a57806378bd79351461117557806379ba5097146110cc5780637cb9cf54146110795780637fa45ecf14610f2a5780638098004314610ee25780638da5cb5b14610eb957806391d1485414610e6e578063922b807914610dd157806393b9740a14610da8578063961c9ae414610b23578063984fbbc61461098f5780639f489e4e14610946578063a11d304214610919578063a217fddf146108fd578063b8ca8dd814610834578063b96dbba7146106a2578063c7899db614610653578063cd7e2f9e14610609578063cd802c911461057a578063d0dd990814610539578063d547741f146104fc578063d93fabfa146104a5578063db2e21bc14610411578063dbe4613d146103e8578063e1f1c4a7146103cb578063e64a66ea1461034c5763f2fde38b0361000f5734610349576020366003190112610349576102ac612c6d565b6102b46132e3565b6001600160a01b039081169033821461030457600380546001600160a01b03191683179055600254167fed8889f560326eb138920d842192f0eb3dd22b4f139c87a2c57538e05bae12788380a380f35b60405162461bcd60e51b815260206004820152601760248201527f43616e6e6f74207472616e7366657220746f2073656c660000000000000000006044820152606490fd5b80fd5b508060031936011261034957341561038d576040513481527f5af8184bef8e4b45eb9f6ed7734d04da38ced226495548f46e0c8ff8d7d9a52460203392a280f35b60405162461bcd60e51b81526020600482015260166024820152750b2deea40daeae6e840e6cadcc840e6dedaca408aa8960531b6044820152606490fd5b503461034957806003193601126103495760206040516127108152f35b503461034957806003193601126103495760206040516000805160206135a68339815191528152f35b50346103495780600319360112610349576000805160206135c6833981519152815280602052604081203360005260205261045360ff60406000205416612d80565b8080808047335af1610463612e6e565b501561046c5780f35b60405162461bcd60e51b815260206004820152601160248201527015da5d1a191c985dd85b0819985a5b1959607a1b6044820152606490fd5b5034610349576020366003190112610349576104f86104c2612c6d565b6000805160206135c683398151915283528260205260408320336000526020526104f360ff60406000205416612d80565b6130bc565b5080f35b5034610349576040366003190112610349576104f860043561051c612c83565b90808452836020526105346001604086200154613078565b61326e565b503461034957610561602091600e604061055236612c57565b93908152600886522001612e40565b905460405160039290921b1c6001600160a01b03168152f35b5034610349576020366003190112610349576024602060018060a01b03600454166040519283809263cd802c9160e01b825260043560048301525afa9081156105fe57602092916105d1575b506040519015158152f35b6105f19150823d84116105f7575b6105e98183612cac565b810190612e9e565b386105c6565b503d6105df565b6040513d84823e3d90fd5b503461034957604036600319011261034957600c6040610627612c83565b926004358152600860205220019060018060a01b03166000526020526020604060002054604051908152f35b503461034957604036600319011261034957600d6040610671612c83565b926004358152600860205220019060018060a01b0316600052602052602060ff604060002054166040519015158152f35b5080600319360112610349576106b66132e3565b6005546107ef57808060018060a01b036020816004541660046040518095819363288688f960e21b83525af19182156107e45783926107a8575b508060045416803b156107a357604051632fb1302360e21b8152600481018490523060248201529084908290604490829084905af1908115610798578491610784575b5050816005556004541690813b1561078057829060246040518094819363256d573f60e21b8352600483015234905af180156105fe576107705750f35b61077990612c99565b6103495780f35b5050fd5b61078d90612c99565b610780578238610733565b6040513d86823e3d90fd5b505050fd5b925090506020823d6020116107dc575b816107c560209383612cac565b810103126107d75782915190386106f0565b600080fd5b3d91506107b8565b6040513d85823e3d90fd5b60405162461bcd60e51b815260206004820152601a60248201527f537562736372697074696f6e4964206973206e6f74207a65726f0000000000006044820152606490fd5b503461034957604036600319011261034957600435610851612c83565b6108596132e3565b8147106108b8576001600160a01b0316908281838282156108af575b839283928392f1156105fe5760207f7084f5476618d8e60b11ef0d7d3f06914655adb8793e28ff7f018d4c76d505d591604051908152a280f35b506108fc610875565b60405162461bcd60e51b815260206004820152601e60248201527f496e73756666696369656e742066756e647320696e20636f6e747261637400006044820152606490fd5b5034610349578060031936011261034957602090604051908152f35b503461034957602036600319011261034957600f6040602092600435815260088452200154604051908152f35b50346103495760403660031901126103495760086040610964612c83565b9260043581528260205220019060018060a01b03166000526020526020604060002054604051908152f35b503461034957602080600319360112610b1f576004356000805160206135c68339815191528352828252604083203360005282526109d460ff60406000205416612d80565b8083526008825260408320546001600160a01b03906109f69082161515612db8565b81845260088352610a106003604086200154431015612dfd565b818452600883526001600e6040862001541115610ace57828491602460405180948193637363ae1f60e01b83528760048401527f0000000000000000000000000000000000000000000000000000000000000000165af1928315610798578493610a9e575b50507f37ef079b112866bdf37cb76ceca96063b678f5e7071ad2897650d67c6696e1b28380a380f35b9080929350813d8311610ac7575b610ab68183612cac565b810103126107d75751903880610a75565b503d610aac565b60405162461bcd60e51b815260048101849052602360248201527f4e656564206d756c7469706c65206269646465727320666f722074696520627260448201526265616b60e81b6064820152608490fd5b5080fd5b50346103495760a036600319011261034957610b3d612c6d565b60249081359160443591606435608435936000805160206135a683398151915287526020928784526040882033600052845260ff6040600020541615610d7757610b85613055565b6001600160a01b0316948515610d3d5743831115610cf957600a81101580610cee575b15610caa57853b15610ca657604051632142170760e11b81523360048201523060248201526044810188905288908181606481838c5af180156105fe57610c92575b5050600654946000198614610c805750917f0330edd30cf346409c694666d69b24f917bbad510da55f45089d776baff1f42b939160609360018701600655868a5260088452600460408b206001600160601b0360a01b8a818354161782558b6001830155846002830155856003830155600582019033908254161790550155604051923384528301526040820152a46001805580f35b634e487b7160e01b8952601160045288fd5b610c9b90612c99565b610ca6578738610bea565b8780fd5b60405162461bcd60e51b815260048101859052601a818701527f496e76616c6964206465706f7369742070657263656e746167650000000000006044820152606490fd5b506032811115610ba8565b60405162461bcd60e51b815260048101859052601b818701527f456e6420626c6f636b206d75737420626520696e2066757475726500000000006044820152606490fd5b60405162461bcd60e51b81526004810185905260138187015272496e76616c6964204e4654206164647265737360681b6044820152606490fd5b60405162461bcd60e51b815260048101859052600a81870152692737ba1039b2b63632b960b11b6044820152606490fd5b50346103495780600319360112610349576004546040516001600160a01b039091168152602090f35b50346103495760403660031901126103495780610dec612c6d565b6000805160206135c68339815191528252816020526040822033600052602052610e1d60ff60406000205416612d80565b6001600160a01b0316803b15610e6b57604051632142170760e11b8152306004820152336024808301919091523560448201529082908290606490829084905af180156105fe576107705750f35b50fd5b5034610349576040366003190112610349576040610e8a612c83565b91600435815280602052209060018060a01b0316600052602052602060ff604060002054166040519015158152f35b50346103495780600319360112610349576002546040516001600160a01b039091168152602090f35b503461034957602036600319011261034957600435610eff6132e3565b806005557f5f479ac993925efae23839aa1c813b6ecb2fe1bbd14dc78295ab267d2fca43688280a280f35b503461034957606036600319011261034957600435610f47612c83565b907f86d2fbc9069d34216ebc65b38ce840528d3f8cac0c86d2aaa7ab6a9db8bc35d36044356000805160206135c6833981519152855260209085825260408620336000528252610f9e60ff60406000205416612d80565b8386526008825260408620546001600160a01b0390610fc09082161515612db8565b84875260088352610fda6003604089200154431015612dfd565b8487526009835260408720951694856000528252610fff60ff60406000205416612f96565b83865260088252600d604087200185600052825261102560ff6040600020541615612fd2565b611030811515613014565b83865260088252600c60408720018560005282528060406000205583865260088252600d60408720018560005282526040600020600160ff19825416179055604051908152a380f35b5034610349576020366003190112610349576104f8611096612c6d565b6000805160206135c683398151915283528260205260408320336000526020526110c760ff60406000205416612d80565b6131d5565b50346103495780600319360112610349576003546001600160a01b03808216330361113757600254916001600160601b0360a01b903382851617600255166003553391167f8be0079c531659141344cd1fd0a4f28419497f9722a3daafe3b4186f6b6457e08380a380f35b60405162461bcd60e51b815260206004820152601660248201527526bab9ba10313290383937b837b9b2b21037bbb732b960511b6044820152606490fd5b503461034957602036600319011261034957604061012091600435815260086020522060018060a01b03808254169160018101549160ff6002830154916003840154906005850154918160068701541694600e600788015497015497604051998a5260208a0152604089015260608801528116608087015260a01c16151560a085015260c084015260e0830152610100820152f35b503461034957806003193601126103495760206040516107d08152f35b503461034957806003193601126103495760206040516000805160206135c68339815191528152f35b506080366003190112610349576001600160401b03602435116103495760c060243536036003190112610349576044356001600160401b038111610b1f5761129c903690600401612d1f565b906064359163ffffffff83168303611b00576004358452600860205260408420546112d1906001600160a01b03161515612db8565b600435845260086020526003604085200154431015611acb576112f2613055565b60043584526009602052604084203360005260205260ff60406000205416611a98578015611a5f576004358452600860205260408420600460028201549101548181810204811482151715611a495760649102043410611a0d57611357368284612ce8565b60048054604051634b16093560e01b815263ffffffff8716928101929092526001600160a01b0316949190602081602481895afa908115611a025787916119d0575b503410611998576113da9463ffffffff60209361144760405198899586948594637909dc7b60e01b8652166004850152606060248501526064840190613442565b82810360031901604484015260406004602435018237604060446024350181830137611424611413608460243501602435600401613467565b60c0608085015260c0840191613498565b9061143960a460243501602435600401613467565b9160a0818503910152613498565b039134905af1928315610798578493611964575b506004358452600960205260408420336000526020526040600020600160ff19825416179055600435845260086020526008604085200133600052602052346040600020556004358452600860205260096040852001336000526020526040600020602435600401855b60028110611950575050604460243501855b600281106119395750506114f5608460243501602435600401612f2a565b906001600160401b03821161187b5781906115136004850154612f5c565b601f8111611906575b508790601f831160011461189a57889261188f575b50508160011b916000199060031b1c19161760048201555b61155d60a460243501602435600401612f2a565b906001600160401b03821161187b576115796005840154612f5c565b601f8111611848575b508690601f83116001146117db57600592918891836117d0575b50508160011b916000199060031b1c1916179101555b60043584526008602052600a6040852001336000526020526040600020916001600160401b0382116117bc5781906115ea8454612f5c565b601f8111611781575b508590601f831160011461171b578692611710575b50508160011b916000199060031b1c19161790555b60043582526008602052600b6040832001336000526020528060406000205560043582526008602052600e6040832001805490680100000000000000008210156116fc579061167191600182018155612e40565b81546001600160a01b0360039290921b91821b19163390911b1790556004358252600860205260408220600e015460001981019081116116e85760405191825234602083015233917f73beb687f8d55bf71d4d2807a2cd64d5c39cae24d64d74f8f8bd9dc6e29aab04604060043592a46001805580f35b634e487b7160e01b83526011600452602483fd5b634e487b7160e01b84526041600452602484fd5b013590503880611608565b84875260208720879450915b601f1984168510611769576001945083601f1981161061174f575b505050811b01905561161d565b0135600019600384901b60f8161c19169055388080611742565b81810135835560209485019460019093019201611727565b6117ac9085885260208820601f850160051c810191602086106117b2575b601f0160051c0190612f13565b386115f3565b909150819061179f565b634e487b7160e01b85526041600452602485fd5b01359050388061159c565b6005840188526020882091885b601f19851681106118305750918391600193600595601f19811610611816575b505050811b019101556115b2565b0135600019600384901b60f8161c19169055388080611808565b909260206001819286860135815501940191016117e8565b6118759060058501895260208920601f850160051c810191602086106117b257601f0160051c0190612f13565b38611582565b634e487b7160e01b87526041600452602487fd5b013590503880611531565b60048501895260208920899450915b601f19841685106118ee576001945083601f198116106118d4575b505050811b016004820155611549565b0135600019600384901b60f8161c191690553880806118c4565b818101358355602094850194600190930192016118a9565b61193390600486018a5260208a20601f850160051c810191602086106117b257601f0160051c0190612f13565b3861151c565b6001906020833593019260028286010155016114d7565b6001906020833593019281850155016114c5565b9092506020813d602011611990575b8161198060209383612cac565b810103126107d75751913861145b565b3d9150611973565b60405162461bcd60e51b815260206004820152601060248201526f092dce6eaccccd2c6d2cadce8408aa8960831b6044820152606490fd5b90506020813d6020116119fa575b816119eb60209383612cac565b810103126107d7575138611399565b3d91506119de565b6040513d89823e3d90fd5b60405162461bcd60e51b8152602060048201526014602482015273125b9cdd59999a58da595b9d0819195c1bdcda5d60621b6044820152606490fd5b634e487b7160e01b600052601160045260246000fd5b60405162461bcd60e51b815260206004820152601160248201527024b73b30b634b21031b7b73234ba34b7b760791b6044820152606490fd5b60405162461bcd60e51b815260206004820152600b60248201526a105b1c9958591e48189a5960aa1b6044820152606490fd5b60405162461bcd60e51b815260206004820152600d60248201526c105d58dd1a5bdb88195b991959609a1b6044820152606490fd5b8380fd5b503461034957602080600319360112610b1f576004358252600881526040822091600e830190815493611b3685612eb6565b93611b446040519586612cac565b858552611b5086612eb6565b93818601601f19809601368237611b6688612ecd565b97611b7081612ecd565b92611b7a82612eb6565b95611b886040519788612cac565b828752611b9483612eb6565b8787019901368a37600d810191600c82019160080190895b858110611c5c57505050505050604051978897608089019060808a525180915260a089019290875b818110611c3c5750505091611bf48285948a611c029503868c0152612d4c565b9088820360408a0152612d4c565b92868403606088015251928381520193925b828110611c2357505050500390f35b8351151585528695509381019392810192600101611c14565b82516001600160a01b031685528b9a509386019391860191600101611bd4565b80808e9f98999a9c9b9d9e611c8c611c7660019587612e40565b868060a01b0391549060031b1c16928392612eff565b5280600052848d52604060002054611ca4838b612eff565b5280600052858d52604060002054611cbc838d612eff565b52600052858c528c611cd78260ff6040600020541692612eff565b9015159052019c9b9a98999796959c611bac565b50346103495780600319360112610349576040517f00000000000000000000000000000000000000000000000000000000000000006001600160a01b03168152602090f35b503461034957602036600319011261034957611d4a612c6d565b6000805160206135c68339815191528252816020526040822033600052602052611d7b60ff60406000205416612d80565b6001600160a01b03908116908115611dca57600754826001600160601b0360a01b821617600755167fb03e0c2c1a6f3df4b388eee743d2ab30b064eb703533a6808a42b292cff9a9798380a380f35b60405162461bcd60e51b8152602060048201526014602482015273125b9d985b1a590818591b5a5b881dd85b1b195d60621b6044820152606490fd5b503461034957600319604036820112610b1f576001600160401b03602435818111611b0057611e39903690600401612d1f565b60045491936001600160a01b039283169392913385900361209b57611e5f6004356134b9565b9690958689526020946009865260408a20981697886000528552611e8a60ff60406000205416612f96565b86895260088552600d60408a2001886000528552611eb060ff6040600020541615612fd2565b86895260088552600960408a20018860005285526040600020936040516060810191818310898411176120855760a08201908382108a831117612085578c96611f7c96611fa2611f3c6005611f2f60048f9a8f90611fb19a604052611f1482613335565b8152611f2260028301613335565b60808d01528b520161337a565b9c8989019d8e520161337a565b60408701908152611f8f6040519c8d9b8c9a8b9a63326f063160e21b8c52604060048d015251611f7060448d01825161357d565b015160848b019061357d565b5160c060c48a0152610104890190613442565b90518782036043190160e4890152613442565b92858403016024860152613498565b03915afa92831561207a578693612001575b505080828051810103126107d757807f86d2fbc9069d34216ebc65b38ce840528d3f8cac0c86d2aaa7ab6a9db8bc35d3920151611030811515613014565b909192503d8087843e6120148184612cac565b8201918381840312612072578051918211612072570181601f8201121561207657805161204081612ccd565b9261204e6040519485612cac565b8184528482840101116120725761206a9184808501910161341f565b903880611fc3565b8680fd5b8580fd5b6040513d88823e3d90fd5b634e487b7160e01b600052604160045260246000fd5b606460405162461bcd60e51b815260206004820152602060248201527f4f6e6c7920626c6f636b6c6f636b20636f6e74726163742063616e2063616c6c6044820152fd5b503461034957602036600319011261034957600e6040602092600435815260088452200154604051908152f35b503461034957602036600319011261034957604061014091600435815260086020522060018060a01b03808254169160018101549160ff60028301549160038401549060048501546005860154928260068801541695600f6007890154980154986040519a8b5260208b015260408a015260608901526080880152811660a087015260a01c16151560c085015260e0840152610100830152610120820152f35b50346103495780600319360112610349576040517f00000000000000000000000000000000000000000000000000000000000000006001600160a01b03168152602090f35b50346103495760203660031901126103495761220b612c6d565b6122136132e3565b6001600160a01b03168015612238576001600160601b0360a01b600454161760045580f35b60405162461bcd60e51b815260206004820152602160248201527f43616e6e6f7420736574207a65726f20616464726573732061732073656e64656044820152603960f91b6064820152608490fd5b50346103495760403660031901126103495760406122a3612c83565b9160043581526009602052209060018060a01b0316600052602052602060ff604060002054166040519015158152f35b5034610349576020366003190112610349576024602060018060a01b0360045416604051928380926341af6c8760e01b825260043560048301525afa9081156105fe57602092916105d157506040519015158152f35b5034610349576020366003190112610349576001600160401b0360043581811161245f573660238201121561245f57806004013591821161245f5760059060243684841b830182011161245b5761237e6132e3565b60055415612426578491825b858110612395578380f35b60045485546001600160a01b039182169183881b8501860135908116810361207257823b1561207257604051632fb1302360e21b815260048101929092526001600160a01b031660248201529085908290604490829084905af190811561241b578591612407575b505060010161238a565b61241090612c99565b611b005783386123fd565b6040513d87823e3d90fd5b60405162461bcd60e51b815260206004820152600d60248201526c1cdd589251081b9bdd081cd95d609a1b6044820152606490fd5b8480fd5b8280fd5b50346103495780600319360112610349576007546040516001600160a01b039091168152602090f35b5034610349576040366003190112610349576124a6612c83565b336001600160a01b038216036124c2576104f89060043561326e565b60405163334bd91960e11b8152600490fd5b5034610349576040366003190112610349576104f86004356124f4612c83565b908084528360205261250c6001604086200154613078565b61315c565b503461034957602036600319011261034957600160406020926004358152808452200154604051908152f35b50806003193601126103495760055480156125955760045482916001600160a01b0390911690813b1561078057829060246040518094819363256d573f60e21b8352600483015234905af180156105fe576107705750f35b60405162461bcd60e51b815260206004820152600b60248201526a1cdd58881b9bdd081cd95d60aa1b6044820152606490fd5b5034610349576080366003190112610349576125e2612c6d565b506125eb612c83565b506064356001600160401b038111610b1f5736602382011215610b1f5761261c903690602481600401359101612ce8565b50604051630a85bd0160e11b8152602090f35b5034610349578060031936011261034957602047604051908152f35b50346103495780600319360112610349576020600554604051908152f35b5034610349576020817f76b796c69fab0b87f0ec993d4a40a367c4b5e59508d2a2486c0a9bccb162c2ea61269c36612c57565b604094919451908152a380f35b5034610349576020366003190112610349576000805160206135c6833981519152815280602052604081203382526020526126ea60ff604083205416612d80565b60043581526008602052604081205461270d906001600160a01b03161515612db8565b6004358152600860205261272a6003604083200154431015612dfd565b612732613055565b60043581526008602052604081209060058201549160ff8360a01c16612bcb578190829383600e830154905b818110612b525750506001600160a01b03831615612b0e576006820180546001600160a01b0319166001600160a01b03858116919091179091556007830186905560ff60a01b19909116600160a01b17600583015581546001830154911690813b1561245b57604051632142170760e11b81523060048201526001600160a01b038516602482015260448101919091529084908290606490829084905af1801561079857612afb575b50828080808760018060a01b03600754165af1612822612e6e565b5015612ab6576040516328a1f12360e11b81526001600160a01b03831660048083019190915235602482015260208180604481010381877f00000000000000000000000000000000000000000000000000000000000000006001600160a01b03165af1801561079857612a8b575b5082835b600e8301548110156129d2576128ad81600e8501612e40565b90546001600160a01b0360039290921b1c8116908516811415806129b9575b6128da575b50600101612894565b80600052600884016020526040600020546107d0938482029482860414821517156129a557816127108604810311611a49576127108504810181116129a55790879291612710860401948260005260088701602052836040600020556127108104820361294a575b5050506128d1565b839283926127108493049003905af1612961612e6e565b50156129705784388080612942565b60405162461bcd60e51b815260206004820152600d60248201526c1499599d5b990819985a5b1959609a1b6044820152606490fd5b634e487b7160e01b88526011600452602488fd5b50806000526008840160205260406000205415156128cc565b50908394939180612a22575b5050604051928352506001600160a01b031690600435907f4d9113a1377d665eaa1f9168a9c9080f2e488cb820b10149de3d6d2e0f2780c790602090a36001805580f35b8281819392600f8394015560018060a01b03600754165af1612a42612e6e565b5015612a50578238806129de565b60405162461bcd60e51b815260206004820152601360248201527215185e081d1c985b9cd9995c8819985a5b1959606a1b6044820152606490fd5b602090813d8311612aaf575b612aa18183612cac565b810103126107d75738612890565b503d612a97565b60405162461bcd60e51b815260206004820152601860248201527f5472616e7366657220746f2061646d696e206661696c656400000000000000006044820152606490fd5b612b0790939193612c99565b9138612807565b606460405162461bcd60e51b815260206004820152602060248201527f4e6f2076616c69642062696473206f722072657365727665206e6f74206d65746044820152fd5b612b5f81600e8601612e40565b905460039190911b1c6001600160a01b0316808752600d8501602052604087205460ff16612b91575b5060010161275e565b600c8501602052604087205488811180612bbd575b612bb1575b50612b88565b97509450600138612bab565b506002860154811015612ba6565b60405162461bcd60e51b815260206004820152600f60248201526e105b1c9958591e481cd95d1d1b1959608a1b6044820152606490fd5b905034610b1f576020366003190112610b1f5760043563ffffffff60e01b811680910361245f5760209250637965db0b60e01b8114908115612c46575b5015158152f35b6301ffc9a760e01b14905038612c3f565b60409060031901126107d7576004359060243590565b600435906001600160a01b03821682036107d757565b602435906001600160a01b03821682036107d757565b6001600160401b03811161208557604052565b90601f801991011681019081106001600160401b0382111761208557604052565b6001600160401b03811161208557601f01601f191660200190565b929192612cf482612ccd565b91612d026040519384612cac565b8294818452818301116107d7578281602093846000960137010152565b9181601f840112156107d7578235916001600160401b0383116107d757602083818601950101116107d757565b90815180825260208080930193019160005b828110612d6c575050505090565b835185529381019392810192600101612d5e565b15612d8757565b60405162461bcd60e51b81526020600482015260096024820152682737ba1030b236b4b760b91b6044820152606490fd5b15612dbf57565b60405162461bcd60e51b8152602060048201526016602482015275105d58dd1a5bdb88191bd95cc81b9bdd08195e1a5cdd60521b6044820152606490fd5b15612e0457565b60405162461bcd60e51b815260206004820152601460248201527341756374696f6e207374696c6c2061637469766560601b6044820152606490fd5b8054821015612e585760005260206000200190600090565b634e487b7160e01b600052603260045260246000fd5b3d15612e99573d90612e7f82612ccd565b91612e8d6040519384612cac565b82523d6000602084013e565b606090565b908160209103126107d7575180151581036107d75790565b6001600160401b0381116120855760051b60200190565b90612ed782612eb6565b612ee46040519182612cac565b8281528092612ef5601f1991612eb6565b0190602036910137565b8051821015612e585760209160051b010190565b818110612f1e575050565b60008155600101612f13565b903590601e19813603018212156107d757018035906001600160401b0382116107d7576020019181360383136107d757565b90600182811c92168015612f8c575b6020831014612f7657565b634e487b7160e01b600052602260045260246000fd5b91607f1691612f6b565b15612f9d57565b60405162461bcd60e51b815260206004820152600d60248201526c109a59081b9bdd08199bdd5b99609a1b6044820152606490fd5b15612fd957565b60405162461bcd60e51b8152602060048201526013602482015272109a5908185b1c9958591e48191958dbd91959606a1b6044820152606490fd5b1561301b57565b60405162461bcd60e51b8152602060048201526012602482015271125b9d985b1a5908189a5908185b5bdd5b9d60721b6044820152606490fd5b600260015414613066576002600155565b604051633ee5aeb560e01b8152600490fd5b80600052600060205260406000203360005260205260ff604060002054161561309e5750565b6044906040519063e2517d3f60e01b82523360048301526024820152fd5b6001600160a01b031660008181527f76a187d6a2b709324658910cc6e93f7bc2a670e53959e6ecbfa9a8f2b634cf9260205260408120549091906000805160206135a68339815191529060ff1661315757808352826020526040832082845260205260408320600160ff198254161790557f2f8788117e7eff1d82e926ec794901d17c78024a50270940304540a733656f0d339380a4600190565b505090565b9060009180835282602052604083209160018060a01b03169182845260205260ff6040842054161560001461315757808352826020526040832082845260205260408320600160ff198254161790557f2f8788117e7eff1d82e926ec794901d17c78024a50270940304540a733656f0d339380a4600190565b6001600160a01b031660008181527f76a187d6a2b709324658910cc6e93f7bc2a670e53959e6ecbfa9a8f2b634cf9260205260408120549091906000805160206135a68339815191529060ff16156131575780835282602052604083208284526020526040832060ff1981541690557ff6391f5c32d9c69d2a47ea670b442974b53935d1edc7fd64eb21e047a839171b339380a4600190565b9060009180835282602052604083209160018060a01b03169182845260205260ff6040842054166000146131575780835282602052604083208284526020526040832060ff1981541690557ff6391f5c32d9c69d2a47ea670b442974b53935d1edc7fd64eb21e047a839171b339380a4600190565b6002546001600160a01b031633036132f757565b60405162461bcd60e51b815260206004820152601660248201527527b7363c9031b0b63630b1363290313c9037bbb732b960511b6044820152606490fd5b60405191906000835b6002821061336457505050604082018281106001600160401b0382111761208557604052565b600160208192855481520193019101909161333e565b9060405191826000825461338d81612f5c565b908184526020946001916001811690816000146133fd57506001146133be575b5050506133bc92500383612cac565b565b600090815285812095935091905b8183106133e55750506133bc93508201013880806133ad565b855488840185015294850194879450918301916133cc565b925050506133bc94925060ff191682840152151560051b8201013880806133ad565b60005b8381106134325750506000910152565b8181015183820152602001613422565b9060209161345b8151809281855285808601910161341f565b601f01601f1916010190565b9035601e19823603018112156107d75701602081359101916001600160401b0382116107d75781360383136107d757565b908060209392818452848401376000828201840152601f01601f1916010190565b6006549060005b8281106135035760405162461bcd60e51b815260206004820152601460248201527314995c5d595cdd081251081b9bdd08199bdd5b9960621b6044820152606490fd5b80600052602060088152604080600020906000600e8301600b81549401915b848110613537575050505050506001016134c0565b6135418183612e40565b905460039190911b1c6001600160a01b0316600081815284885285902054891461356e5750600101613522565b99985050505050505090509190565b6000915b6002831061358e57505050565b60019082518152602080910192019201919061358156fe43f25613eb2f15fb17222a5d424ca2655743e71265d98e4b93c05e5fb589ecdea49807205ce4d355092ef5a8a18f56e8913cf4a201fbe287825b095693c21775a2646970667358221220cba709e9f9348f6e8ac28dec19e832fa68d5c4d1676e83121327f32c00b7cd8c64736f6c634300081800332f8788117e7eff1d82e926ec794901d17c78024a50270940304540a733656f0d",
  "linkReferences": {},
  "deployedLinkReferences": {}
}