{
  "_format": "hh-sol-artifact-1",
  "contractName": "AuctionHouse",
  "sourceName": "contracts/AuctionHouse.sol",
  "abi": [
    {
      "inputs": [
        {
          "internalType": "address",
          "name": "_winnerSBT",
          "type": "address"
        },
        {
          "internalType": "address",
          "name": "_randamuVRF",
          "type": "address"
        }
      ],
      "stateMutability": "nonpayable",
      "type": "constructor"
    },
    {
      "inputs": [],
      "name": "AccessControlBadConfirmation",
      "type": "error"
    },
    {
      "inputs": [
        {
          "internalType": "address",
          "name": "account",
          "type": "address"
        },
        {
          "internalType": "bytes32",
          "name": "neededRole",
          "type": "bytes32"
        }
      ],
      "name": "AccessControlUnauthorizedAccount",
      "type": "error"
    },
    {
      "inputs": [
        {
          "internalType": "address",
          "name": "owner",
          "type": "address"
        }
      ],
      "name": "OwnableInvalidOwner",
      "type": "error"
    },
    {
      "inputs": [
        {
          "internalType": "address",
          "name": "account",
          "type": "address"
        }
      ],
      "name": "OwnableUnauthorizedAccount",
      "type": "error"
    },
    {
      "inputs": [],
      "name": "ReentrancyGuardReentrantCall",
      "type": "error"
    },
    {
      "anonymous": false,
      "inputs": [
        {
          "indexed": true,
          "internalType": "uint256",
          "name": "auctionId",
          "type": "uint256"
        },
        {
          "indexed": true,
          "internalType": "address",
          "name": "nft",
          "type": "address"
        },
        {
          "indexed": true,
          "internalType": "uint256",
          "name": "tokenId",
          "type": "uint256"
        },
        {
          "indexed": false,
          "internalType": "address",
          "name": "seller",
          "type": "address"
        },
        {
          "indexed": false,
          "internalType": "uint256",
          "name": "reserve",
          "type": "uint256"
        },
        {
          "indexed": false,
          "internalType": "uint256",
          "name": "endBlock",
          "type": "uint256"
        }
      ],
      "name": "AuctionCreated",
      "type": "event"
    },
    {
      "anonymous": false,
      "inputs": [
        {
          "indexed": true,
          "internalType": "uint256",
          "name": "auctionId",
          "type": "uint256"
        },
        {
          "indexed": true,
          "internalType": "address",
          "name": "winner",
          "type": "address"
        },
        {
          "indexed": false,
          "internalType": "uint256",
          "name": "amount",
          "type": "uint256"
        }
      ],
      "name": "AuctionFinalized",
      "type": "event"
    },
    {
      "anonymous": false,
      "inputs": [
        {
          "indexed": true,
          "internalType": "uint256",
          "name": "auctionId",
          "type": "uint256"
        },
        {
          "indexed": true,
          "internalType": "uint256",
          "name": "bidIndex",
          "type": "uint256"
        },
        {
          "indexed": true,
          "internalType": "address",
          "name": "bidder",
          "type": "address"
        },
        {
          "indexed": false,
          "internalType": "bytes",
          "name": "ciphertext",
          "type": "bytes"
        },
        {
          "indexed": false,
          "internalType": "bytes",
          "name": "condition",
          "type": "bytes"
        },
        {
          "indexed": false,
          "internalType": "uint256",
          "name": "deposit",
          "type": "uint256"
        }
      ],
      "name": "BidCommitted",
      "type": "event"
    },
    {
      "anonymous": false,
      "inputs": [
        {
          "indexed": true,
          "internalType": "uint256",
          "name": "auctionId",
          "type": "uint256"
        },
        {
          "indexed": true,
          "internalType": "address",
          "name": "bidder",
          "type": "address"
        },
        {
          "indexed": false,
          "internalType": "uint256",
          "name": "amount",
          "type": "uint256"
        }
      ],
      "name": "BidRevealed",
      "type": "event"
    },
    {
      "anonymous": false,
      "inputs": [
        {
          "indexed": true,
          "internalType": "address",
          "name": "previousOwner",
          "type": "address"
        },
        {
          "indexed": true,
          "internalType": "address",
          "name": "newOwner",
          "type": "address"
        }
      ],
      "name": "OwnershipTransferred",
      "type": "event"
    },
    {
      "anonymous": false,
      "inputs": [
        {
          "indexed": true,
          "internalType": "bytes32",
          "name": "role",
          "type": "bytes32"
        },
        {
          "indexed": true,
          "internalType": "bytes32",
          "name": "previousAdminRole",
          "type": "bytes32"
        },
        {
          "indexed": true,
          "internalType": "bytes32",
          "name": "newAdminRole",
          "type": "bytes32"
        }
      ],
      "name": "RoleAdminChanged",
      "type": "event"
    },
    {
      "anonymous": false,
      "inputs": [
        {
          "indexed": true,
          "internalType": "bytes32",
          "name": "role",
          "type": "bytes32"
        },
        {
          "indexed": true,
          "internalType": "address",
          "name": "account",
          "type": "address"
        },
        {
          "indexed": true,
          "internalType": "address",
          "name": "sender",
          "type": "address"
        }
      ],
      "name": "RoleGranted",
      "type": "event"
    },
    {
      "anonymous": false,
      "inputs": [
        {
          "indexed": true,
          "internalType": "bytes32",
          "name": "role",
          "type": "bytes32"
        },
        {
          "indexed": true,
          "internalType": "address",
          "name": "account",
          "type": "address"
        },
        {
          "indexed": true,
          "internalType": "address",
          "name": "sender",
          "type": "address"
        }
      ],
      "name": "RoleRevoked",
      "type": "event"
    },
    {
      "anonymous": false,
      "inputs": [
        {
          "indexed": true,
          "internalType": "uint256",
          "name": "auctionId",
          "type": "uint256"
        },
        {
          "indexed": true,
          "internalType": "uint256",
          "name": "requestId",
          "type": "uint256"
        },
        {
          "indexed": false,
          "internalType": "uint256",
          "name": "randomness",
          "type": "uint256"
        }
      ],
      "name": "TieBreakRandomnessFulfilled",
      "type": "event"
    },
    {
      "anonymous": false,
      "inputs": [
        {
          "indexed": true,
          "internalType": "uint256",
          "name": "auctionId",
          "type": "uint256"
        },
        {
          "indexed": true,
          "internalType": "uint256",
          "name": "requestId",
          "type": "uint256"
        }
      ],
      "name": "TieBreakRandomnessRequested",
      "type": "event"
    },
    {
      "inputs": [],
      "name": "ADMIN_ROLE",
      "outputs": [
        {
          "internalType": "bytes32",
          "name": "",
          "type": "bytes32"
        }
      ],
      "stateMutability": "view",
      "type": "function"
    },
    {
      "inputs": [],
      "name": "DEFAULT_ADMIN_ROLE",
      "outputs": [
        {
          "internalType": "bytes32",
          "name": "",
          "type": "bytes32"
        }
      ],
      "stateMutability": "view",
      "type": "function"
    },
    {
      "inputs": [],
      "name": "SELLER_ROLE",
      "outputs": [
        {
          "internalType": "bytes32",
          "name": "",
          "type": "bytes32"
        }
      ],
      "stateMutability": "view",
      "type": "function"
    },
    {
      "inputs": [
        {
          "internalType": "address",
          "name": "seller",
          "type": "address"
        }
      ],
      "name": "addSeller",
      "outputs": [],
      "stateMutability": "nonpayable",
      "type": "function"
    },
    {
      "inputs": [
        {
          "internalType": "uint256",
          "name": "",
          "type": "uint256"
        }
      ],
      "name": "auctions",
      "outputs": [
        {
          "internalType": "address",
          "name": "nft",
          "type": "address"
        },
        {
          "internalType": "uint256",
          "name": "tokenId",
          "type": "uint256"
        },
        {
          "internalType": "uint256",
          "name": "reserve",
          "type": "uint256"
        },
        {
          "internalType": "uint256",
          "name": "endBlock",
          "type": "uint256"
        },
        {
          "internalType": "uint256",
          "name": "depositPct",
          "type": "uint256"
        },
        {
          "internalType": "address",
          "name": "seller",
          "type": "address"
        },
        {
          "internalType": "bool",
          "name": "settled",
          "type": "bool"
        },
        {
          "internalType": "address",
          "name": "winner",
          "type": "address"
        },
        {
          "internalType": "uint256",
          "name": "winningBid",
          "type": "uint256"
        }
      ],
      "stateMutability": "view",
      "type": "function"
    },
    {
      "inputs": [
        {
          "internalType": "uint256",
          "name": "auctionId",
          "type": "uint256"
        },
        {
          "internalType": "bytes",
          "name": "ciphertext",
          "type": "bytes"
        },
        {
          "internalType": "bytes",
          "name": "condition",
          "type": "bytes"
        },
        {
          "internalType": "address",
          "name": "refundTo",
          "type": "address"
        }
      ],
      "name": "commitBid",
      "outputs": [],
      "stateMutability": "payable",
      "type": "function"
    },
    {
      "inputs": [
        {
          "internalType": "address",
          "name": "nft",
          "type": "address"
        },
        {
          "internalType": "uint256",
          "name": "tokenId",
          "type": "uint256"
        },
        {
          "internalType": "uint256",
          "name": "reserve",
          "type": "uint256"
        },
        {
          "internalType": "uint256",
          "name": "endBlock",
          "type": "uint256"
        },
        {
          "internalType": "uint256",
          "name": "depositPct",
          "type": "uint256"
        }
      ],
      "name": "createAuction",
      "outputs": [],
      "stateMutability": "nonpayable",
      "type": "function"
    },
    {
      "inputs": [],
      "name": "emergencyWithdraw",
      "outputs": [],
      "stateMutability": "nonpayable",
      "type": "function"
    },
    {
      "inputs": [
        {
          "internalType": "address",
          "name": "nft",
          "type": "address"
        },
        {
          "internalType": "uint256",
          "name": "tokenId",
          "type": "uint256"
        }
      ],
      "name": "emergencyWithdrawNFT",
      "outputs": [],
      "stateMutability": "nonpayable",
      "type": "function"
    },
    {
      "inputs": [
        {
          "internalType": "uint256",
          "name": "auctionId",
          "type": "uint256"
        }
      ],
      "name": "finalize",
      "outputs": [],
      "stateMutability": "nonpayable",
      "type": "function"
    },
    {
      "inputs": [
        {
          "internalType": "uint256",
          "name": "requestId",
          "type": "uint256"
        },
        {
          "internalType": "uint256",
          "name": "randomness",
          "type": "uint256"
        }
      ],
      "name": "fulfillRandomness",
      "outputs": [],
      "stateMutability": "nonpayable",
      "type": "function"
    },
    {
      "inputs": [
        {
          "internalType": "uint256",
          "name": "auctionId",
          "type": "uint256"
        }
      ],
      "name": "getAuction",
      "outputs": [
        {
          "internalType": "address",
          "name": "nft",
          "type": "address"
        },
        {
          "internalType": "uint256",
          "name": "tokenId",
          "type": "uint256"
        },
        {
          "internalType": "uint256",
          "name": "reserve",
          "type": "uint256"
        },
        {
          "internalType": "uint256",
          "name": "endBlock",
          "type": "uint256"
        },
        {
          "internalType": "address",
          "name": "seller",
          "type": "address"
        },
        {
          "internalType": "bool",
          "name": "settled",
          "type": "bool"
        },
        {
          "internalType": "address",
          "name": "winner",
          "type": "address"
        },
        {
          "internalType": "uint256",
          "name": "winningBid",
          "type": "uint256"
        },
        {
          "internalType": "uint256",
          "name": "bidderCount",
          "type": "uint256"
        }
      ],
      "stateMutability": "view",
      "type": "function"
    },
    {
      "inputs": [
        {
          "internalType": "uint256",
          "name": "auctionId",
          "type": "uint256"
        },
        {
          "internalType": "uint256",
          "name": "index",
          "type": "uint256"
        }
      ],
      "name": "getBidder",
      "outputs": [
        {
          "internalType": "address",
          "name": "",
          "type": "address"
        }
      ],
      "stateMutability": "view",
      "type": "function"
    },
    {
      "inputs": [
        {
          "internalType": "uint256",
          "name": "auctionId",
          "type": "uint256"
        }
      ],
      "name": "getBidderCount",
      "outputs": [
        {
          "internalType": "uint256",
          "name": "",
          "type": "uint256"
        }
      ],
      "stateMutability": "view",
      "type": "function"
    },
    {
      "inputs": [
        {
          "internalType": "uint256",
          "name": "auctionId",
          "type": "uint256"
        },
        {
          "internalType": "address",
          "name": "bidder",
          "type": "address"
        }
      ],
      "name": "getDeposit",
      "outputs": [
        {
          "internalType": "uint256",
          "name": "",
          "type": "uint256"
        }
      ],
      "stateMutability": "view",
      "type": "function"
    },
    {
      "inputs": [
        {
          "internalType": "bytes32",
          "name": "role",
          "type": "bytes32"
        }
      ],
      "name": "getRoleAdmin",
      "outputs": [
        {
          "internalType": "bytes32",
          "name": "",
          "type": "bytes32"
        }
      ],
      "stateMutability": "view",
      "type": "function"
    },
    {
      "inputs": [
        {
          "internalType": "bytes32",
          "name": "role",
          "type": "bytes32"
        },
        {
          "internalType": "address",
          "name": "account",
          "type": "address"
        }
      ],
      "name": "grantRole",
      "outputs": [],
      "stateMutability": "nonpayable",
      "type": "function"
    },
    {
      "inputs": [
        {
          "internalType": "uint256",
          "name": "",
          "type": "uint256"
        },
        {
          "internalType": "address",
          "name": "",
          "type": "address"
        }
      ],
      "name": "hasBid",
      "outputs": [
        {
          "internalType": "bool",
          "name": "",
          "type": "bool"
        }
      ],
      "stateMutability": "view",
      "type": "function"
    },
    {
      "inputs": [
        {
          "internalType": "bytes32",
          "name": "role",
          "type": "bytes32"
        },
        {
          "internalType": "address",
          "name": "account",
          "type": "address"
        }
      ],
      "name": "hasRole",
      "outputs": [
        {
          "internalType": "bool",
          "name": "",
          "type": "bool"
        }
      ],
      "stateMutability": "view",
      "type": "function"
    },
    {
      "inputs": [
        {
          "internalType": "uint256",
          "name": "auctionId",
          "type": "uint256"
        },
        {
          "internalType": "address",
          "name": "bidder",
          "type": "address"
        },
        {
          "internalType": "uint256",
          "name": "amount",
          "type": "uint256"
        },
        {
          "internalType": "bytes",
          "name": "proof",
          "type": "bytes"
        }
      ],
      "name": "onBlocklockDecryption",
      "outputs": [],
      "stateMutability": "nonpayable",
      "type": "function"
    },
    {
      "inputs": [
        {
          "internalType": "address",
          "name": "",
          "type": "address"
        },
        {
          "internalType": "address",
          "name": "",
          "type": "address"
        },
        {
          "internalType": "uint256",
          "name": "",
          "type": "uint256"
        },
        {
          "internalType": "bytes",
          "name": "",
          "type": "bytes"
        }
      ],
      "name": "onERC721Received",
      "outputs": [
        {
          "internalType": "bytes4",
          "name": "",
          "type": "bytes4"
        }
      ],
      "stateMutability": "nonpayable",
      "type": "function"
    },
    {
      "inputs": [],
      "name": "owner",
      "outputs": [
        {
          "internalType": "address",
          "name": "",
          "type": "address"
        }
      ],
      "stateMutability": "view",
      "type": "function"
    },
    {
      "inputs": [],
      "name": "randamuVRF",
      "outputs": [
        {
          "internalType": "contract IRandamuVRF",
          "name": "",
          "type": "address"
        }
      ],
      "stateMutability": "view",
      "type": "function"
    },
    {
      "inputs": [
        {
          "internalType": "address",
          "name": "seller",
          "type": "address"
        }
      ],
      "name": "removeSeller",
      "outputs": [],
      "stateMutability": "nonpayable",
      "type": "function"
    },
    {
      "inputs": [],
      "name": "renounceOwnership",
      "outputs": [],
      "stateMutability": "nonpayable",
      "type": "function"
    },
    {
      "inputs": [
        {
          "internalType": "bytes32",
          "name": "role",
          "type": "bytes32"
        },
        {
          "internalType": "address",
          "name": "callerConfirmation",
          "type": "address"
        }
      ],
      "name": "renounceRole",
      "outputs": [],
      "stateMutability": "nonpayable",
      "type": "function"
    },
    {
      "inputs": [
        {
          "internalType": "uint256",
          "name": "auctionId",
          "type": "uint256"
        }
      ],
      "name": "requestTieBreakRandomness",
      "outputs": [],
      "stateMutability": "nonpayable",
      "type": "function"
    },
    {
      "inputs": [
        {
          "internalType": "bytes32",
          "name": "role",
          "type": "bytes32"
        },
        {
          "internalType": "address",
          "name": "account",
          "type": "address"
        }
      ],
      "name": "revokeRole",
      "outputs": [],
      "stateMutability": "nonpayable",
      "type": "function"
    },
    {
      "inputs": [
        {
          "internalType": "bytes4",
          "name": "interfaceId",
          "type": "bytes4"
        }
      ],
      "name": "supportsInterface",
      "outputs": [
        {
          "internalType": "bool",
          "name": "",
          "type": "bool"
        }
      ],
      "stateMutability": "view",
      "type": "function"
    },
    {
      "inputs": [
        {
          "internalType": "address",
          "name": "newOwner",
          "type": "address"
        }
      ],
      "name": "transferOwnership",
      "outputs": [],
      "stateMutability": "nonpayable",
      "type": "function"
    },
    {
      "inputs": [],
      "name": "winnerSBT",
      "outputs": [
        {
          "internalType": "contract WinnerSBT",
          "name": "",
          "type": "address"
        }
      ],
      "stateMutability": "view",
      "type": "function"
    }
  ],
  "bytecode": "0x60c060405260006003553480156200001657600080fd5b50604051620023d9380380620023d9833981016040819052620000399162000211565b6001805533806200006457604051631e4fbdf760e01b81526000600482015260240160405180910390fd5b6200006f81620000f3565b506001600160a01b03808316608052811660a0526200009060003362000145565b50620000bd7fa49807205ce4d355092ef5a8a18f56e8913cf4a201fbe287825b095693c217753362000145565b50620000ea7f43f25613eb2f15fb17222a5d424ca2655743e71265d98e4b93c05e5fb589ecde3362000145565b50505062000249565b600280546001600160a01b038381166001600160a01b0319831681179093556040519116919082907f8be0079c531659141344cd1fd0a4f28419497f9722a3daafe3b4186f6b6457e090600090a35050565b6000828152602081815260408083206001600160a01b038516845290915281205460ff16620001ea576000838152602081815260408083206001600160a01b03861684529091529020805460ff19166001179055620001a13390565b6001600160a01b0316826001600160a01b0316847f2f8788117e7eff1d82e926ec794901d17c78024a50270940304540a733656f0d60405160405180910390a4506001620001ee565b5060005b92915050565b80516001600160a01b03811681146200020c57600080fd5b919050565b600080604083850312156200022557600080fd5b6200023083620001f4565b91506200024060208401620001f4565b90509250929050565b60805160a05161215c6200027d600039600081816104e101526116660152600081816103830152610b85015261215c6000f3fe6080604052600436106101d85760003560e01c806375b238fc116101025780639f489e4e11610095578063d93fabfa11610064578063d93fabfa14610764578063db2e21bc14610784578063dbe4613d14610799578063f2fde38b146107bb57600080fd5b80639f489e4e146106c8578063a217fddf1461070f578063d0dd990814610724578063d547741f1461074457600080fd5b806391d14854116100d157806391d1485414610648578063922b807914610668578063961c9ae414610688578063984fbbc6146106a857600080fd5b806375b238fc1461051857806378bd79351461053a5780637cb9cf541461060a5780638da5cb5b1461062a57600080fd5b8063449e88121161017a57806358fff20e1161014957806358fff20e1461048c57806359ef5d9f146104bc5780636548a5aa146104cf578063715018a61461050357600080fd5b8063449e8812146103165780634a11fa3e1461035157806355a2042714610371578063571a26a0146103bd57600080fd5b8063150b7a02116101b6578063150b7a0214610254578063248a9ca3146102985780632f2ff15d146102d657806336568abe146102f657600080fd5b806301ffc9a7146101dd57806305261aea146102125780630695a25214610234575b600080fd5b3480156101e957600080fd5b506101fd6101f8366004611add565b6107db565b60405190151581526020015b60405180910390f35b34801561021e57600080fd5b5061023261022d366004611b0e565b6107ec565b005b34801561024057600080fd5b5061023261024f366004611b27565b610d7d565b34801561026057600080fd5b5061027f61026f366004611b7b565b630a85bd0160e11b949350505050565b6040516001600160e01b03199091168152602001610209565b3480156102a457600080fd5b506102c86102b3366004611b0e565b60009081526020819052604090206001015490565b604051908152602001610209565b3480156102e257600080fd5b506102326102f1366004611c57565b610dbd565b34801561030257600080fd5b50610232610311366004611c57565b610de8565b34801561032257600080fd5b506101fd610331366004611c57565b600560209081526000928352604080842090915290825290205460ff1681565b34801561035d57600080fd5b5061023261036c366004611ccc565b610e1b565b34801561037d57600080fd5b506103a57f000000000000000000000000000000000000000000000000000000000000000081565b6040516001600160a01b039091168152602001610209565b3480156103c957600080fd5b506104356103d8366004611b0e565b6004602081905260009182526040909120805460018201546002830154600384015494840154600585015460068601546007909601546001600160a01b039586169794969395929383831693600160a01b90930460ff1692169089565b604080516001600160a01b039a8b168152602081019990995288019690965260608701949094526080860192909252851660a0850152151560c084015290921660e082015261010081019190915261012001610209565b34801561049857600080fd5b506102c86104a7366004611b0e565b6000908152600460205260409020600b015490565b6102326104ca366004611d34565b610e84565b3480156104db57600080fd5b506103a57f000000000000000000000000000000000000000000000000000000000000000081565b34801561050f57600080fd5b5061023261117d565b34801561052457600080fd5b506102c860008051602061210783398151915281565b34801561054657600080fd5b506105b2610555366004611b0e565b60009081526004602052604090208054600182015460028301546003840154600585015460068601546007870154600b909701546001600160a01b039687169895979496939584841695600160a01b90940460ff16949092169291565b604080516001600160a01b039a8b168152602081019990995288019690965260608701949094529186166080860152151560a085015290931660c083015260e082019290925261010081019190915261012001610209565b34801561061657600080fd5b50610232610625366004611dbd565b611191565b34801561063657600080fd5b506002546001600160a01b03166103a5565b34801561065457600080fd5b506101fd610663366004611c57565b6111e1565b34801561067457600080fd5b50610232610683366004611dd8565b61120a565b34801561069457600080fd5b506102326106a3366004611e02565b6112a8565b3480156106b457600080fd5b506102326106c3366004611b0e565b61151c565b3480156106d457600080fd5b506102c86106e3366004611c57565b60008281526004602090815260408083206001600160a01b038516845260080190915290205492915050565b34801561071b57600080fd5b506102c8600081565b34801561073057600080fd5b506103a561073f366004611b27565b611711565b34801561075057600080fd5b5061023261075f366004611c57565b611750565b34801561077057600080fd5b5061023261077f366004611dbd565b611775565b34801561079057600080fd5b506102326117c1565b3480156107a557600080fd5b506102c86000805160206120e783398151915281565b3480156107c757600080fd5b506102326107d6366004611dbd565b611884565b60006107e6826118bf565b92915050565b610804600080516020612107833981519152336111e1565b6108295760405162461bcd60e51b815260040161082090611e44565b60405180910390fd5b60008181526004602052604090205481906001600160a01b031661085f5760405162461bcd60e51b815260040161082090611e67565b60008281526004602052604090206003015482904310156108b95760405162461bcd60e51b815260206004820152601460248201527341756374696f6e207374696c6c2061637469766560601b6044820152606401610820565b6108c16118f4565b60008381526004602052604090206005810154600160a01b900460ff161561091d5760405162461bcd60e51b815260206004820152600f60248201526e105b1c9958591e481cd95d1d1b1959608a1b6044820152606401610820565b60008060005b600b84015481101561098957600084600b01828154811061094657610946611e97565b60009182526020808320909101546001600160a01b0316808352600888019091526040909120549091508381111561097f578093508194505b5050600101610923565b506001600160a01b0382166109d05760405162461bcd60e51b815260206004820152600d60248201526c4e6f2076616c6964206269647360981b6044820152606401610820565b8260020154811015610a165760405162461bcd60e51b815260206004820152600f60248201526e14995cd95c9d99481b9bdd081b595d608a1b6044820152606401610820565b6006830180546001600160a01b038481166001600160a01b031990921682179092556007850183905560058501805460ff60a01b1916600160a01b17905584546001860154604051632142170760e11b815230600482015260248101939093526044830152909116906342842e0e90606401600060405180830381600087803b158015610aa257600080fd5b505af1158015610ab6573d6000803e3d6000fd5b5050505060058301546040516000916001600160a01b03169083908381818185875af1925050503d8060008114610b09576040519150601f19603f3d011682016040523d82523d6000602084013e610b0e565b606091505b5050905080610b5f5760405162461bcd60e51b815260206004820152601960248201527f5472616e7366657220746f2073656c6c6572206661696c6564000000000000006044820152606401610820565b6040516328a1f12360e11b81526001600160a01b038481166004830152602482018990527f00000000000000000000000000000000000000000000000000000000000000001690635143e246906044016020604051808303816000875af1158015610bce573d6000803e3d6000fd5b505050506040513d601f19601f82011682018060405250810190610bf29190611ead565b5060005b600b850154811015610d2657600085600b018281548110610c1957610c19611e97565b6000918252602090912001546001600160a01b03908116915085168114801590610c5c57506001600160a01b038116600090815260088701602052604090205415155b15610d1d576001600160a01b03811660008181526008880160205260408082205490519192918381818185875af1925050503d8060008114610cba576040519150601f19603f3d011682016040523d82523d6000602084013e610cbf565b606091505b5050905080610d005760405162461bcd60e51b815260206004820152600d60248201526c1499599d5b990819985a5b1959609a1b6044820152606401610820565b506001600160a01b03811660009081526008870160205260408120555b50600101610bf6565b50826001600160a01b0316877f4d9113a1377d665eaa1f9168a9c9080f2e488cb820b10149de3d6d2e0f2780c784604051610d6391815260200190565b60405180910390a350505050610d7860018055565b505050565b8160007f76b796c69fab0b87f0ec993d4a40a367c4b5e59508d2a2486c0a9bccb162c2ea83604051610db191815260200190565b60405180910390a35050565b600082815260208190526040902060010154610dd88161191e565b610de28383611928565b50505050565b6001600160a01b0381163314610e115760405163334bd91960e11b815260040160405180910390fd5b610d7882826119ba565b60008581526005602090815260408083206001600160a01b038816845290915290205460ff16610e7d5760405162461bcd60e51b815260206004820152600d60248201526c109a59081b9bdd08199bdd5b99609a1b6044820152606401610820565b5050505050565b60008681526004602052604090205486906001600160a01b0316610eba5760405162461bcd60e51b815260040161082090611e67565b60008781526004602052604090206003015487904310610f0c5760405162461bcd60e51b815260206004820152600d60248201526c105d58dd1a5bdb88195b991959609a1b6044820152606401610820565b610f146118f4565b600088815260056020908152604080832033845290915290205460ff1615610f6c5760405162461bcd60e51b815260206004820152600b60248201526a105b1c9958591e48189a5960aa1b6044820152606401610820565b85610fae5760405162461bcd60e51b8152602060048201526012602482015271125b9d985b1a590818da5c1a195c9d195e1d60721b6044820152606401610820565b83610fef5760405162461bcd60e51b815260206004820152601160248201527024b73b30b634b21031b7b73234ba34b7b760791b6044820152606401610820565b60008881526004602081905260408220908101546002909101546127109161101691611edc565b6110209190611ef3565b9050803410156110695760405162461bcd60e51b8152602060048201526014602482015273125b9cdd59999a58da595b9d0819195c1bdcda5d60621b6044820152606401610820565b600089815260056020908152604080832033808552908352818420805460ff191660011790558c84526004835281842090845260088101835281842034905560090190915290206110bb888a83611f97565b506000898152600460209081526040808320338452600a0190915290206110e3868883611f97565b5060008981526004602090815260408220600b018054600181810183558285529284200180546001600160a01b03191633908117909155928c9052546111299190612057565b8a7f54af85a7ebf7072af4b8d4806332d12917f0f65bb6c8a21d9f5fb458bd7577518b8b8b8b34604051611161959493929190612093565b60405180910390a45061117360018055565b5050505050505050565b611185611a25565b61118f6000611a52565b565b6111a9600080516020612107833981519152336111e1565b6111c55760405162461bcd60e51b815260040161082090611e44565b6111dd6000805160206120e7833981519152826119ba565b5050565b6000918252602082815260408084206001600160a01b0393909316845291905290205460ff1690565b611222600080516020612107833981519152336111e1565b61123e5760405162461bcd60e51b815260040161082090611e44565b604051632142170760e11b8152306004820152336024820152604481018290526001600160a01b038316906342842e0e90606401600060405180830381600087803b15801561128c57600080fd5b505af11580156112a0573d6000803e3d6000fd5b505050505050565b6112c06000805160206120e7833981519152336111e1565b6112f95760405162461bcd60e51b815260206004820152600a6024820152692737ba1039b2b63632b960b11b6044820152606401610820565b6113016118f4565b6001600160a01b03851661134d5760405162461bcd60e51b8152602060048201526013602482015272496e76616c6964204e4654206164647265737360681b6044820152606401610820565b43821161139c5760405162461bcd60e51b815260206004820152601b60248201527f456e6420626c6f636b206d75737420626520696e2066757475726500000000006044820152606401610820565b600a81101580156113ae575060328111155b6113fa5760405162461bcd60e51b815260206004820152601a60248201527f496e76616c6964206465706f7369742070657263656e746167650000000000006044820152606401610820565b604051632142170760e11b8152336004820152306024820152604481018590526001600160a01b038616906342842e0e90606401600060405180830381600087803b15801561144857600080fd5b505af115801561145c573d6000803e3d6000fd5b50506003805492508291506000611472836120cd565b909155505060008181526004602081815260409283902080546001600160a01b03199081166001600160a01b038c169081178355600183018b9055600283018a90556003830189905560058301805433931683179055938201879055845190815291820188905292810186905287919084907f0330edd30cf346409c694666d69b24f917bbad510da55f45089d776baff1f42b9060600160405180910390a45050610e7d60018055565b611534600080516020612107833981519152336111e1565b6115505760405162461bcd60e51b815260040161082090611e44565b60008181526004602052604090205481906001600160a01b03166115865760405162461bcd60e51b815260040161082090611e67565b60008281526004602052604090206003015482904310156115e05760405162461bcd60e51b815260206004820152601460248201527341756374696f6e207374696c6c2061637469766560601b6044820152606401610820565b6000838152600460205260409020600b015460011061164d5760405162461bcd60e51b815260206004820152602360248201527f4e656564206d756c7469706c65206269646465727320666f722074696520627260448201526265616b60e81b6064820152608401610820565b604051637363ae1f60e01b8152600481018490526000907f00000000000000000000000000000000000000000000000000000000000000006001600160a01b031690637363ae1f906024016020604051808303816000875af11580156116b7573d6000803e3d6000fd5b505050506040513d601f19601f820116820180604052508101906116db9190611ead565b905080847f37ef079b112866bdf37cb76ceca96063b678f5e7071ad2897650d67c6696e1b260405160405180910390a350505050565b6000828152600460205260408120600b0180548390811061173457611734611e97565b6000918252602090912001546001600160a01b03169392505050565b60008281526020819052604090206001015461176b8161191e565b610de283836119ba565b61178d600080516020612107833981519152336111e1565b6117a95760405162461bcd60e51b815260040161082090611e44565b6111dd6000805160206120e783398151915282611928565b6117d9600080516020612107833981519152336111e1565b6117f55760405162461bcd60e51b815260040161082090611e44565b604051600090339047908381818185875af1925050503d8060008114611837576040519150601f19603f3d011682016040523d82523d6000602084013e61183c565b606091505b50509050806118815760405162461bcd60e51b815260206004820152601160248201527015da5d1a191c985dd85b0819985a5b1959607a1b6044820152606401610820565b50565b61188c611a25565b6001600160a01b0381166118b657604051631e4fbdf760e01b815260006004820152602401610820565b61188181611a52565b60006001600160e01b03198216637965db0b60e01b14806107e657506301ffc9a760e01b6001600160e01b03198316146107e6565b60026001540361191757604051633ee5aeb560e01b815260040160405180910390fd5b6002600155565b6118818133611aa4565b600061193483836111e1565b6119b2576000838152602081815260408083206001600160a01b03861684529091529020805460ff1916600117905561196a3390565b6001600160a01b0316826001600160a01b0316847f2f8788117e7eff1d82e926ec794901d17c78024a50270940304540a733656f0d60405160405180910390a45060016107e6565b5060006107e6565b60006119c683836111e1565b156119b2576000838152602081815260408083206001600160a01b0386168085529252808320805460ff1916905551339286917ff6391f5c32d9c69d2a47ea670b442974b53935d1edc7fd64eb21e047a839171b9190a45060016107e6565b6002546001600160a01b0316331461118f5760405163118cdaa760e01b8152336004820152602401610820565b600280546001600160a01b038381166001600160a01b0319831681179093556040519116919082907f8be0079c531659141344cd1fd0a4f28419497f9722a3daafe3b4186f6b6457e090600090a35050565b611aae82826111e1565b6111dd5760405163e2517d3f60e01b81526001600160a01b038216600482015260248101839052604401610820565b600060208284031215611aef57600080fd5b81356001600160e01b031981168114611b0757600080fd5b9392505050565b600060208284031215611b2057600080fd5b5035919050565b60008060408385031215611b3a57600080fd5b50508035926020909101359150565b80356001600160a01b0381168114611b6057600080fd5b919050565b634e487b7160e01b600052604160045260246000fd5b60008060008060808587031215611b9157600080fd5b611b9a85611b49565b9350611ba860208601611b49565b925060408501359150606085013567ffffffffffffffff80821115611bcc57600080fd5b818701915087601f830112611be057600080fd5b813581811115611bf257611bf2611b65565b604051601f8201601f19908116603f01168101908382118183101715611c1a57611c1a611b65565b816040528281528a6020848701011115611c3357600080fd5b82602086016020830137600060208483010152809550505050505092959194509250565b60008060408385031215611c6a57600080fd5b82359150611c7a60208401611b49565b90509250929050565b60008083601f840112611c9557600080fd5b50813567ffffffffffffffff811115611cad57600080fd5b602083019150836020828501011115611cc557600080fd5b9250929050565b600080600080600060808688031215611ce457600080fd5b85359450611cf460208701611b49565b935060408601359250606086013567ffffffffffffffff811115611d1757600080fd5b611d2388828901611c83565b969995985093965092949392505050565b60008060008060008060808789031215611d4d57600080fd5b86359550602087013567ffffffffffffffff80821115611d6c57600080fd5b611d788a838b01611c83565b90975095506040890135915080821115611d9157600080fd5b50611d9e89828a01611c83565b9094509250611db1905060608801611b49565b90509295509295509295565b600060208284031215611dcf57600080fd5b611b0782611b49565b60008060408385031215611deb57600080fd5b611df483611b49565b946020939093013593505050565b600080600080600060a08688031215611e1a57600080fd5b611e2386611b49565b97602087013597506040870135966060810135965060800135945092505050565b6020808252600990820152682737ba1030b236b4b760b91b604082015260600190565b602080825260169082015275105d58dd1a5bdb88191bd95cc81b9bdd08195e1a5cdd60521b604082015260600190565b634e487b7160e01b600052603260045260246000fd5b600060208284031215611ebf57600080fd5b5051919050565b634e487b7160e01b600052601160045260246000fd5b80820281158282048414176107e6576107e6611ec6565b600082611f1057634e487b7160e01b600052601260045260246000fd5b500490565b600181811c90821680611f2957607f821691505b602082108103611f4957634e487b7160e01b600052602260045260246000fd5b50919050565b601f821115610d78576000816000526020600020601f850160051c81016020861015611f785750805b601f850160051c820191505b818110156112a057828155600101611f84565b67ffffffffffffffff831115611faf57611faf611b65565b611fc383611fbd8354611f15565b83611f4f565b6000601f841160018114611ff75760008515611fdf5750838201355b600019600387901b1c1916600186901b178355610e7d565b600083815260209020601f19861690835b828110156120285786850135825560209485019460019092019101612008565b50868210156120455760001960f88860031b161c19848701351681555b505060018560011b0183555050505050565b818103818111156107e6576107e6611ec6565b81835281816020850137506000828201602090810191909152601f909101601f19169091010190565b6060815260006120a760608301878961206a565b82810360208401526120ba81868861206a565b9150508260408301529695505050505050565b6000600182016120df576120df611ec6565b506001019056fe43f25613eb2f15fb17222a5d424ca2655743e71265d98e4b93c05e5fb589ecdea49807205ce4d355092ef5a8a18f56e8913cf4a201fbe287825b095693c21775a264697066735822122073de7449177f26b1e7f85770ed8749eb45e9f12389d6f4698a9647ac13a3e7a464736f6c63430008180033",
  "linkReferences": {},
  "deployedLinkReferences": {}
}