{
  "_format": "hh-sol-artifact-1",
  "contractName": "AuctionHouse",
  "sourceName": "contracts/AuctionHouse.sol",
  "abi": [
    {
      "inputs": [
        {
          "internalType": "address",
          "name": "_winnerSBT",
          "type": "address"
        },
        {
          "internalType": "address",
          "name": "_randamuVRF",
          "type": "address"
        },
        {
          "internalType": "address",
          "name": "_adminWallet",
          "type": "address"
        },
        {
          "internalType": "address",
          "name": "_blocklockSender",
          "type": "address"
        }
      ],
      "stateMutability": "nonpayable",
      "type": "constructor"
    },
    {
      "inputs": [],
      "name": "AccessControlBadConfirmation",
      "type": "error"
    },
    {
      "inputs": [
        {
          "internalType": "address",
          "name": "account",
          "type": "address"
        },
        {
          "internalType": "bytes32",
          "name": "neededRole",
          "type": "bytes32"
        }
      ],
      "name": "AccessControlUnauthorizedAccount",
      "type": "error"
    },
    {
      "inputs": [],
      "name": "ReentrancyGuardReentrantCall",
      "type": "error"
    },
    {
      "anonymous": false,
      "inputs": [
        {
          "indexed": true,
          "internalType": "address",
          "name": "oldAdmin",
          "type": "address"
        },
        {
          "indexed": true,
          "internalType": "address",
          "name": "newAdmin",
          "type": "address"
        }
      ],
      "name": "AdminWalletUpdated",
      "type": "event"
    },
    {
      "anonymous": false,
      "inputs": [
        {
          "indexed": true,
          "internalType": "uint256",
          "name": "auctionId",
          "type": "uint256"
        },
        {
          "indexed": true,
          "internalType": "address",
          "name": "nft",
          "type": "address"
        },
        {
          "indexed": true,
          "internalType": "uint256",
          "name": "tokenId",
          "type": "uint256"
        },
        {
          "indexed": false,
          "internalType": "address",
          "name": "seller",
          "type": "address"
        },
        {
          "indexed": false,
          "internalType": "uint256",
          "name": "reserve",
          "type": "uint256"
        },
        {
          "indexed": false,
          "internalType": "uint256",
          "name": "endBlock",
          "type": "uint256"
        }
      ],
      "name": "AuctionCreated",
      "type": "event"
    },
    {
      "anonymous": false,
      "inputs": [
        {
          "indexed": true,
          "internalType": "uint256",
          "name": "auctionId",
          "type": "uint256"
        },
        {
          "indexed": true,
          "internalType": "address",
          "name": "winner",
          "type": "address"
        },
        {
          "indexed": false,
          "internalType": "uint256",
          "name": "amount",
          "type": "uint256"
        }
      ],
      "name": "AuctionFinalized",
      "type": "event"
    },
    {
      "anonymous": false,
      "inputs": [
        {
          "indexed": true,
          "internalType": "uint256",
          "name": "auctionId",
          "type": "uint256"
        },
        {
          "indexed": true,
          "internalType": "uint256",
          "name": "bidIndex",
          "type": "uint256"
        },
        {
          "indexed": true,
          "internalType": "address",
          "name": "bidder",
          "type": "address"
        },
        {
          "indexed": false,
          "internalType": "uint256",
          "name": "blocklockRequestId",
          "type": "uint256"
        },
        {
          "indexed": false,
          "internalType": "uint256",
          "name": "deposit",
          "type": "uint256"
        }
      ],
      "name": "BidCommitted",
      "type": "event"
    },
    {
      "anonymous": false,
      "inputs": [
        {
          "indexed": true,
          "internalType": "uint256",
          "name": "auctionId",
          "type": "uint256"
        },
        {
          "indexed": true,
          "internalType": "address",
          "name": "bidder",
          "type": "address"
        },
        {
          "indexed": false,
          "internalType": "uint256",
          "name": "amount",
          "type": "uint256"
        }
      ],
      "name": "BidRevealed",
      "type": "event"
    },
    {
      "anonymous": false,
      "inputs": [
        {
          "indexed": true,
          "internalType": "address",
          "name": "sender",
          "type": "address"
        },
        {
          "indexed": false,
          "internalType": "uint256",
          "name": "amount",
          "type": "uint256"
        }
      ],
      "name": "Funded",
      "type": "event"
    },
    {
      "anonymous": false,
      "inputs": [
        {
          "indexed": true,
          "internalType": "uint256",
          "name": "subscriptionId",
          "type": "uint256"
        }
      ],
      "name": "NewSubscriptionId",
      "type": "event"
    },
    {
      "anonymous": false,
      "inputs": [
        {
          "indexed": true,
          "internalType": "address",
          "name": "from",
          "type": "address"
        },
        {
          "indexed": true,
          "internalType": "address",
          "name": "to",
          "type": "address"
        }
      ],
      "name": "OwnershipTransferRequested",
      "type": "event"
    },
    {
      "anonymous": false,
      "inputs": [
        {
          "indexed": true,
          "internalType": "address",
          "name": "from",
          "type": "address"
        },
        {
          "indexed": true,
          "internalType": "address",
          "name": "to",
          "type": "address"
        }
      ],
      "name": "OwnershipTransferred",
      "type": "event"
    },
    {
      "anonymous": false,
      "inputs": [
        {
          "indexed": false,
          "internalType": "address",
          "name": "",
          "type": "address"
        },
        {
          "indexed": false,
          "internalType": "uint256",
          "name": "",
          "type": "uint256"
        }
      ],
      "name": "Received",
      "type": "event"
    },
    {
      "anonymous": false,
      "inputs": [
        {
          "indexed": true,
          "internalType": "bytes32",
          "name": "role",
          "type": "bytes32"
        },
        {
          "indexed": true,
          "internalType": "bytes32",
          "name": "previousAdminRole",
          "type": "bytes32"
        },
        {
          "indexed": true,
          "internalType": "bytes32",
          "name": "newAdminRole",
          "type": "bytes32"
        }
      ],
      "name": "RoleAdminChanged",
      "type": "event"
    },
    {
      "anonymous": false,
      "inputs": [
        {
          "indexed": true,
          "internalType": "bytes32",
          "name": "role",
          "type": "bytes32"
        },
        {
          "indexed": true,
          "internalType": "address",
          "name": "account",
          "type": "address"
        },
        {
          "indexed": true,
          "internalType": "address",
          "name": "sender",
          "type": "address"
        }
      ],
      "name": "RoleGranted",
      "type": "event"
    },
    {
      "anonymous": false,
      "inputs": [
        {
          "indexed": true,
          "internalType": "bytes32",
          "name": "role",
          "type": "bytes32"
        },
        {
          "indexed": true,
          "internalType": "address",
          "name": "account",
          "type": "address"
        },
        {
          "indexed": true,
          "internalType": "address",
          "name": "sender",
          "type": "address"
        }
      ],
      "name": "RoleRevoked",
      "type": "event"
    },
    {
      "anonymous": false,
      "inputs": [
        {
          "indexed": true,
          "internalType": "uint256",
          "name": "auctionId",
          "type": "uint256"
        },
        {
          "indexed": true,
          "internalType": "address",
          "name": "bidder",
          "type": "address"
        },
        {
          "indexed": false,
          "internalType": "uint256",
          "name": "taxAmount",
          "type": "uint256"
        }
      ],
      "name": "TaxCollected",
      "type": "event"
    },
    {
      "anonymous": false,
      "inputs": [
        {
          "indexed": true,
          "internalType": "uint256",
          "name": "auctionId",
          "type": "uint256"
        },
        {
          "indexed": true,
          "internalType": "uint256",
          "name": "requestId",
          "type": "uint256"
        },
        {
          "indexed": false,
          "internalType": "uint256",
          "name": "randomness",
          "type": "uint256"
        }
      ],
      "name": "TieBreakRandomnessFulfilled",
      "type": "event"
    },
    {
      "anonymous": false,
      "inputs": [
        {
          "indexed": true,
          "internalType": "uint256",
          "name": "auctionId",
          "type": "uint256"
        },
        {
          "indexed": true,
          "internalType": "uint256",
          "name": "requestId",
          "type": "uint256"
        }
      ],
      "name": "TieBreakRandomnessRequested",
      "type": "event"
    },
    {
      "anonymous": false,
      "inputs": [
        {
          "indexed": true,
          "internalType": "address",
          "name": "recipient",
          "type": "address"
        },
        {
          "indexed": false,
          "internalType": "uint256",
          "name": "amount",
          "type": "uint256"
        }
      ],
      "name": "Withdrawn",
      "type": "event"
    },
    {
      "inputs": [],
      "name": "ADMIN_ROLE",
      "outputs": [
        {
          "internalType": "bytes32",
          "name": "",
          "type": "bytes32"
        }
      ],
      "stateMutability": "view",
      "type": "function"
    },
    {
      "inputs": [],
      "name": "BASIS_POINTS",
      "outputs": [
        {
          "internalType": "uint256",
          "name": "",
          "type": "uint256"
        }
      ],
      "stateMutability": "view",
      "type": "function"
    },
    {
      "inputs": [],
      "name": "DEFAULT_ADMIN_ROLE",
      "outputs": [
        {
          "internalType": "bytes32",
          "name": "",
          "type": "bytes32"
        }
      ],
      "stateMutability": "view",
      "type": "function"
    },
    {
      "inputs": [],
      "name": "SELLER_ROLE",
      "outputs": [
        {
          "internalType": "bytes32",
          "name": "",
          "type": "bytes32"
        }
      ],
      "stateMutability": "view",
      "type": "function"
    },
    {
      "inputs": [],
      "name": "TAX_PERCENTAGE",
      "outputs": [
        {
          "internalType": "uint256",
          "name": "",
          "type": "uint256"
        }
      ],
      "stateMutability": "view",
      "type": "function"
    },
    {
      "inputs": [],
      "name": "acceptOwnership",
      "outputs": [],
      "stateMutability": "nonpayable",
      "type": "function"
    },
    {
      "inputs": [
        {
          "internalType": "address",
          "name": "seller",
          "type": "address"
        }
      ],
      "name": "addSeller",
      "outputs": [],
      "stateMutability": "nonpayable",
      "type": "function"
    },
    {
      "inputs": [],
      "name": "adminWallet",
      "outputs": [
        {
          "internalType": "address",
          "name": "",
          "type": "address"
        }
      ],
      "stateMutability": "view",
      "type": "function"
    },
    {
      "inputs": [
        {
          "internalType": "uint256",
          "name": "",
          "type": "uint256"
        }
      ],
      "name": "auctions",
      "outputs": [
        {
          "internalType": "address",
          "name": "nft",
          "type": "address"
        },
        {
          "internalType": "uint256",
          "name": "tokenId",
          "type": "uint256"
        },
        {
          "internalType": "uint256",
          "name": "reserve",
          "type": "uint256"
        },
        {
          "internalType": "uint256",
          "name": "endBlock",
          "type": "uint256"
        },
        {
          "internalType": "uint256",
          "name": "depositPct",
          "type": "uint256"
        },
        {
          "internalType": "address",
          "name": "seller",
          "type": "address"
        },
        {
          "internalType": "bool",
          "name": "settled",
          "type": "bool"
        },
        {
          "internalType": "address",
          "name": "winner",
          "type": "address"
        },
        {
          "internalType": "uint256",
          "name": "winningBid",
          "type": "uint256"
        },
        {
          "internalType": "uint256",
          "name": "totalTaxCollected",
          "type": "uint256"
        }
      ],
      "stateMutability": "view",
      "type": "function"
    },
    {
      "inputs": [],
      "name": "blocklock",
      "outputs": [
        {
          "internalType": "contract IBlocklockSender",
          "name": "",
          "type": "address"
        }
      ],
      "stateMutability": "view",
      "type": "function"
    },
    {
      "inputs": [
        {
          "internalType": "uint256",
          "name": "auctionId",
          "type": "uint256"
        },
        {
          "components": [
            {
              "components": [
                {
                  "internalType": "uint256[2]",
                  "name": "x",
                  "type": "uint256[2]"
                },
                {
                  "internalType": "uint256[2]",
                  "name": "y",
                  "type": "uint256[2]"
                }
              ],
              "internalType": "struct BLS.PointG2",
              "name": "u",
              "type": "tuple"
            },
            {
              "internalType": "bytes",
              "name": "v",
              "type": "bytes"
            },
            {
              "internalType": "bytes",
              "name": "w",
              "type": "bytes"
            }
          ],
          "internalType": "struct TypesLib.Ciphertext",
          "name": "encryptedBid",
          "type": "tuple"
        },
        {
          "internalType": "bytes",
          "name": "condition",
          "type": "bytes"
        },
        {
          "internalType": "uint32",
          "name": "callbackGasLimit",
          "type": "uint32"
        }
      ],
      "name": "commitBid",
      "outputs": [],
      "stateMutability": "payable",
      "type": "function"
    },
    {
      "inputs": [
        {
          "internalType": "address",
          "name": "nft",
          "type": "address"
        },
        {
          "internalType": "uint256",
          "name": "tokenId",
          "type": "uint256"
        },
        {
          "internalType": "uint256",
          "name": "reserve",
          "type": "uint256"
        },
        {
          "internalType": "uint256",
          "name": "endBlock",
          "type": "uint256"
        },
        {
          "internalType": "uint256",
          "name": "depositPct",
          "type": "uint256"
        }
      ],
      "name": "createAuction",
      "outputs": [],
      "stateMutability": "nonpayable",
      "type": "function"
    },
    {
      "inputs": [],
      "name": "createSubscriptionAndFundNative",
      "outputs": [],
      "stateMutability": "payable",
      "type": "function"
    },
    {
      "inputs": [
        {
          "internalType": "uint256",
          "name": "auctionId",
          "type": "uint256"
        },
        {
          "internalType": "address",
          "name": "bidder",
          "type": "address"
        },
        {
          "internalType": "uint256",
          "name": "amount",
          "type": "uint256"
        }
      ],
      "name": "decodeBid",
      "outputs": [],
      "stateMutability": "nonpayable",
      "type": "function"
    },
    {
      "inputs": [],
      "name": "emergencyWithdraw",
      "outputs": [],
      "stateMutability": "nonpayable",
      "type": "function"
    },
    {
      "inputs": [
        {
          "internalType": "address",
          "name": "nft",
          "type": "address"
        },
        {
          "internalType": "uint256",
          "name": "tokenId",
          "type": "uint256"
        }
      ],
      "name": "emergencyWithdrawNFT",
      "outputs": [],
      "stateMutability": "nonpayable",
      "type": "function"
    },
    {
      "inputs": [
        {
          "internalType": "uint256",
          "name": "auctionId",
          "type": "uint256"
        }
      ],
      "name": "finalize",
      "outputs": [],
      "stateMutability": "nonpayable",
      "type": "function"
    },
    {
      "inputs": [
        {
          "internalType": "uint256",
          "name": "requestId",
          "type": "uint256"
        },
        {
          "internalType": "uint256",
          "name": "randomness",
          "type": "uint256"
        }
      ],
      "name": "fulfillRandomness",
      "outputs": [],
      "stateMutability": "nonpayable",
      "type": "function"
    },
    {
      "inputs": [],
      "name": "fundContractNative",
      "outputs": [],
      "stateMutability": "payable",
      "type": "function"
    },
    {
      "inputs": [
        {
          "internalType": "uint256",
          "name": "auctionId",
          "type": "uint256"
        }
      ],
      "name": "getAuction",
      "outputs": [
        {
          "internalType": "address",
          "name": "nft",
          "type": "address"
        },
        {
          "internalType": "uint256",
          "name": "tokenId",
          "type": "uint256"
        },
        {
          "internalType": "uint256",
          "name": "reserve",
          "type": "uint256"
        },
        {
          "internalType": "uint256",
          "name": "endBlock",
          "type": "uint256"
        },
        {
          "internalType": "address",
          "name": "seller",
          "type": "address"
        },
        {
          "internalType": "bool",
          "name": "settled",
          "type": "bool"
        },
        {
          "internalType": "address",
          "name": "winner",
          "type": "address"
        },
        {
          "internalType": "uint256",
          "name": "winningBid",
          "type": "uint256"
        },
        {
          "internalType": "uint256",
          "name": "bidderCount",
          "type": "uint256"
        }
      ],
      "stateMutability": "view",
      "type": "function"
    },
    {
      "inputs": [
        {
          "internalType": "uint256",
          "name": "auctionId",
          "type": "uint256"
        }
      ],
      "name": "getAuctionBids",
      "outputs": [
        {
          "internalType": "address[]",
          "name": "bidders",
          "type": "address[]"
        },
        {
          "internalType": "uint256[]",
          "name": "deposits",
          "type": "uint256[]"
        },
        {
          "internalType": "uint256[]",
          "name": "decodedBids",
          "type": "uint256[]"
        },
        {
          "internalType": "bool[]",
          "name": "decoded",
          "type": "bool[]"
        }
      ],
      "stateMutability": "view",
      "type": "function"
    },
    {
      "inputs": [],
      "name": "getBalance",
      "outputs": [
        {
          "internalType": "uint256",
          "name": "",
          "type": "uint256"
        }
      ],
      "stateMutability": "view",
      "type": "function"
    },
    {
      "inputs": [
        {
          "internalType": "uint256",
          "name": "auctionId",
          "type": "uint256"
        },
        {
          "internalType": "uint256",
          "name": "index",
          "type": "uint256"
        }
      ],
      "name": "getBidder",
      "outputs": [
        {
          "internalType": "address",
          "name": "",
          "type": "address"
        }
      ],
      "stateMutability": "view",
      "type": "function"
    },
    {
      "inputs": [
        {
          "internalType": "uint256",
          "name": "auctionId",
          "type": "uint256"
        }
      ],
      "name": "getBidderCount",
      "outputs": [
        {
          "internalType": "uint256",
          "name": "",
          "type": "uint256"
        }
      ],
      "stateMutability": "view",
      "type": "function"
    },
    {
      "inputs": [
        {
          "internalType": "uint256",
          "name": "auctionId",
          "type": "uint256"
        },
        {
          "internalType": "address",
          "name": "bidder",
          "type": "address"
        }
      ],
      "name": "getDecodedBid",
      "outputs": [
        {
          "internalType": "uint256",
          "name": "",
          "type": "uint256"
        }
      ],
      "stateMutability": "view",
      "type": "function"
    },
    {
      "inputs": [
        {
          "internalType": "uint256",
          "name": "auctionId",
          "type": "uint256"
        },
        {
          "internalType": "address",
          "name": "bidder",
          "type": "address"
        }
      ],
      "name": "getDeposit",
      "outputs": [
        {
          "internalType": "uint256",
          "name": "",
          "type": "uint256"
        }
      ],
      "stateMutability": "view",
      "type": "function"
    },
    {
      "inputs": [
        {
          "internalType": "bytes32",
          "name": "role",
          "type": "bytes32"
        }
      ],
      "name": "getRoleAdmin",
      "outputs": [
        {
          "internalType": "bytes32",
          "name": "",
          "type": "bytes32"
        }
      ],
      "stateMutability": "view",
      "type": "function"
    },
    {
      "inputs": [
        {
          "internalType": "uint256",
          "name": "auctionId",
          "type": "uint256"
        }
      ],
      "name": "getTaxCollected",
      "outputs": [
        {
          "internalType": "uint256",
          "name": "",
          "type": "uint256"
        }
      ],
      "stateMutability": "view",
      "type": "function"
    },
    {
      "inputs": [
        {
          "internalType": "bytes32",
          "name": "role",
          "type": "bytes32"
        },
        {
          "internalType": "address",
          "name": "account",
          "type": "address"
        }
      ],
      "name": "grantRole",
      "outputs": [],
      "stateMutability": "nonpayable",
      "type": "function"
    },
    {
      "inputs": [
        {
          "internalType": "uint256",
          "name": "",
          "type": "uint256"
        },
        {
          "internalType": "address",
          "name": "",
          "type": "address"
        }
      ],
      "name": "hasBid",
      "outputs": [
        {
          "internalType": "bool",
          "name": "",
          "type": "bool"
        }
      ],
      "stateMutability": "view",
      "type": "function"
    },
    {
      "inputs": [
        {
          "internalType": "bytes32",
          "name": "role",
          "type": "bytes32"
        },
        {
          "internalType": "address",
          "name": "account",
          "type": "address"
        }
      ],
      "name": "hasRole",
      "outputs": [
        {
          "internalType": "bool",
          "name": "",
          "type": "bool"
        }
      ],
      "stateMutability": "view",
      "type": "function"
    },
    {
      "inputs": [
        {
          "internalType": "uint256",
          "name": "auctionId",
          "type": "uint256"
        },
        {
          "internalType": "address",
          "name": "bidder",
          "type": "address"
        }
      ],
      "name": "isBidDecoded",
      "outputs": [
        {
          "internalType": "bool",
          "name": "",
          "type": "bool"
        }
      ],
      "stateMutability": "view",
      "type": "function"
    },
    {
      "inputs": [
        {
          "internalType": "uint256",
          "name": "requestId",
          "type": "uint256"
        }
      ],
      "name": "isInFlight",
      "outputs": [
        {
          "internalType": "bool",
          "name": "",
          "type": "bool"
        }
      ],
      "stateMutability": "view",
      "type": "function"
    },
    {
      "inputs": [
        {
          "internalType": "address",
          "name": "",
          "type": "address"
        },
        {
          "internalType": "address",
          "name": "",
          "type": "address"
        },
        {
          "internalType": "uint256",
          "name": "",
          "type": "uint256"
        },
        {
          "internalType": "bytes",
          "name": "",
          "type": "bytes"
        }
      ],
      "name": "onERC721Received",
      "outputs": [
        {
          "internalType": "bytes4",
          "name": "",
          "type": "bytes4"
        }
      ],
      "stateMutability": "nonpayable",
      "type": "function"
    },
    {
      "inputs": [],
      "name": "owner",
      "outputs": [
        {
          "internalType": "address",
          "name": "",
          "type": "address"
        }
      ],
      "stateMutability": "view",
      "type": "function"
    },
    {
      "inputs": [
        {
          "internalType": "uint256",
          "name": "subId",
          "type": "uint256"
        }
      ],
      "name": "pendingRequestExists",
      "outputs": [
        {
          "internalType": "bool",
          "name": "",
          "type": "bool"
        }
      ],
      "stateMutability": "view",
      "type": "function"
    },
    {
      "inputs": [],
      "name": "randamuVRF",
      "outputs": [
        {
          "internalType": "contract IRandamuVRF",
          "name": "",
          "type": "address"
        }
      ],
      "stateMutability": "view",
      "type": "function"
    },
    {
      "inputs": [
        {
          "internalType": "uint256",
          "name": "requestId",
          "type": "uint256"
        },
        {
          "internalType": "bytes",
          "name": "decryptionKey",
          "type": "bytes"
        }
      ],
      "name": "receiveBlocklock",
      "outputs": [],
      "stateMutability": "nonpayable",
      "type": "function"
    },
    {
      "inputs": [
        {
          "internalType": "address",
          "name": "seller",
          "type": "address"
        }
      ],
      "name": "removeSeller",
      "outputs": [],
      "stateMutability": "nonpayable",
      "type": "function"
    },
    {
      "inputs": [
        {
          "internalType": "bytes32",
          "name": "role",
          "type": "bytes32"
        },
        {
          "internalType": "address",
          "name": "callerConfirmation",
          "type": "address"
        }
      ],
      "name": "renounceRole",
      "outputs": [],
      "stateMutability": "nonpayable",
      "type": "function"
    },
    {
      "inputs": [
        {
          "internalType": "uint256",
          "name": "auctionId",
          "type": "uint256"
        }
      ],
      "name": "requestTieBreakRandomness",
      "outputs": [],
      "stateMutability": "nonpayable",
      "type": "function"
    },
    {
      "inputs": [
        {
          "internalType": "bytes32",
          "name": "role",
          "type": "bytes32"
        },
        {
          "internalType": "address",
          "name": "account",
          "type": "address"
        }
      ],
      "name": "revokeRole",
      "outputs": [],
      "stateMutability": "nonpayable",
      "type": "function"
    },
    {
      "inputs": [
        {
          "internalType": "address",
          "name": "_blocklock",
          "type": "address"
        }
      ],
      "name": "setBlocklock",
      "outputs": [],
      "stateMutability": "nonpayable",
      "type": "function"
    },
    {
      "inputs": [
        {
          "internalType": "uint256",
          "name": "subId",
          "type": "uint256"
        }
      ],
      "name": "setSubId",
      "outputs": [],
      "stateMutability": "nonpayable",
      "type": "function"
    },
    {
      "inputs": [],
      "name": "subscriptionId",
      "outputs": [
        {
          "internalType": "uint256",
          "name": "",
          "type": "uint256"
        }
      ],
      "stateMutability": "view",
      "type": "function"
    },
    {
      "inputs": [
        {
          "internalType": "bytes4",
          "name": "interfaceId",
          "type": "bytes4"
        }
      ],
      "name": "supportsInterface",
      "outputs": [
        {
          "internalType": "bool",
          "name": "",
          "type": "bool"
        }
      ],
      "stateMutability": "view",
      "type": "function"
    },
    {
      "inputs": [],
      "name": "topUpSubscriptionNative",
      "outputs": [],
      "stateMutability": "payable",
      "type": "function"
    },
    {
      "inputs": [
        {
          "internalType": "address",
          "name": "to",
          "type": "address"
        }
      ],
      "name": "transferOwnership",
      "outputs": [],
      "stateMutability": "nonpayable",
      "type": "function"
    },
    {
      "inputs": [
        {
          "internalType": "address",
          "name": "newAdminWallet",
          "type": "address"
        }
      ],
      "name": "updateAdminWallet",
      "outputs": [],
      "stateMutability": "nonpayable",
      "type": "function"
    },
    {
      "inputs": [
        {
          "internalType": "address[]",
          "name": "consumers",
          "type": "address[]"
        }
      ],
      "name": "updateSubscription",
      "outputs": [],
      "stateMutability": "nonpayable",
      "type": "function"
    },
    {
      "inputs": [],
      "name": "winnerSBT",
      "outputs": [
        {
          "internalType": "contract WinnerSBT",
          "name": "",
          "type": "address"
        }
      ],
      "stateMutability": "view",
      "type": "function"
    },
    {
      "inputs": [
        {
          "internalType": "uint256",
          "name": "amount",
          "type": "uint256"
        },
        {
          "internalType": "address",
          "name": "recipient",
          "type": "address"
        }
      ],
      "name": "withdrawNative",
      "outputs": [],
      "stateMutability": "nonpayable",
      "type": "function"
    },
    {
      "stateMutability": "payable",
      "type": "receive"
    }
  ],
  "bytecode": "0x60c060405260006006553480156200001657600080fd5b50604051620041463803806200414683398101604081905262000039916200034c565b60018055803380600081620000955760405162461bcd60e51b815260206004820152601860248201527f43616e6e6f7420736574206f776e657220746f207a65726f000000000000000060448201526064015b60405180910390fd5b600280546001600160a01b0319166001600160a01b0384811691909117909155811615620000c857620000c881620001d4565b5050600480546001600160a01b0319166001600160a01b03938416179055508216620001375760405162461bcd60e51b815260206004820152601460248201527f496e76616c69642061646d696e2077616c6c657400000000000000000000000060448201526064016200008c565b6001600160a01b0384811660805283811660a052600780546001600160a01b0319169184169190911790556200016f60003362000280565b506200019c7fa49807205ce4d355092ef5a8a18f56e8913cf4a201fbe287825b095693c217753362000280565b50620001c97f43f25613eb2f15fb17222a5d424ca2655743e71265d98e4b93c05e5fb589ecde3362000280565b5050505050620003a9565b336001600160a01b038216036200022e5760405162461bcd60e51b815260206004820152601760248201527f43616e6e6f74207472616e7366657220746f2073656c6600000000000000000060448201526064016200008c565b600380546001600160a01b0319166001600160a01b03838116918217909255600254604051919216907fed8889f560326eb138920d842192f0eb3dd22b4f139c87a2c57538e05bae127890600090a350565b6000828152602081815260408083206001600160a01b038516845290915281205460ff1662000325576000838152602081815260408083206001600160a01b03861684529091529020805460ff19166001179055620002dc3390565b6001600160a01b0316826001600160a01b0316847f2f8788117e7eff1d82e926ec794901d17c78024a50270940304540a733656f0d60405160405180910390a450600162000329565b5060005b92915050565b80516001600160a01b03811681146200034757600080fd5b919050565b600080600080608085870312156200036357600080fd5b6200036e856200032f565b93506200037e602086016200032f565b92506200038e604086016200032f565b91506200039e606086016200032f565b905092959194509250565b60805160a051613d69620003dd6000396000818161071b015261242d0152600081816105960152610f750152613d696000f3fe6080604052600436106103035760003560e01c806379ba509711610190578063b8ca8dd8116100dc578063d547741f11610095578063dbe4613d1161006f578063dbe4613d14610b94578063e1f1c4a714610bb6578063e64a66ea14610bcc578063f2fde38b14610bd457600080fd5b8063d547741f14610b3f578063d93fabfa14610b5f578063db2e21bc14610b7f57600080fd5b8063b8ca8dd814610a46578063b96dbba714610a66578063c7899db614610a6e578063cd7e2f9e14610ab8578063cd802c9114610aff578063d0dd990814610b1f57600080fd5b8063922b807911610149578063984fbbc611610123578063984fbbc61461099b5780639f489e4e146109bb578063a11d304214610a01578063a217fddf14610a3157600080fd5b8063922b80791461093b57806393b9740a1461095b578063961c9ae41461097b57600080fd5b806379ba5097146108885780637cb9cf541461089d5780637fa45ecf146108bd57806380980043146108dd5780638da5cb5b146108fd57806391d148541461091b57600080fd5b8063449e88121161024f5780635eec08701161020857806373b60be0116101e257806373b60be01461076d57806375b238fc146107805780637876ab0c146107a257806378bd7935146107b857600080fd5b80635eec0870146106e95780636548a5aa1461070957806370b4768e1461073d57600080fd5b8063449e8812146105295780634fa26d401461056457806355a2042714610584578063571a26a0146105b857806358fff20e146106995780635d941802146106c957600080fd5b80631d2b2afd116102bc57806336568abe1161029657806336568abe1461049157806336b19cd7146104b157806336bfffed146104e957806341af6c871461050957600080fd5b80631d2b2afd14610439578063248a9ca3146104415780632f2ff15d1461047157600080fd5b806301ffc9a71461034757806305261aea1461037c5780630695a2521461039e57806309c1ba2e146103be57806312065fe0146103e2578063150b7a02146103f557600080fd5b3661034257604080513381523460208201527f88a5966d370b9919b20f3e2c13ff65706f196a4e32cc2c12bf57088f88525874910160405180910390a1005b600080fd5b34801561035357600080fd5b50610367610362366004613213565b610bf4565b60405190151581526020015b60405180910390f35b34801561038857600080fd5b5061039c610397366004613244565b610c05565b005b3480156103aa57600080fd5b5061039c6103b936600461325d565b611266565b3480156103ca57600080fd5b506103d460055481565b604051908152602001610373565b3480156103ee57600080fd5b50476103d4565b34801561040157600080fd5b50610420610410366004613308565b630a85bd0160e11b949350505050565b6040516001600160e01b03199091168152602001610373565b61039c6112a6565b34801561044d57600080fd5b506103d461045c366004613244565b60009081526020819052604090206001015490565b34801561047d57600080fd5b5061039c61048c3660046133b2565b611348565b34801561049d57600080fd5b5061039c6104ac3660046133b2565b611373565b3480156104bd57600080fd5b506007546104d1906001600160a01b031681565b6040516001600160a01b039091168152602001610373565b3480156104f557600080fd5b5061039c6105043660046133de565b6113a6565b34801561051557600080fd5b50610367610524366004613244565b6114a5565b34801561053557600080fd5b506103676105443660046133b2565b600960209081526000928352604080842090915290825290205460ff1681565b34801561057057600080fd5b5061039c61057f366004613452565b611516565b34801561059057600080fd5b506104d17f000000000000000000000000000000000000000000000000000000000000000081565b3480156105c457600080fd5b506106386105d3366004613244565b600860205260009081526040902080546001820154600283015460038401546004850154600586015460068701546007880154600f909801546001600160a01b0397881698969795969495939484841694600160a01b90940460ff169390921691908a565b604080516001600160a01b039b8c168152602081019a909a528901979097526060880195909552608087019390935290861660a0860152151560c085015290931660e083015261010082019290925261012081019190915261014001610373565b3480156106a557600080fd5b506103d46106b4366004613244565b6000908152600860205260409020600e015490565b3480156106d557600080fd5b5061039c6106e43660046134b5565b6115a0565b3480156106f557600080fd5b5061039c610704366004613452565b611605565b34801561071557600080fd5b506104d17f000000000000000000000000000000000000000000000000000000000000000081565b34801561074957600080fd5b5061075d610758366004613244565b6116d8565b604051610373949392919061353c565b61039c61077b3660046135ec565b611960565b34801561078c57600080fd5b506103d4600080516020613d1483398151915281565b3480156107ae57600080fd5b506103d46107d081565b3480156107c457600080fd5b506108306107d3366004613244565b60009081526008602052604090208054600182015460028301546003840154600585015460068601546007870154600e909701546001600160a01b039687169895979496939584841695600160a01b90940460ff16949092169291565b604080516001600160a01b039a8b168152602081019990995288019690965260608701949094529186166080860152151560a085015290931660c083015260e082019290925261010081019190915261012001610373565b34801561089457600080fd5b5061039c611c6c565b3480156108a957600080fd5b5061039c6108b8366004613452565b611d1a565b3480156108c957600080fd5b5061039c6108d8366004613684565b611d6a565b3480156108e957600080fd5b5061039c6108f8366004613244565b611f92565b34801561090957600080fd5b506002546001600160a01b03166104d1565b34801561092757600080fd5b506103676109363660046133b2565b611fcd565b34801561094757600080fd5b5061039c6109563660046136b9565b611ff6565b34801561096757600080fd5b506004546104d1906001600160a01b031681565b34801561098757600080fd5b5061039c6109963660046136e3565b612094565b3480156109a757600080fd5b5061039c6109b6366004613244565b61230a565b3480156109c757600080fd5b506103d46109d63660046133b2565b60008281526008602081815260408084206001600160a01b0386168552909201905290205492915050565b348015610a0d57600080fd5b506103d4610a1c366004613244565b6000908152600860205260409020600f015490565b348015610a3d57600080fd5b506103d4600081565b348015610a5257600080fd5b5061039c610a613660046133b2565b6124d8565b61039c6125ae565b348015610a7a57600080fd5b50610367610a893660046133b2565b60008281526008602090815260408083206001600160a01b0385168452600d0190915290205460ff1692915050565b348015610ac457600080fd5b506103d4610ad33660046133b2565b60008281526008602090815260408083206001600160a01b0385168452600c0190915290205492915050565b348015610b0b57600080fd5b50610367610b1a366004613244565b6125f7565b348015610b2b57600080fd5b506104d1610b3a36600461325d565b61262b565b348015610b4b57600080fd5b5061039c610b5a3660046133b2565b61266a565b348015610b6b57600080fd5b5061039c610b7a366004613452565b61268f565b348015610b8b57600080fd5b5061039c6126db565b348015610ba057600080fd5b506103d4600080516020613cf483398151915281565b348015610bc257600080fd5b506103d461271081565b61039c61279e565b348015610be057600080fd5b5061039c610bef366004613452565b61281e565b6000610bff8261282f565b92915050565b610c1d600080516020613d1483398151915233611fcd565b610c425760405162461bcd60e51b8152600401610c3990613725565b60405180910390fd5b60008181526008602052604090205481906001600160a01b0316610c785760405162461bcd60e51b8152600401610c3990613748565b6000828152600860205260409020600301548290431015610cab5760405162461bcd60e51b8152600401610c3990613778565b610cb3612864565b60008381526008602052604090206005810154600160a01b900460ff1615610d0f5760405162461bcd60e51b815260206004820152600f60248201526e105b1c9958591e481cd95d1d1b1959608a1b6044820152606401610c39565b60008060005b600e840154811015610daf57600084600e018281548110610d3857610d386137a6565b60009182526020808320909101546001600160a01b0316808352600d880190915260409091205490915060ff1615610da6576001600160a01b0381166000908152600c860160205260409020548381118015610d98575085600201548110155b15610da4578093508194505b505b50600101610d15565b506001600160a01b038216610e065760405162461bcd60e51b815260206004820181905260248201527f4e6f2076616c69642062696473206f722072657365727665206e6f74206d65746044820152606401610c39565b6006830180546001600160a01b038481166001600160a01b031990921682179092556007850183905560058501805460ff60a01b1916600160a01b17905584546001860154604051632142170760e11b815230600482015260248101939093526044830152909116906342842e0e90606401600060405180830381600087803b158015610e9257600080fd5b505af1158015610ea6573d6000803e3d6000fd5b5050600754604051600093506001600160a01b03909116915083908381818185875af1925050503d8060008114610ef9576040519150601f19603f3d011682016040523d82523d6000602084013e610efe565b606091505b5050905080610f4f5760405162461bcd60e51b815260206004820152601860248201527f5472616e7366657220746f2061646d696e206661696c656400000000000000006044820152606401610c39565b6040516328a1f12360e11b81526001600160a01b038481166004830152602482018990527f00000000000000000000000000000000000000000000000000000000000000001690635143e246906044016020604051808303816000875af1158015610fbe573d6000803e3d6000fd5b505050506040513d601f19601f82011682018060405250810190610fe291906137bc565b506000805b600e86015481101561116657600086600e01828154811061100a5761100a6137a6565b6000918252602090912001546001600160a01b0390811691508616811480159061104d57506001600160a01b038116600090815260088801602052604090205415155b1561115d576001600160a01b03811660009081526008880160205260408120549061271061107d6107d0846137eb565b6110879190613802565b905060006110958284613824565b90506110a18287613837565b6001600160a01b038516600090815260088c01602052604081205595508015611159576000846001600160a01b03168260405160006040518083038185875af1925050503d8060008114611111576040519150601f19603f3d011682016040523d82523d6000602084013e611116565b606091505b50509050806111575760405162461bcd60e51b815260206004820152600d60248201526c1499599d5b990819985a5b1959609a1b6044820152606401610c39565b505b5050505b50600101610fe7565b50801561120f57600f85018190556007546040516000916001600160a01b03169083908381818185875af1925050503d80600081146111c1576040519150601f19603f3d011682016040523d82523d6000602084013e6111c6565b606091505b505090508061120d5760405162461bcd60e51b815260206004820152601360248201527215185e081d1c985b9cd9995c8819985a5b1959606a1b6044820152606401610c39565b505b836001600160a01b0316887f4d9113a1377d665eaa1f9168a9c9080f2e488cb820b10149de3d6d2e0f2780c78560405161124b91815260200190565b60405180910390a3505050505061126160018055565b505050565b8160007f76b796c69fab0b87f0ec993d4a40a367c4b5e59508d2a2486c0a9bccb162c2ea8360405161129a91815260200190565b60405180910390a35050565b6005546000036112e65760405162461bcd60e51b815260206004820152600b60248201526a1cdd58881b9bdd081cd95d60aa1b6044820152606401610c39565b6004805460055460405163256d573f60e21b8152928301526001600160a01b0316906395b55cfc9034906024015b6000604051808303818588803b15801561132d57600080fd5b505af1158015611341573d6000803e3d6000fd5b5050505050565b6000828152602081905260409020600101546113638161288e565b61136d8383612898565b50505050565b6001600160a01b038116331461139c5760405163334bd91960e11b815260040160405180910390fd5b611261828261292a565b6113ae612995565b6005546000036113f05760405162461bcd60e51b815260206004820152600d60248201526c1cdd589251081b9bdd081cd95d609a1b6044820152606401610c39565b60005b81811015611261576004546005546001600160a01b039091169063bec4c08c90858585818110611425576114256137a6565b905060200201602081019061143a9190613452565b6040516001600160e01b031960e085901b16815260048101929092526001600160a01b03166024820152604401600060405180830381600087803b15801561148157600080fd5b505af1158015611495573d6000803e3d6000fd5b5050600190920191506113f39050565b600480546040516341af6c8760e01b81529182018390526000916001600160a01b03909116906341af6c87906024015b602060405180830381865afa1580156114f2573d6000803e3d6000fd5b505050506040513d601f19601f82011682018060405250810190610bff919061384a565b61151e612995565b6001600160a01b03811661157e5760405162461bcd60e51b815260206004820152602160248201527f43616e6e6f7420736574207a65726f20616464726573732061732073656e64656044820152603960f91b6064820152608401610c39565b600480546001600160a01b0319166001600160a01b0392909216919091179055565b6004546001600160a01b031633146115fa5760405162461bcd60e51b815260206004820181905260248201527f4f6e6c7920626c6f636b6c6f636b20636f6e74726163742063616e2063616c6c6044820152606401610c39565b6112618383836129ea565b61161d600080516020613d1483398151915233611fcd565b6116395760405162461bcd60e51b8152600401610c3990613725565b6001600160a01b0381166116865760405162461bcd60e51b8152602060048201526014602482015273125b9d985b1a590818591b5a5b881dd85b1b195d60621b6044820152606401610c39565b600780546001600160a01b038381166001600160a01b0319831681179093556040519116919082907fb03e0c2c1a6f3df4b388eee743d2ab30b064eb703533a6808a42b292cff9a97990600090a35050565b6000818152600860205260409020600e810154606091829182918291806001600160401b0381111561170c5761170c61329b565b604051908082528060200260200182016040528015611735578160200160208202803683370190505b509550806001600160401b038111156117505761175061329b565b604051908082528060200260200182016040528015611779578160200160208202803683370190505b509450806001600160401b038111156117945761179461329b565b6040519080825280602002602001820160405280156117bd578160200160208202803683370190505b509350806001600160401b038111156117d8576117d861329b565b604051908082528060200260200182016040528015611801578160200160208202803683370190505b50925060005b8181101561195657600083600e018281548110611826576118266137a6565b9060005260206000200160009054906101000a90046001600160a01b0316905080888381518110611859576118596137a6565b60200260200101906001600160a01b031690816001600160a01b031681525050836008016000826001600160a01b03166001600160a01b03168152602001908152602001600020548783815181106118b3576118b36137a6565b60200260200101818152505083600c016000826001600160a01b03166001600160a01b03168152602001908152602001600020548683815181106118f9576118f96137a6565b6020908102919091018101919091526001600160a01b0382166000908152600d86019091526040902054855160ff9091169086908490811061193d5761193d6137a6565b9115156020928302919091019091015250600101611807565b5050509193509193565b60008581526008602052604090205485906001600160a01b03166119965760405162461bcd60e51b8152600401610c3990613748565b600086815260086020526040902060030154869043106119e85760405162461bcd60e51b815260206004820152600d60248201526c105d58dd1a5bdb88195b991959609a1b6044820152606401610c39565b6119f0612864565b600087815260096020908152604080832033845290915290205460ff1615611a485760405162461bcd60e51b815260206004820152600b60248201526a105b1c9958591e48189a5960aa1b6044820152606401610c39565b83611a895760405162461bcd60e51b815260206004820152601160248201527024b73b30b634b21031b7b73234ba34b7b760791b6044820152606401610c39565b60008781526008602052604081206004810154600290910154606491611aae916137eb565b611ab89190613802565b905080341015611b015760405162461bcd60e51b8152602060048201526014602482015273125b9cdd59999a58da595b9d0819195c1bdcda5d60621b6044820152606401610c39565b6000611b458588888080601f0160208091040260200160405190810160405280939291908181526020018383808284376000920191909152508d9250612d6f915050565b5060008a815260096020818152604080842033808652908352818520805460ff191660011790558e8552600880845282862091865281018352818520349055909201905290209091508890611b9a82826139f3565b50506000898152600860209081526040808320338452600a019091529020611bc3878983613934565b50600089815260086020818152604080842033808652600b82018452918520869055928252600e9092018054600181810183558286529285200180546001600160a01b03191684179055928c905291549091611c1e91613824565b604080518481523460208201528c917f73beb687f8d55bf71d4d2807a2cd64d5c39cae24d64d74f8f8bd9dc6e29aab04910160405180910390a45050611c6360018055565b50505050505050565b6003546001600160a01b03163314611cbf5760405162461bcd60e51b815260206004820152601660248201527526bab9ba10313290383937b837b9b2b21037bbb732b960511b6044820152606401610c39565b600280546001600160a01b0319808216339081179093556003805490911690556040516001600160a01b03909116919082907f8be0079c531659141344cd1fd0a4f28419497f9722a3daafe3b4186f6b6457e090600090a350565b611d32600080516020613d1483398151915233611fcd565b611d4e5760405162461bcd60e51b8152600401610c3990613725565b611d66600080516020613cf48339815191528261292a565b5050565b611d82600080516020613d1483398151915233611fcd565b611d9e5760405162461bcd60e51b8152600401610c3990613725565b60008381526008602052604090205483906001600160a01b0316611dd45760405162461bcd60e51b8152600401610c3990613748565b6000848152600860205260409020600301548490431015611e075760405162461bcd60e51b8152600401610c3990613778565b60008581526009602090815260408083206001600160a01b038816845290915290205460ff16611e695760405162461bcd60e51b815260206004820152600d60248201526c109a59081b9bdd08199bdd5b99609a1b6044820152606401610c39565b60008581526008602090815260408083206001600160a01b0388168452600d0190915290205460ff1615611ed55760405162461bcd60e51b8152602060048201526013602482015272109a5908185b1c9958591e48191958dbd91959606a1b6044820152606401610c39565b60008311611f1a5760405162461bcd60e51b8152602060048201526012602482015271125b9d985b1a5908189a5908185b5bdd5b9d60721b6044820152606401610c39565b60008581526008602090815260408083206001600160a01b038816808552600c82018452828520889055600d909101835292819020805460ff191660011790555185815287917f86d2fbc9069d34216ebc65b38ce840528d3f8cac0c86d2aaa7ab6a9db8bc35d3910160405180910390a35050505050565b611f9a612995565b600581905560405181907f5f479ac993925efae23839aa1c813b6ecb2fe1bbd14dc78295ab267d2fca436890600090a250565b6000918252602082815260408084206001600160a01b0393909316845291905290205460ff1690565b61200e600080516020613d1483398151915233611fcd565b61202a5760405162461bcd60e51b8152600401610c3990613725565b604051632142170760e11b8152306004820152336024820152604481018290526001600160a01b038316906342842e0e90606401600060405180830381600087803b15801561207857600080fd5b505af115801561208c573d6000803e3d6000fd5b505050505050565b6120ac600080516020613cf483398151915233611fcd565b6120e55760405162461bcd60e51b815260206004820152600a6024820152692737ba1039b2b63632b960b11b6044820152606401610c39565b6120ed612864565b6001600160a01b0385166121395760405162461bcd60e51b8152602060048201526013602482015272496e76616c6964204e4654206164647265737360681b6044820152606401610c39565b4382116121885760405162461bcd60e51b815260206004820152601b60248201527f456e6420626c6f636b206d75737420626520696e2066757475726500000000006044820152606401610c39565b600a811015801561219a575060328111155b6121e65760405162461bcd60e51b815260206004820152601a60248201527f496e76616c6964206465706f7369742070657263656e746167650000000000006044820152606401610c39565b604051632142170760e11b8152336004820152306024820152604481018590526001600160a01b038616906342842e0e90606401600060405180830381600087803b15801561223457600080fd5b505af1158015612248573d6000803e3d6000fd5b5050600680549250829150600061225e83613a7d565b909155505060008181526008602090815260409182902080546001600160a01b03199081166001600160a01b038b169081178355600183018a90556002830189905560038301889055600583018054339316831790556004830187905584519182529281018890529283018690529187919084907f0330edd30cf346409c694666d69b24f917bbad510da55f45089d776baff1f42b9060600160405180910390a4505061134160018055565b612322600080516020613d1483398151915233611fcd565b61233e5760405162461bcd60e51b8152600401610c3990613725565b60008181526008602052604090205481906001600160a01b03166123745760405162461bcd60e51b8152600401610c3990613748565b60008281526008602052604090206003015482904310156123a75760405162461bcd60e51b8152600401610c3990613778565b6000838152600860205260409020600e01546001106124145760405162461bcd60e51b815260206004820152602360248201527f4e656564206d756c7469706c65206269646465727320666f722074696520627260448201526265616b60e81b6064820152608401610c39565b604051637363ae1f60e01b8152600481018490526000907f00000000000000000000000000000000000000000000000000000000000000006001600160a01b031690637363ae1f906024016020604051808303816000875af115801561247e573d6000803e3d6000fd5b505050506040513d601f19601f820116820180604052508101906124a291906137bc565b905080847f37ef079b112866bdf37cb76ceca96063b678f5e7071ad2897650d67c6696e1b260405160405180910390a350505050565b6124e0612995565b814710156125305760405162461bcd60e51b815260206004820152601e60248201527f496e73756666696369656e742066756e647320696e20636f6e747261637400006044820152606401610c39565b6040516001600160a01b0382169083156108fc029084906000818181858888f19350505050158015612566573d6000803e3d6000fd5b50806001600160a01b03167f7084f5476618d8e60b11ef0d7d3f06914655adb8793e28ff7f018d4c76d505d5836040516125a291815260200190565b60405180910390a25050565b6125b6612995565b6125be612eae565b60058190556004805460405163256d573f60e21b81526001600160a01b03909116926395b55cfc92349261131492910190815260200190565b6004805460405163cd802c9160e01b81529182018390526000916001600160a01b039091169063cd802c91906024016114d5565b6000828152600860205260408120600e0180548390811061264e5761264e6137a6565b6000918252602090912001546001600160a01b03169392505050565b6000828152602081905260409020600101546126858161288e565b61136d838361292a565b6126a7600080516020613d1483398151915233611fcd565b6126c35760405162461bcd60e51b8152600401610c3990613725565b611d66600080516020613cf483398151915282612898565b6126f3600080516020613d1483398151915233611fcd565b61270f5760405162461bcd60e51b8152600401610c3990613725565b604051600090339047908381818185875af1925050503d8060008114612751576040519150601f19603f3d011682016040523d82523d6000602084013e612756565b606091505b505090508061279b5760405162461bcd60e51b815260206004820152601160248201527015da5d1a191c985dd85b0819985a5b1959607a1b6044820152606401610c39565b50565b600034116127e75760405162461bcd60e51b81526020600482015260166024820152750b2deea40daeae6e840e6cadcc840e6dedaca408aa8960531b6044820152606401610c39565b60405134815233907f5af8184bef8e4b45eb9f6ed7734d04da38ced226495548f46e0c8ff8d7d9a5249060200160405180910390a2565b612826612995565b61279b81612fd9565b60006001600160e01b03198216637965db0b60e01b1480610bff57506301ffc9a760e01b6001600160e01b0319831614610bff565b60026001540361288757604051633ee5aeb560e01b815260040160405180910390fd5b6002600155565b61279b8133613083565b60006128a48383611fcd565b612922576000838152602081815260408083206001600160a01b03861684529091529020805460ff191660011790556128da3390565b6001600160a01b0316826001600160a01b0316847f2f8788117e7eff1d82e926ec794901d17c78024a50270940304540a733656f0d60405160405180910390a4506001610bff565b506000610bff565b60006129368383611fcd565b15612922576000838152602081815260408083206001600160a01b0386168085529252808320805460ff1916905551339286917ff6391f5c32d9c69d2a47ea670b442974b53935d1edc7fd64eb21e047a839171b9190a4506001610bff565b6002546001600160a01b031633146129e85760405162461bcd60e51b815260206004820152601660248201527527b7363c9031b0b63630b1363290313c9037bbb732b960511b6044820152606401610c39565b565b6000806129f6856130bc565b60008281526009602090815260408083206001600160a01b0385168452909152902054919350915060ff16612a5d5760405162461bcd60e51b815260206004820152600d60248201526c109a59081b9bdd08199bdd5b99609a1b6044820152606401610c39565b60008281526008602090815260408083206001600160a01b0385168452600d0190915290205460ff1615612ac95760405162461bcd60e51b8152602060048201526013602482015272109a5908185b1c9958591e48191958dbd91959606a1b6044820152606401610c39565b60008281526008602090815260408083206001600160a01b0385168452600901909152808220815160e08101909252612c9691908160608101828160a084018260028282826020028201915b815481526020019060010190808311612b1557505050918352505060408051808201918290526020909201919060028481019182845b815481526020019060010190808311612b4b575050505050815250508152602001600482018054612b7b906138b2565b80601f0160208091040260200160405190810160405280929190818152602001828054612ba7906138b2565b8015612bf45780601f10612bc957610100808354040283529160200191612bf4565b820191906000526020600020905b815481529060010190602001808311612bd757829003601f168201915b50505050508152602001600582018054612c0d906138b2565b80601f0160208091040260200160405190810160405280929190818152602001828054612c39906138b2565b8015612c865780601f10612c5b57610100808354040283529160200191612c86565b820191906000526020600020905b815481529060010190602001808311612c6957829003601f168201915b5050505050815250508686613190565b9050600081806020019051810190612cae91906137bc565b905060008111612cf55760405162461bcd60e51b8152602060048201526012602482015271125b9d985b1a5908189a5908185b5bdd5b9d60721b6044820152606401610c39565b60008481526008602090815260408083206001600160a01b038716808552600c82018452828520869055600d909101835292819020805460ff191660011790555183815286917f86d2fbc9069d34216ebc65b38ce840528d3f8cac0c86d2aaa7ab6a9db8bc35d3910160405180910390a350505050505050565b60048054604051634b16093560e01b815263ffffffff86169281019290925260009182916001600160a01b031690634b16093590602401602060405180830381865afa158015612dc3573d6000803e3d6000fd5b505050506040513d601f19601f82011682018060405250810190612de791906137bc565b905080341015612e2c5760405162461bcd60e51b815260206004820152601060248201526f092dce6eaccccd2c6d2cadce8408aa8960831b6044820152606401610c39565b60048054604051637909dc7b60e01b81526001600160a01b0390911691637909dc7b913491612e61918a918a918a9101613b54565b60206040518083038185885af1158015612e7f573d6000803e3d6000fd5b50505050506040513d601f19601f82011682018060405250810190612ea491906137bc565b9150935093915050565b6000600554600014612f025760405162461bcd60e51b815260206004820152601a60248201527f537562736372697074696f6e4964206973206e6f74207a65726f0000000000006044820152606401610c39565b600480546040805163288688f960e21b815290516001600160a01b039092169263a21a23e492828201926020929082900301816000875af1158015612f4b573d6000803e3d6000fd5b505050506040513d601f19601f82011682018060405250810190612f6f91906137bc565b60048054604051632fb1302360e21b81529182018390523060248301529192506001600160a01b039091169063bec4c08c90604401600060405180830381600087803b158015612fbe57600080fd5b505af1158015612fd2573d6000803e3d6000fd5b5050505090565b336001600160a01b038216036130315760405162461bcd60e51b815260206004820152601760248201527f43616e6e6f74207472616e7366657220746f2073656c660000000000000000006044820152606401610c39565b600380546001600160a01b0319166001600160a01b03838116918217909255600254604051919216907fed8889f560326eb138920d842192f0eb3dd22b4f139c87a2c57538e05bae127890600090a350565b61308d8282611fcd565b611d665760405163e2517d3f60e01b81526001600160a01b038216600482015260248101839052604401610c39565b60008060005b600654811015613150576000818152600860205260408120905b600e82015481101561314657600082600e0182815481106130ff576130ff6137a6565b60009182526020808320909101546001600160a01b0316808352600b860190915260409091205490915087900361313d579296929550919350505050565b506001016130dc565b50506001016130c2565b5060405162461bcd60e51b815260206004820152601460248201527314995c5d595cdd081251081b9bdd08199bdd5b9960621b6044820152606401610c39565b6004805460405163326f063160e21b81526060926001600160a01b039092169163c9bc18c4916131c69188918891889101613bff565b600060405180830381865afa1580156131e3573d6000803e3d6000fd5b505050506040513d6000823e601f3d908101601f1916820160405261320b9190810190613c7d565b949350505050565b60006020828403121561322557600080fd5b81356001600160e01b03198116811461323d57600080fd5b9392505050565b60006020828403121561325657600080fd5b5035919050565b6000806040838503121561327057600080fd5b50508035926020909101359150565b80356001600160a01b038116811461329657600080fd5b919050565b634e487b7160e01b600052604160045260246000fd5b604051601f8201601f191681016001600160401b03811182821017156132d9576132d961329b565b604052919050565b60006001600160401b038211156132fa576132fa61329b565b50601f01601f191660200190565b6000806000806080858703121561331e57600080fd5b6133278561327f565b93506133356020860161327f565b92506040850135915060608501356001600160401b0381111561335757600080fd5b8501601f8101871361336857600080fd5b803561337b613376826132e1565b6132b1565b81815288602083850101111561339057600080fd5b8160208401602083013760006020838301015280935050505092959194509250565b600080604083850312156133c557600080fd5b823591506133d56020840161327f565b90509250929050565b600080602083850312156133f157600080fd5b82356001600160401b038082111561340857600080fd5b818501915085601f83011261341c57600080fd5b81358181111561342b57600080fd5b8660208260051b850101111561344057600080fd5b60209290920196919550909350505050565b60006020828403121561346457600080fd5b61323d8261327f565b60008083601f84011261347f57600080fd5b5081356001600160401b0381111561349657600080fd5b6020830191508360208285010111156134ae57600080fd5b9250929050565b6000806000604084860312156134ca57600080fd5b8335925060208401356001600160401b038111156134e757600080fd5b6134f38682870161346d565b9497909650939450505050565b60008151808452602080850194506020840160005b8381101561353157815187529582019590820190600101613515565b509495945050505050565b6080808252855190820181905260009060209060a0840190828901845b8281101561357e5781516001600160a01b031684529284019290840190600101613559565b505050838103828501526135928188613500565b905083810360408501526135a68187613500565b8481036060860152855180825283870192509083019060005b818110156135dd5783511515835292840192918401916001016135bf565b50909998505050505050505050565b60008060008060006080868803121561360457600080fd5b8535945060208601356001600160401b038082111561362257600080fd5b9087019060c0828a03121561363657600080fd5b9094506040870135908082111561364c57600080fd5b506136598882890161346d565b909450925050606086013563ffffffff8116811461367657600080fd5b809150509295509295909350565b60008060006060848603121561369957600080fd5b833592506136a96020850161327f565b9150604084013590509250925092565b600080604083850312156136cc57600080fd5b6136d58361327f565b946020939093013593505050565b600080600080600060a086880312156136fb57600080fd5b6137048661327f565b97602087013597506040870135966060810135965060800135945092505050565b6020808252600990820152682737ba1030b236b4b760b91b604082015260600190565b602080825260169082015275105d58dd1a5bdb88191bd95cc81b9bdd08195e1a5cdd60521b604082015260600190565b60208082526014908201527341756374696f6e207374696c6c2061637469766560601b604082015260600190565b634e487b7160e01b600052603260045260246000fd5b6000602082840312156137ce57600080fd5b5051919050565b634e487b7160e01b600052601160045260246000fd5b8082028115828204841417610bff57610bff6137d5565b60008261381f57634e487b7160e01b600052601260045260246000fd5b500490565b81810381811115610bff57610bff6137d5565b80820180821115610bff57610bff6137d5565b60006020828403121561385c57600080fd5b8151801515811461323d57600080fd5b6000808335601e1984360301811261388357600080fd5b8301803591506001600160401b0382111561389d57600080fd5b6020019150368190038213156134ae57600080fd5b600181811c908216806138c657607f821691505b6020821081036138e657634e487b7160e01b600052602260045260246000fd5b50919050565b601f821115611261576000816000526020600020601f850160051c810160208610156139155750805b601f850160051c820191505b8181101561208c57828155600101613921565b6001600160401b0383111561394b5761394b61329b565b61395f8361395983546138b2565b836138ec565b6000601f841160018114613993576000851561397b5750838201355b600019600387901b1c1916600186901b178355611341565b600083815260209020601f19861690835b828110156139c457868501358255602094850194600190920191016139a4565b50868210156139e15760001960f88860031b161c19848701351681555b505060018560011b0183555050505050565b8160005b6002811015613a14578135838201556020909101906001016139f7565b50506040820160005b6002808210613a2c5750613a43565b823584830190910155602090910190600101613a1d565b5050613a52608083018361386c565b613a60818360048601613934565b5050613a6f60a083018361386c565b61136d818360058601613934565b600060018201613a8f57613a8f6137d5565b5060010190565b60005b83811015613ab1578181015183820152602001613a99565b50506000910152565b60008151808452613ad2816020860160208601613a96565b601f01601f19169290920160200192915050565b6000808335601e19843603018112613afd57600080fd5b83016020810192503590506001600160401b03811115613b1c57600080fd5b8036038213156134ae57600080fd5b81835281816020850137506000828201602090810191909152601f909101601f19169091010190565b63ffffffff84168152606060208201526000613b736060830185613aba565b8281036040840152604084823760408085016040830137613b976080850185613ae6565b60c06080840152613bac60c084018284613b2b565b915050613bbc60a0860186613ae6565b83830360a0850152613bcf838284613b2b565b9998505050505050505050565b8060005b600281101561136d578151845260209384019390910190600101613be0565b6040815260008451613c15604084018251613bdc565b60200151613c266080840182613bdc565b50602085015160c080840152613c40610100840182613aba565b90506040860151603f198483030160e0850152613c5d8282613aba565b9150508281036020840152613c73818587613b2b565b9695505050505050565b600060208284031215613c8f57600080fd5b81516001600160401b03811115613ca557600080fd5b8201601f81018413613cb657600080fd5b8051613cc4613376826132e1565b818152856020838501011115613cd957600080fd5b613cea826020830160208601613a96565b9594505050505056fe43f25613eb2f15fb17222a5d424ca2655743e71265d98e4b93c05e5fb589ecdea49807205ce4d355092ef5a8a18f56e8913cf4a201fbe287825b095693c21775a264697066735822122082eff59ee0a051bc59cac208cf9126cab4be34308a7884e261cf8cf425d2e04164736f6c63430008180033",
  "linkReferences": {},
  "deployedLinkReferences": {}
}