{
  "_format": "hh-sol-artifact-1",
  "contractName": "WinnerSBT",
  "sourceName": "contracts/WinnerSBT.sol",
  "abi": [
    {
      "inputs": [],
      "stateMutability": "nonpayable",
      "type": "constructor"
    },
    {
      "inputs": [],
      "name": "AccessControlBadConfirmation",
      "type": "error"
    },
    {
      "inputs": [
        {
          "internalType": "address",
          "name": "account",
          "type": "address"
        },
        {
          "internalType": "bytes32",
          "name": "neededRole",
          "type": "bytes32"
        }
      ],
      "name": "AccessControlUnauthorizedAccount",
      "type": "error"
    },
    {
      "inputs": [
        {
          "internalType": "address",
          "name": "sender",
          "type": "address"
        },
        {
          "internalType": "uint256",
          "name": "tokenId",
          "type": "uint256"
        },
        {
          "internalType": "address",
          "name": "owner",
          "type": "address"
        }
      ],
      "name": "ERC721IncorrectOwner",
      "type": "error"
    },
    {
      "inputs": [
        {
          "internalType": "address",
          "name": "operator",
          "type": "address"
        },
        {
          "internalType": "uint256",
          "name": "tokenId",
          "type": "uint256"
        }
      ],
      "name": "ERC721InsufficientApproval",
      "type": "error"
    },
    {
      "inputs": [
        {
          "internalType": "address",
          "name": "approver",
          "type": "address"
        }
      ],
      "name": "ERC721InvalidApprover",
      "type": "error"
    },
    {
      "inputs": [
        {
          "internalType": "address",
          "name": "operator",
          "type": "address"
        }
      ],
      "name": "ERC721InvalidOperator",
      "type": "error"
    },
    {
      "inputs": [
        {
          "internalType": "address",
          "name": "owner",
          "type": "address"
        }
      ],
      "name": "ERC721InvalidOwner",
      "type": "error"
    },
    {
      "inputs": [
        {
          "internalType": "address",
          "name": "receiver",
          "type": "address"
        }
      ],
      "name": "ERC721InvalidReceiver",
      "type": "error"
    },
    {
      "inputs": [
        {
          "internalType": "address",
          "name": "sender",
          "type": "address"
        }
      ],
      "name": "ERC721InvalidSender",
      "type": "error"
    },
    {
      "inputs": [
        {
          "internalType": "uint256",
          "name": "tokenId",
          "type": "uint256"
        }
      ],
      "name": "ERC721NonexistentToken",
      "type": "error"
    },
    {
      "anonymous": false,
      "inputs": [
        {
          "indexed": true,
          "internalType": "address",
          "name": "owner",
          "type": "address"
        },
        {
          "indexed": true,
          "internalType": "address",
          "name": "approved",
          "type": "address"
        },
        {
          "indexed": true,
          "internalType": "uint256",
          "name": "tokenId",
          "type": "uint256"
        }
      ],
      "name": "Approval",
      "type": "event"
    },
    {
      "anonymous": false,
      "inputs": [
        {
          "indexed": true,
          "internalType": "address",
          "name": "owner",
          "type": "address"
        },
        {
          "indexed": true,
          "internalType": "address",
          "name": "operator",
          "type": "address"
        },
        {
          "indexed": false,
          "internalType": "bool",
          "name": "approved",
          "type": "bool"
        }
      ],
      "name": "ApprovalForAll",
      "type": "event"
    },
    {
      "anonymous": false,
      "inputs": [
        {
          "indexed": true,
          "internalType": "bytes32",
          "name": "role",
          "type": "bytes32"
        },
        {
          "indexed": true,
          "internalType": "bytes32",
          "name": "previousAdminRole",
          "type": "bytes32"
        },
        {
          "indexed": true,
          "internalType": "bytes32",
          "name": "newAdminRole",
          "type": "bytes32"
        }
      ],
      "name": "RoleAdminChanged",
      "type": "event"
    },
    {
      "anonymous": false,
      "inputs": [
        {
          "indexed": true,
          "internalType": "bytes32",
          "name": "role",
          "type": "bytes32"
        },
        {
          "indexed": true,
          "internalType": "address",
          "name": "account",
          "type": "address"
        },
        {
          "indexed": true,
          "internalType": "address",
          "name": "sender",
          "type": "address"
        }
      ],
      "name": "RoleGranted",
      "type": "event"
    },
    {
      "anonymous": false,
      "inputs": [
        {
          "indexed": true,
          "internalType": "bytes32",
          "name": "role",
          "type": "bytes32"
        },
        {
          "indexed": true,
          "internalType": "address",
          "name": "account",
          "type": "address"
        },
        {
          "indexed": true,
          "internalType": "address",
          "name": "sender",
          "type": "address"
        }
      ],
      "name": "RoleRevoked",
      "type": "event"
    },
    {
      "anonymous": false,
      "inputs": [
        {
          "indexed": true,
          "internalType": "address",
          "name": "from",
          "type": "address"
        },
        {
          "indexed": true,
          "internalType": "address",
          "name": "to",
          "type": "address"
        },
        {
          "indexed": true,
          "internalType": "uint256",
          "name": "tokenId",
          "type": "uint256"
        }
      ],
      "name": "Transfer",
      "type": "event"
    },
    {
      "anonymous": false,
      "inputs": [
        {
          "indexed": true,
          "internalType": "uint256",
          "name": "tokenId",
          "type": "uint256"
        },
        {
          "indexed": true,
          "internalType": "address",
          "name": "to",
          "type": "address"
        },
        {
          "indexed": true,
          "internalType": "uint256",
          "name": "auctionId",
          "type": "uint256"
        }
      ],
      "name": "WinnerBadgeMinted",
      "type": "event"
    },
    {
      "inputs": [],
      "name": "DEFAULT_ADMIN_ROLE",
      "outputs": [
        {
          "internalType": "bytes32",
          "name": "",
          "type": "bytes32"
        }
      ],
      "stateMutability": "view",
      "type": "function"
    },
    {
      "inputs": [],
      "name": "MINTER_ROLE",
      "outputs": [
        {
          "internalType": "bytes32",
          "name": "",
          "type": "bytes32"
        }
      ],
      "stateMutability": "view",
      "type": "function"
    },
    {
      "inputs": [
        {
          "internalType": "address",
          "name": "to",
          "type": "address"
        },
        {
          "internalType": "uint256",
          "name": "tokenId",
          "type": "uint256"
        }
      ],
      "name": "approve",
      "outputs": [],
      "stateMutability": "pure",
      "type": "function"
    },
    {
      "inputs": [
        {
          "internalType": "address",
          "name": "owner",
          "type": "address"
        }
      ],
      "name": "balanceOf",
      "outputs": [
        {
          "internalType": "uint256",
          "name": "",
          "type": "uint256"
        }
      ],
      "stateMutability": "view",
      "type": "function"
    },
    {
      "inputs": [
        {
          "internalType": "uint256",
          "name": "tokenId",
          "type": "uint256"
        }
      ],
      "name": "getApproved",
      "outputs": [
        {
          "internalType": "address",
          "name": "",
          "type": "address"
        }
      ],
      "stateMutability": "pure",
      "type": "function"
    },
    {
      "inputs": [
        {
          "internalType": "uint256",
          "name": "tokenId",
          "type": "uint256"
        }
      ],
      "name": "getAuctionId",
      "outputs": [
        {
          "internalType": "uint256",
          "name": "",
          "type": "uint256"
        }
      ],
      "stateMutability": "view",
      "type": "function"
    },
    {
      "inputs": [
        {
          "internalType": "bytes32",
          "name": "role",
          "type": "bytes32"
        }
      ],
      "name": "getRoleAdmin",
      "outputs": [
        {
          "internalType": "bytes32",
          "name": "",
          "type": "bytes32"
        }
      ],
      "stateMutability": "view",
      "type": "function"
    },
    {
      "inputs": [
        {
          "internalType": "uint256",
          "name": "auctionId",
          "type": "uint256"
        }
      ],
      "name": "getTokenForAuction",
      "outputs": [
        {
          "internalType": "uint256",
          "name": "",
          "type": "uint256"
        }
      ],
      "stateMutability": "view",
      "type": "function"
    },
    {
      "inputs": [
        {
          "internalType": "bytes32",
          "name": "role",
          "type": "bytes32"
        },
        {
          "internalType": "address",
          "name": "account",
          "type": "address"
        }
      ],
      "name": "grantRole",
      "outputs": [],
      "stateMutability": "nonpayable",
      "type": "function"
    },
    {
      "inputs": [
        {
          "internalType": "bytes32",
          "name": "role",
          "type": "bytes32"
        },
        {
          "internalType": "address",
          "name": "account",
          "type": "address"
        }
      ],
      "name": "hasRole",
      "outputs": [
        {
          "internalType": "bool",
          "name": "",
          "type": "bool"
        }
      ],
      "stateMutability": "view",
      "type": "function"
    },
    {
      "inputs": [
        {
          "internalType": "address",
          "name": "owner",
          "type": "address"
        },
        {
          "internalType": "address",
          "name": "operator",
          "type": "address"
        }
      ],
      "name": "isApprovedForAll",
      "outputs": [
        {
          "internalType": "bool",
          "name": "",
          "type": "bool"
        }
      ],
      "stateMutability": "pure",
      "type": "function"
    },
    {
      "inputs": [
        {
          "internalType": "uint256",
          "name": "tokenId",
          "type": "uint256"
        }
      ],
      "name": "locked",
      "outputs": [
        {
          "internalType": "bool",
          "name": "",
          "type": "bool"
        }
      ],
      "stateMutability": "pure",
      "type": "function"
    },
    {
      "inputs": [
        {
          "internalType": "address",
          "name": "to",
          "type": "address"
        },
        {
          "internalType": "uint256",
          "name": "auctionId",
          "type": "uint256"
        }
      ],
      "name": "mintLocked",
      "outputs": [
        {
          "internalType": "uint256",
          "name": "",
          "type": "uint256"
        }
      ],
      "stateMutability": "nonpayable",
      "type": "function"
    },
    {
      "inputs": [],
      "name": "name",
      "outputs": [
        {
          "internalType": "string",
          "name": "",
          "type": "string"
        }
      ],
      "stateMutability": "view",
      "type": "function"
    },
    {
      "inputs": [
        {
          "internalType": "uint256",
          "name": "tokenId",
          "type": "uint256"
        }
      ],
      "name": "ownerOf",
      "outputs": [
        {
          "internalType": "address",
          "name": "",
          "type": "address"
        }
      ],
      "stateMutability": "view",
      "type": "function"
    },
    {
      "inputs": [
        {
          "internalType": "bytes32",
          "name": "role",
          "type": "bytes32"
        },
        {
          "internalType": "address",
          "name": "callerConfirmation",
          "type": "address"
        }
      ],
      "name": "renounceRole",
      "outputs": [],
      "stateMutability": "nonpayable",
      "type": "function"
    },
    {
      "inputs": [
        {
          "internalType": "bytes32",
          "name": "role",
          "type": "bytes32"
        },
        {
          "internalType": "address",
          "name": "account",
          "type": "address"
        }
      ],
      "name": "revokeRole",
      "outputs": [],
      "stateMutability": "nonpayable",
      "type": "function"
    },
    {
      "inputs": [
        {
          "internalType": "address",
          "name": "from",
          "type": "address"
        },
        {
          "internalType": "address",
          "name": "to",
          "type": "address"
        },
        {
          "internalType": "uint256",
          "name": "tokenId",
          "type": "uint256"
        }
      ],
      "name": "safeTransferFrom",
      "outputs": [],
      "stateMutability": "nonpayable",
      "type": "function"
    },
    {
      "inputs": [
        {
          "internalType": "address",
          "name": "from",
          "type": "address"
        },
        {
          "internalType": "address",
          "name": "to",
          "type": "address"
        },
        {
          "internalType": "uint256",
          "name": "tokenId",
          "type": "uint256"
        },
        {
          "internalType": "bytes",
          "name": "data",
          "type": "bytes"
        }
      ],
      "name": "safeTransferFrom",
      "outputs": [],
      "stateMutability": "pure",
      "type": "function"
    },
    {
      "inputs": [
        {
          "internalType": "address",
          "name": "operator",
          "type": "address"
        },
        {
          "internalType": "bool",
          "name": "approved",
          "type": "bool"
        }
      ],
      "name": "setApprovalForAll",
      "outputs": [],
      "stateMutability": "pure",
      "type": "function"
    },
    {
      "inputs": [
        {
          "internalType": "bytes4",
          "name": "interfaceId",
          "type": "bytes4"
        }
      ],
      "name": "supportsInterface",
      "outputs": [
        {
          "internalType": "bool",
          "name": "",
          "type": "bool"
        }
      ],
      "stateMutability": "view",
      "type": "function"
    },
    {
      "inputs": [],
      "name": "symbol",
      "outputs": [
        {
          "internalType": "string",
          "name": "",
          "type": "string"
        }
      ],
      "stateMutability": "view",
      "type": "function"
    },
    {
      "inputs": [
        {
          "internalType": "uint256",
          "name": "tokenId",
          "type": "uint256"
        }
      ],
      "name": "tokenURI",
      "outputs": [
        {
          "internalType": "string",
          "name": "",
          "type": "string"
        }
      ],
      "stateMutability": "view",
      "type": "function"
    },
    {
      "inputs": [
        {
          "internalType": "address",
          "name": "from",
          "type": "address"
        },
        {
          "internalType": "address",
          "name": "to",
          "type": "address"
        },
        {
          "internalType": "uint256",
          "name": "tokenId",
          "type": "uint256"
        }
      ],
      "name": "transferFrom",
      "outputs": [],
      "stateMutability": "pure",
      "type": "function"
    }
  ],
  "bytecode": "0x6080346200032d576001600160401b03906040908082018381118282101762000317578252600a81526020906915da5b9b995c8814d09560b21b828201528251938385018581108282111762000317578452600485526315d4d09560e21b83860152815181811162000317576000938454916001948584811c941680156200030c575b83851014620002f8578190601f94858111620002a5575b5083908583116001146200024157889262000235575b5050600019600383901b1c191690851b1785555b8651928311620002215783548481811c9116801562000216575b828210146200020257828111620001ba575b50809183116001146200015357508394958293949262000147575b5050600019600383901b1c191690821b1790555b6007556200012c3362000332565b506200013833620003b3565b50516117829081620004578239f35b0151905038806200010a565b90601f198316968486528286209286905b898210620001a257505083859697981062000188575b505050811b0190556200011e565b015160001960f88460031b161c191690553880806200017a565b80878596829496860151815501950193019062000164565b8486528186208380860160051c820192848710620001f8575b0160051c019085905b828110620001ec575050620000ef565b878155018590620001dc565b92508192620001d3565b634e487b7160e01b86526022600452602486fd5b90607f1690620000dd565b634e487b7160e01b85526041600452602485fd5b015190503880620000af565b8880528489208894509190601f1984168a5b878282106200028e575050841162000274575b505050811b018555620000c3565b015160001960f88460031b161c1916905538808062000266565b8385015186558b9790950194938401930162000253565b9091508780528388208580850160051c820192868610620002ee575b918991869594930160051c01915b828110620002df57505062000099565b8a8155859450899101620002cf565b92508192620002c1565b634e487b7160e01b87526022600452602487fd5b93607f169362000082565b634e487b7160e01b600052604160045260246000fd5b600080fd5b6001600160a01b031660008181527f54cdd369e4e8a8515e52ca72ec816c2101831ad1f18bf44102ed171459c9b4f8602052604081205490919060ff16620003af5781805260066020526040822081835260205260408220600160ff19825416179055339160008051602062001bd98339815191528180a4600190565b5090565b6001600160a01b031660008181527f3195c024b2ddd6d9b8f6c836aa52f67fe69376c8903d009b80229b3ce4425f5160205260408120549091907f9f2df0fed2c77648de5860a4cc508cd0818c85b8b8a1ab4ceeef8d981c8956a69060ff16620004515780835260066020526040832082845260205260408320600160ff1982541617905560008051602062001bd9833981519152339380a4600190565b50509056fe608060408181526004918236101561001657600080fd5b600092833560e01c91826301ffc9a7146110655750816306fdde0314610fa6578163081812fc14610f8a578163095ea7b314610f2f57816312f4ea2e14610eea57816323b872dd14610ed3578163248a9ca314610ea85781632f2ff15d14610e7e57816336568abe14610e385781633745dcda14610e1057816342842e0e14610ded5781635143e24614610b9f5781636352211e14610b4c57816370a0823114610af757816391d1485414610ab057816395d89b41146109bb578163a217fddf146109a0578163a22cb46514610937578163b45a3c0e1461091a578163b88d4fde1461089b578163c87b56dd146101dc578163d5391393146101a1578163d547741f1461015d575063e985e9c51461012d57600080fd5b3461015957806003193601126101595790602091610149611139565b50610152611154565b5051908152f35b5080fd5b9190503461019d578060031936011261019d5761019991356101946001610182611154565b938387526006602052862001546112b3565b611377565b5080f35b8280fd5b505034610159578160031936011261015957602090517f9f2df0fed2c77648de5860a4cc508cd0818c85b8b8a1ab4ceeef8d981c8956a68152f35b90503461019d576020908160031936011261089757603d839261084061089396610879966108899535918281526002855261022360018060a01b038383205416151561122b565b8281526008855220548661082461012f61023c85611420565b61024585611420565b6105b66102c861025d61025789611420565b99611420565b87517f3c73766720786d6c6e733d22687474703a2f2f7777772e77332e6f72672f3230818e01527f30302f737667222077696474683d2234303022206865696768743d2234303022818a01527f2076696577426f783d223020302034303020343030223e00000000000000000060608201527f3c726563742077696474683d2234303022206865696768743d2234303022206660778201526e34b6361e911198b098b098b091179f60891b60978201527f3c636972636c652063783d22323030222063793d223230302220723d2231353060a68201527f222066696c6c3d222334613930653222207374726f6b653d222366666666666660c682015273111039ba3937b5b296bbb4b23a341e911a11179f60611b60e68201527f3c7465787420783d223230302220793d223138302220746578742d616e63686f60fa8201527f723d226d6964646c65222066696c6c3d22236666666666662220666f6e742d6661011a82018190527f616d696c793d22417269616c2220666f6e742d73697a653d2232342220666f6e61013a8301527f742d7765696768743d22626f6c64223e57494e4e45523c2f746578743e00000061015a8301527f3c7465787420783d223230302220793d223231302220746578742d616e63686f61017783015261019782018190527f616d696c793d22417269616c2220666f6e742d73697a653d223138223e4175636101b78301526574696f6e202360d01b6101d78301528b51919b8c938f936101dd926104969082908589019088016110ea565b8501661e17ba32bc3a1f60c91b80938201527f3c7465787420783d223230302220793d223234302220746578742d616e63686f6101e4820152836102048201527f616d696c793d22417269616c2220666f6e742d73697a653d223136223e426164610224820152636765202360e01b61024482015261052161024895835193849188850191016110ea565b01928301527f3c7465787420783d223230302220793d223237302220746578742d616e63686f61024f83015261026f8201527f616d696c793d22417269616c2220666f6e742d73697a653d223134223e536f7561028f82015272363137bab732102a37b5b2b71e17ba32bc3a1f60691b6102af820152651e17b9bb339f60d11b6102c2820152036102a881018a5201886111ed565b61062261061c86516105c7816111d1565b8781527f4142434445464748494a4b4c4d4e4f505152535455565758595a616263646566998a8d8301527f6768696a6b6c6d6e6f707172737475767778797a303132333435363738392b2f8099830152611564565b96611420565b908c519687937f7b226e616d65223a202257696e6e6572204261646765202300000000000000008c8601526106618c82519283916038890191016110ea565b84019161088b60f21b928360388201527f226465736372697074696f6e223a2022536f756c626f756e6420746f6b656e20603a82015274666f722077696e6e696e672061756374696f6e202360581b605a8201526106c98d8351938491606f850191016110ea565b0182606f8201527f22696d616765223a2022646174613a696d6167652f7376672b786d6c3b626173607182015263194d8d0b60e21b60918201526107178c83519384916095850191016110ea565b019060958201526e2261747472696275746573223a205b60881b60978201527f7b2274726169745f74797065223a202241756374696f6e204944222c2022766160a682015266363ab2911d101160c91b60c682015261077f825180938c60cd850191016110ea565b0162089f4b60ea1b60cd8201527f7b2274726169745f74797065223a202254797065222c202276616c7565223a2060d08201526f0895da5b9b995c8810985919d9489f4b60821b60f08201527f7b2274726169745f74797065223a20225472616e7366657261626c65222c20226101008201526c76616c7565223a20224e6f227d60981b610120820152615d7d60f01b61012d8201520361010f8101855201836111ed565b875192610830846111d1565b888452858401528783015261167d565b845195827f646174613a6170706c69636174696f6e2f6a736f6e3b6261736536342c0000008894850152825192839186860191016110ea565b810103601d8101855201836111ed565b519182918261110d565b0390f35b8380fd5b9190503461019d57608036600319011261019d576108b7611139565b506108c0611154565b506064359167ffffffffffffffff8311610897573660238401121561089757820135906108f86108ef8361120f565b915191826111ed565b818152366024838501011161089757816024602094018483013701015261126e565b505034610159576020366003190112610159576020905160018152f35b9050823461099d578260031936011261099d57610952611139565b506024358015150361099d57506020606492519162461bcd60e51b8352820152601960248201527814d0950e88185c1c1c9bdd985b081b9bdd08185b1b1bddd959603a1b6044820152fd5b80fd5b50503461015957816003193601126101595751908152602090f35b9190503461019d578260031936011261019d578051918360018054918260011c92600181168015610aa6575b6020958686108214610a935750848852908115610a715750600114610a18575b6108938686610889828b03836111ed565b929550600183527fb10e2d527612073b26eecdfd717e6a320cf44b4afac2b0732d9fcbe2b7fa0cf65b828410610a5e575050508261089394610889928201019438610a07565b8054868501880152928601928101610a41565b60ff191687860152505050151560051b83010192506108898261089338610a07565b634e487b7160e01b845260229052602483fd5b93607f16936109e7565b90503461019d578160031936011261019d578160209360ff92610ad1611154565b90358252600686528282206001600160a01b039091168252855220549151911615158152f35b82843461099d57602036600319011261099d576001600160a01b03610b1a611139565b16928315610b375750806020938392526003845220549051908152f35b91516322718ad960e21b815291820152602490fd5b83915034610159576020366003190112610159578035808352600260205291839020546001600160a01b0316918215610b89576020838551908152f35b8351637e27328960e01b81529182015260249150fd5b838334610159578060031936011261015957610bb9611139565b906024938435917f9f2df0fed2c77648de5860a4cc508cd0818c85b8b8a1ab4ceeef8d981c8956a69586865260209660068852828720338852885260ff838820541615610dd257506001600160a01b039485169283159081610d90578588526009895283882054610d50576007549660001990818914610d3e5760018901600755888a5260028b52858a205416928315159182610d13575b5015610cfd575b87895260028a52848920866bffffffffffffffffffffffff60a01b82541617905587868651947fddf252ad1be2c89b69c2b068fc378daa952ba7f163c4a11628f55a4df523b3ef8c80a4610cec575050507fa67680921d0ec206a418120685851e04712b39b00f85443c2fc8b12c2b39f4088491828752600888528481882055848752600988528281882055519580a48152f35b6339e3563760e11b82528101879052fd5b85895260038a5284892060018154019055610c58565b838c52868b2080546001600160a01b0319169055848b5260038c52868b20805490910190558b610c51565b634e487b7160e01b8a5260118352848afd5b60649089848187519362461bcd60e51b85528401528201527f41756374696f6e20616c7265616479206861732077696e6e65722062616467656044820152fd5b835162461bcd60e51b8152908101899052601b818401527f43616e6e6f74206d696e7420746f207a65726f206164647265737300000000006044820152606490fd5b9160449450519263e2517d3f60e01b84523390840152820152fd5b50503461015957610dfd3661116a565b50505051610e0a8161119f565b5261126e565b90503461019d57602036600319011261019d5760209282913581526009845220549051908152f35b838334610159578060031936011261015957610e52611154565b90336001600160a01b03831603610e6f5750610199919235611377565b5163334bd91960e11b81528390fd5b9190503461019d578060031936011261019d576101999135610ea36001610182611154565b6112f7565b90503461019d57602036600319011261019d5781602093600192358152600685522001549051908152f35b833461099d57610ee23661116a565b50505061126e565b90503461019d57602036600319011261019d5760209282913580825260028552610f2060018060a01b038484205416151561122b565b81526008845220549051908152f35b9050823461099d578260031936011261099d57506020606492610f50611139565b505162461bcd60e51b815291820152601960248201527814d0950e88185c1c1c9bdd985b081b9bdd08185b1b1bddd959603a1b6044820152fd5b5050346101595760203660031901126101595751908152602090f35b9190503461019d578260031936011261019d57805191838054906001908260011c9260018116801561105b575b6020958686108214610a935750848852908115610a715750600114611003576108938686610889828b03836111ed565b8080949750527f290decd9548b62a8d60345a988386fc84ba6bc95484008f6362f93160ef3e5635b828410611048575050508261089394610889928201019438610a07565b805486850188015292860192810161102b565b93607f1693610fd3565b84913461019d57602036600319011261019d573563ffffffff60e01b811680910361019d5760209250637965db0b60e01b81149081156110a7575b5015158152f35b6380ac58cd60e01b8114915081156110d9575b81156110c8575b50836110a0565b6301ffc9a760e01b149050836110c1565b635b5e139f60e01b811491506110ba565b60005b8381106110fd5750506000910152565b81810151838201526020016110ed565b6040916020825261112d81518092816020860152602086860191016110ea565b601f01601f1916010190565b600435906001600160a01b038216820361114f57565b600080fd5b602435906001600160a01b038216820361114f57565b606090600319011261114f576001600160a01b0390600435828116810361114f5791602435908116810361114f579060443590565b6020810190811067ffffffffffffffff8211176111bb57604052565b634e487b7160e01b600052604160045260246000fd5b6060810190811067ffffffffffffffff8211176111bb57604052565b90601f8019910116810190811067ffffffffffffffff8211176111bb57604052565b67ffffffffffffffff81116111bb57601f01601f191660200190565b1561123257565b60405162461bcd60e51b8152602060048201526014602482015273151bdad95b88191bd95cc81b9bdd08195e1a5cdd60621b6044820152606490fd5b60405162461bcd60e51b815260206004820152601960248201527f5342543a207472616e73666572206e6f7420616c6c6f776564000000000000006044820152606490fd5b80600052600660205260406000203360005260205260ff60406000205416156112d95750565b6044906040519063e2517d3f60e01b82523360048301526024820152fd5b906000918083526006602052604083209160018060a01b03169182845260205260ff604084205416156000146113725780835260066020526040832082845260205260408320600160ff198254161790557f2f8788117e7eff1d82e926ec794901d17c78024a50270940304540a733656f0d339380a4600190565b505090565b906000918083526006602052604083209160018060a01b03169182845260205260ff604084205416600014611372578083526006602052604083208284526020526040832060ff1981541690557ff6391f5c32d9c69d2a47ea670b442974b53935d1edc7fd64eb21e047a839171b339380a4600190565b906113f88261120f565b61140560405191826111ed565b8281528092611416601f199161120f565b0190602036910137565b806000917a184f03e93ff9f4daa797ed6e38ed64bf6a1f01000000000000000080821015611556575b506d04ee2d6d415b85acef810000000080831015611547575b50662386f26fc1000080831015611538575b506305f5e10080831015611529575b506127108083101561151a575b50606482101561150a575b600a80921015611500575b6001908160216114b8600187016113ee565b95860101905b6114ca575b5050505090565b600019019083906f181899199a1a9b1b9c1cb0b131b232b360811b8282061a8353049182156114fb579190826114be565b6114c3565b91600101916114a6565b919060646002910491019161149b565b60049193920491019138611490565b60089193920491019138611483565b60109193920491019138611474565b60209193920491019138611462565b604093508104915038611449565b9190918051156116675780519260029160028501809511611651576003948590046001600160fe1b0381168103611651576115a49060029694961b6113ee565b926020840192829183518401976020890192835194600085525b8a8110611604575050505060039394959650525106806001146115f1576002146115e6575090565b603d90600019015390565b50603d9081600019820153600119015390565b836004919b989b019a8b51600190603f9082828260121c16870101518453828282600c1c16870101518385015382828260061c1687010151878501531684010151858201530196996115be565b634e487b7160e01b600052601160045260246000fd5b5090506040516116768161119f565b6000815290565b9190918051156116675780519260029160028501809511611651576003948590046001600160fe1b0381168103611651576116bd9060029694961b6113ee565b926020840192829183518401976020890192835194600085525b8a81106116ff575050505060039394959650525106806001146115f1576002146115e6575090565b836004919b989b019a8b51600190603f9082828260121c16870101518453828282600c1c16870101518385015382828260061c1687010151878501531684010151858201530196996116d756fea2646970667358221220d6ebc9bdb4431f40ecf2bcad628f48aa38ffc29d84143dbe6e15bcdc865e082e64736f6c634300081800332f8788117e7eff1d82e926ec794901d17c78024a50270940304540a733656f0d",
  "linkReferences": {},
  "deployedLinkReferences": {}
}