{
  "_format": "hh-sol-artifact-1",
  "contractName": "WinnerSBT",
  "sourceName": "contracts/WinnerSBT.sol",
  "abi": [
    {
      "inputs": [],
      "stateMutability": "nonpayable",
      "type": "constructor"
    },
    {
      "inputs": [],
      "name": "AccessControlBadConfirmation",
      "type": "error"
    },
    {
      "inputs": [
        {
          "internalType": "address",
          "name": "account",
          "type": "address"
        },
        {
          "internalType": "bytes32",
          "name": "neededRole",
          "type": "bytes32"
        }
      ],
      "name": "AccessControlUnauthorizedAccount",
      "type": "error"
    },
    {
      "inputs": [
        {
          "internalType": "address",
          "name": "sender",
          "type": "address"
        },
        {
          "internalType": "uint256",
          "name": "tokenId",
          "type": "uint256"
        },
        {
          "internalType": "address",
          "name": "owner",
          "type": "address"
        }
      ],
      "name": "ERC721IncorrectOwner",
      "type": "error"
    },
    {
      "inputs": [
        {
          "internalType": "address",
          "name": "operator",
          "type": "address"
        },
        {
          "internalType": "uint256",
          "name": "tokenId",
          "type": "uint256"
        }
      ],
      "name": "ERC721InsufficientApproval",
      "type": "error"
    },
    {
      "inputs": [
        {
          "internalType": "address",
          "name": "approver",
          "type": "address"
        }
      ],
      "name": "ERC721InvalidApprover",
      "type": "error"
    },
    {
      "inputs": [
        {
          "internalType": "address",
          "name": "operator",
          "type": "address"
        }
      ],
      "name": "ERC721InvalidOperator",
      "type": "error"
    },
    {
      "inputs": [
        {
          "internalType": "address",
          "name": "owner",
          "type": "address"
        }
      ],
      "name": "ERC721InvalidOwner",
      "type": "error"
    },
    {
      "inputs": [
        {
          "internalType": "address",
          "name": "receiver",
          "type": "address"
        }
      ],
      "name": "ERC721InvalidReceiver",
      "type": "error"
    },
    {
      "inputs": [
        {
          "internalType": "address",
          "name": "sender",
          "type": "address"
        }
      ],
      "name": "ERC721InvalidSender",
      "type": "error"
    },
    {
      "inputs": [
        {
          "internalType": "uint256",
          "name": "tokenId",
          "type": "uint256"
        }
      ],
      "name": "ERC721NonexistentToken",
      "type": "error"
    },
    {
      "anonymous": false,
      "inputs": [
        {
          "indexed": true,
          "internalType": "address",
          "name": "owner",
          "type": "address"
        },
        {
          "indexed": true,
          "internalType": "address",
          "name": "approved",
          "type": "address"
        },
        {
          "indexed": true,
          "internalType": "uint256",
          "name": "tokenId",
          "type": "uint256"
        }
      ],
      "name": "Approval",
      "type": "event"
    },
    {
      "anonymous": false,
      "inputs": [
        {
          "indexed": true,
          "internalType": "address",
          "name": "owner",
          "type": "address"
        },
        {
          "indexed": true,
          "internalType": "address",
          "name": "operator",
          "type": "address"
        },
        {
          "indexed": false,
          "internalType": "bool",
          "name": "approved",
          "type": "bool"
        }
      ],
      "name": "ApprovalForAll",
      "type": "event"
    },
    {
      "anonymous": false,
      "inputs": [
        {
          "indexed": true,
          "internalType": "bytes32",
          "name": "role",
          "type": "bytes32"
        },
        {
          "indexed": true,
          "internalType": "bytes32",
          "name": "previousAdminRole",
          "type": "bytes32"
        },
        {
          "indexed": true,
          "internalType": "bytes32",
          "name": "newAdminRole",
          "type": "bytes32"
        }
      ],
      "name": "RoleAdminChanged",
      "type": "event"
    },
    {
      "anonymous": false,
      "inputs": [
        {
          "indexed": true,
          "internalType": "bytes32",
          "name": "role",
          "type": "bytes32"
        },
        {
          "indexed": true,
          "internalType": "address",
          "name": "account",
          "type": "address"
        },
        {
          "indexed": true,
          "internalType": "address",
          "name": "sender",
          "type": "address"
        }
      ],
      "name": "RoleGranted",
      "type": "event"
    },
    {
      "anonymous": false,
      "inputs": [
        {
          "indexed": true,
          "internalType": "bytes32",
          "name": "role",
          "type": "bytes32"
        },
        {
          "indexed": true,
          "internalType": "address",
          "name": "account",
          "type": "address"
        },
        {
          "indexed": true,
          "internalType": "address",
          "name": "sender",
          "type": "address"
        }
      ],
      "name": "RoleRevoked",
      "type": "event"
    },
    {
      "anonymous": false,
      "inputs": [
        {
          "indexed": true,
          "internalType": "address",
          "name": "from",
          "type": "address"
        },
        {
          "indexed": true,
          "internalType": "address",
          "name": "to",
          "type": "address"
        },
        {
          "indexed": true,
          "internalType": "uint256",
          "name": "tokenId",
          "type": "uint256"
        }
      ],
      "name": "Transfer",
      "type": "event"
    },
    {
      "anonymous": false,
      "inputs": [
        {
          "indexed": true,
          "internalType": "uint256",
          "name": "tokenId",
          "type": "uint256"
        },
        {
          "indexed": true,
          "internalType": "address",
          "name": "to",
          "type": "address"
        },
        {
          "indexed": true,
          "internalType": "uint256",
          "name": "auctionId",
          "type": "uint256"
        }
      ],
      "name": "WinnerBadgeMinted",
      "type": "event"
    },
    {
      "inputs": [],
      "name": "DEFAULT_ADMIN_ROLE",
      "outputs": [
        {
          "internalType": "bytes32",
          "name": "",
          "type": "bytes32"
        }
      ],
      "stateMutability": "view",
      "type": "function"
    },
    {
      "inputs": [],
      "name": "MINTER_ROLE",
      "outputs": [
        {
          "internalType": "bytes32",
          "name": "",
          "type": "bytes32"
        }
      ],
      "stateMutability": "view",
      "type": "function"
    },
    {
      "inputs": [
        {
          "internalType": "address",
          "name": "to",
          "type": "address"
        },
        {
          "internalType": "uint256",
          "name": "tokenId",
          "type": "uint256"
        }
      ],
      "name": "approve",
      "outputs": [],
      "stateMutability": "pure",
      "type": "function"
    },
    {
      "inputs": [
        {
          "internalType": "address",
          "name": "owner",
          "type": "address"
        }
      ],
      "name": "balanceOf",
      "outputs": [
        {
          "internalType": "uint256",
          "name": "",
          "type": "uint256"
        }
      ],
      "stateMutability": "view",
      "type": "function"
    },
    {
      "inputs": [
        {
          "internalType": "uint256",
          "name": "tokenId",
          "type": "uint256"
        }
      ],
      "name": "getApproved",
      "outputs": [
        {
          "internalType": "address",
          "name": "",
          "type": "address"
        }
      ],
      "stateMutability": "pure",
      "type": "function"
    },
    {
      "inputs": [
        {
          "internalType": "uint256",
          "name": "tokenId",
          "type": "uint256"
        }
      ],
      "name": "getAuctionId",
      "outputs": [
        {
          "internalType": "uint256",
          "name": "",
          "type": "uint256"
        }
      ],
      "stateMutability": "view",
      "type": "function"
    },
    {
      "inputs": [
        {
          "internalType": "bytes32",
          "name": "role",
          "type": "bytes32"
        }
      ],
      "name": "getRoleAdmin",
      "outputs": [
        {
          "internalType": "bytes32",
          "name": "",
          "type": "bytes32"
        }
      ],
      "stateMutability": "view",
      "type": "function"
    },
    {
      "inputs": [
        {
          "internalType": "uint256",
          "name": "auctionId",
          "type": "uint256"
        }
      ],
      "name": "getTokenForAuction",
      "outputs": [
        {
          "internalType": "uint256",
          "name": "",
          "type": "uint256"
        }
      ],
      "stateMutability": "view",
      "type": "function"
    },
    {
      "inputs": [
        {
          "internalType": "bytes32",
          "name": "role",
          "type": "bytes32"
        },
        {
          "internalType": "address",
          "name": "account",
          "type": "address"
        }
      ],
      "name": "grantRole",
      "outputs": [],
      "stateMutability": "nonpayable",
      "type": "function"
    },
    {
      "inputs": [
        {
          "internalType": "bytes32",
          "name": "role",
          "type": "bytes32"
        },
        {
          "internalType": "address",
          "name": "account",
          "type": "address"
        }
      ],
      "name": "hasRole",
      "outputs": [
        {
          "internalType": "bool",
          "name": "",
          "type": "bool"
        }
      ],
      "stateMutability": "view",
      "type": "function"
    },
    {
      "inputs": [
        {
          "internalType": "address",
          "name": "owner",
          "type": "address"
        },
        {
          "internalType": "address",
          "name": "operator",
          "type": "address"
        }
      ],
      "name": "isApprovedForAll",
      "outputs": [
        {
          "internalType": "bool",
          "name": "",
          "type": "bool"
        }
      ],
      "stateMutability": "pure",
      "type": "function"
    },
    {
      "inputs": [
        {
          "internalType": "uint256",
          "name": "tokenId",
          "type": "uint256"
        }
      ],
      "name": "locked",
      "outputs": [
        {
          "internalType": "bool",
          "name": "",
          "type": "bool"
        }
      ],
      "stateMutability": "pure",
      "type": "function"
    },
    {
      "inputs": [
        {
          "internalType": "address",
          "name": "to",
          "type": "address"
        },
        {
          "internalType": "uint256",
          "name": "auctionId",
          "type": "uint256"
        }
      ],
      "name": "mintLocked",
      "outputs": [
        {
          "internalType": "uint256",
          "name": "",
          "type": "uint256"
        }
      ],
      "stateMutability": "nonpayable",
      "type": "function"
    },
    {
      "inputs": [],
      "name": "name",
      "outputs": [
        {
          "internalType": "string",
          "name": "",
          "type": "string"
        }
      ],
      "stateMutability": "view",
      "type": "function"
    },
    {
      "inputs": [
        {
          "internalType": "uint256",
          "name": "tokenId",
          "type": "uint256"
        }
      ],
      "name": "ownerOf",
      "outputs": [
        {
          "internalType": "address",
          "name": "",
          "type": "address"
        }
      ],
      "stateMutability": "view",
      "type": "function"
    },
    {
      "inputs": [
        {
          "internalType": "bytes32",
          "name": "role",
          "type": "bytes32"
        },
        {
          "internalType": "address",
          "name": "callerConfirmation",
          "type": "address"
        }
      ],
      "name": "renounceRole",
      "outputs": [],
      "stateMutability": "nonpayable",
      "type": "function"
    },
    {
      "inputs": [
        {
          "internalType": "bytes32",
          "name": "role",
          "type": "bytes32"
        },
        {
          "internalType": "address",
          "name": "account",
          "type": "address"
        }
      ],
      "name": "revokeRole",
      "outputs": [],
      "stateMutability": "nonpayable",
      "type": "function"
    },
    {
      "inputs": [
        {
          "internalType": "address",
          "name": "from",
          "type": "address"
        },
        {
          "internalType": "address",
          "name": "to",
          "type": "address"
        },
        {
          "internalType": "uint256",
          "name": "tokenId",
          "type": "uint256"
        }
      ],
      "name": "safeTransferFrom",
      "outputs": [],
      "stateMutability": "nonpayable",
      "type": "function"
    },
    {
      "inputs": [
        {
          "internalType": "address",
          "name": "from",
          "type": "address"
        },
        {
          "internalType": "address",
          "name": "to",
          "type": "address"
        },
        {
          "internalType": "uint256",
          "name": "tokenId",
          "type": "uint256"
        },
        {
          "internalType": "bytes",
          "name": "data",
          "type": "bytes"
        }
      ],
      "name": "safeTransferFrom",
      "outputs": [],
      "stateMutability": "pure",
      "type": "function"
    },
    {
      "inputs": [
        {
          "internalType": "address",
          "name": "operator",
          "type": "address"
        },
        {
          "internalType": "bool",
          "name": "approved",
          "type": "bool"
        }
      ],
      "name": "setApprovalForAll",
      "outputs": [],
      "stateMutability": "pure",
      "type": "function"
    },
    {
      "inputs": [
        {
          "internalType": "bytes4",
          "name": "interfaceId",
          "type": "bytes4"
        }
      ],
      "name": "supportsInterface",
      "outputs": [
        {
          "internalType": "bool",
          "name": "",
          "type": "bool"
        }
      ],
      "stateMutability": "view",
      "type": "function"
    },
    {
      "inputs": [],
      "name": "symbol",
      "outputs": [
        {
          "internalType": "string",
          "name": "",
          "type": "string"
        }
      ],
      "stateMutability": "view",
      "type": "function"
    },
    {
      "inputs": [
        {
          "internalType": "uint256",
          "name": "tokenId",
          "type": "uint256"
        }
      ],
      "name": "tokenURI",
      "outputs": [
        {
          "internalType": "string",
          "name": "",
          "type": "string"
        }
      ],
      "stateMutability": "view",
      "type": "function"
    },
    {
      "inputs": [
        {
          "internalType": "address",
          "name": "from",
          "type": "address"
        },
        {
          "internalType": "address",
          "name": "to",
          "type": "address"
        },
        {
          "internalType": "uint256",
          "name": "tokenId",
          "type": "uint256"
        }
      ],
      "name": "transferFrom",
      "outputs": [],
      "stateMutability": "pure",
      "type": "function"
    }
  ],
  "bytecode": "0x608060405260006007553480156200001657600080fd5b506040518060400160405280600a81526020016915da5b9b995c8814d09560b21b8152506040518060400160405280600481526020016315d4d09560e21b815250816000908162000068919062000217565b50600162000077828262000217565b506200008991506000905033620000bd565b50620000b67f9f2df0fed2c77648de5860a4cc508cd0818c85b8b8a1ab4ceeef8d981c8956a633620000bd565b50620002e3565b60008281526006602090815260408083206001600160a01b038516845290915281205460ff16620001665760008381526006602090815260408083206001600160a01b03861684529091529020805460ff191660011790556200011d3390565b6001600160a01b0316826001600160a01b0316847f2f8788117e7eff1d82e926ec794901d17c78024a50270940304540a733656f0d60405160405180910390a45060016200016a565b5060005b92915050565b634e487b7160e01b600052604160045260246000fd5b600181811c908216806200019b57607f821691505b602082108103620001bc57634e487b7160e01b600052602260045260246000fd5b50919050565b601f82111562000212576000816000526020600020601f850160051c81016020861015620001ed5750805b601f850160051c820191505b818110156200020e57828155600101620001f9565b5050505b505050565b81516001600160401b0381111562000233576200023362000170565b6200024b8162000244845462000186565b84620001c2565b602080601f8311600181146200028357600084156200026a5750858301515b600019600386901b1c1916600185901b1785556200020e565b600085815260208120601f198616915b82811015620002b45788860151825594840194600190910190840162000293565b5085821015620002d35787850151600019600388901b60f8161c191681555b5050505050600190811b01905550565b611ac980620002f36000396000f3fe608060405234801561001057600080fd5b50600436106101585760003560e01c80636352211e116100c3578063b45a3c0e1161007c578063b45a3c0e146102f5578063b88d4fde14610309578063c87b56dd14610317578063d53913931461032a578063d547741f14610351578063e985e9c51461036457600080fd5b80636352211e1461029e57806370a08231146102b157806391d14854146102c457806395d89b41146102d7578063a217fddf146102df578063a22cb465146102e757600080fd5b8063248a9ca311610115578063248a9ca31461020f5780632f2ff15d1461023257806336568abe146102455780633745dcda1461025857806342842e0e146102785780635143e2461461028b57600080fd5b806301ffc9a71461015d57806306fdde0314610185578063081812fc1461019a578063095ea7b3146101c657806312f4ea2e146101db57806323b872dd146101fc575b600080fd5b61017061016b366004611104565b61037a565b60405190151581526020015b60405180910390f35b61018d61038b565b60405161017c9190611152565b6101ae6101a8366004611185565b50600090565b6040516001600160a01b03909116815260200161017c565b6101d96101d43660046111ba565b61041d565b005b6101ee6101e9366004611185565b61046a565b60405190815260200161017c565b6101d961020a3660046111e4565b6104d8565b6101ee61021d366004611185565b60009081526006602052604090206001015490565b6101d9610240366004611220565b610520565b6101d9610253366004611220565b61054b565b6101ee610266366004611185565b60009081526009602052604090205490565b6101d96102863660046111e4565b610583565b6101ee6102993660046111ba565b61059e565b6101ae6102ac366004611185565b6106fa565b6101ee6102bf36600461124c565b610705565b6101706102d2366004611220565b61074d565b61018d610778565b6101ee600081565b6101d96101d4366004611267565b610170610303366004611185565b50600190565b6101d961020a3660046112b9565b61018d610325366004611185565b610787565b6101ee7f9f2df0fed2c77648de5860a4cc508cd0818c85b8b8a1ab4ceeef8d981c8956a681565b6101d961035f366004611220565b61086f565b610170610372366004611395565b600092915050565b600061038582610894565b92915050565b60606000805461039a906113bf565b80601f01602080910402602001604051908101604052809291908181526020018280546103c6906113bf565b80156104135780601f106103e857610100808354040283529160200191610413565b820191906000526020600020905b8154815290600101906020018083116103f657829003601f168201915b5050505050905090565b60405162461bcd60e51b815260206004820152601960248201527f5342543a20617070726f76616c206e6f7420616c6c6f7765640000000000000060448201526064015b60405180910390fd5b6000818152600260205260408120546001600160a01b03166104c55760405162461bcd60e51b8152602060048201526014602482015273151bdad95b88191bd95cc81b9bdd08195e1a5cdd60621b6044820152606401610461565b5060009081526008602052604090205490565b60405162461bcd60e51b815260206004820152601960248201527f5342543a207472616e73666572206e6f7420616c6c6f776564000000000000006044820152606401610461565b60008281526006602052604090206001015461053b816108b9565b61054583836108c6565b50505050565b6001600160a01b03811633146105745760405163334bd91960e11b815260040160405180910390fd5b61057e828261095a565b505050565b61057e838383604051806020016040528060008152506104d8565b60007f9f2df0fed2c77648de5860a4cc508cd0818c85b8b8a1ab4ceeef8d981c8956a66105ca816108b9565b6001600160a01b0384166106205760405162461bcd60e51b815260206004820152601b60248201527f43616e6e6f74206d696e7420746f207a65726f206164647265737300000000006044820152606401610461565b6000838152600960205260409020541561067c5760405162461bcd60e51b815260206004820181905260248201527f41756374696f6e20616c7265616479206861732077696e6e65722062616467656044820152606401610461565b60078054908190600061068e8361140f565b919050555061069d85826109c7565b600081815260086020908152604080832087905586835260099091528082208390555185916001600160a01b0388169184917fa67680921d0ec206a418120685851e04712b39b00f85443c2fc8b12c2b39f40891a4949350505050565b600061038582610a2c565b60006001600160a01b038216610731576040516322718ad960e21b815260006004820152602401610461565b506001600160a01b031660009081526003602052604090205490565b60009182526006602090815260408084206001600160a01b0393909316845291905290205460ff1690565b60606001805461039a906113bf565b6000818152600260205260409020546060906001600160a01b03166107e55760405162461bcd60e51b8152602060048201526014602482015273151bdad95b88191bd95cc81b9bdd08195e1a5cdd60621b6044820152606401610461565b6000828152600860205260408120549061084461080185610a65565b61080a84610a65565b6108148786610af8565b61081d86610a65565b6040516020016108309493929190611444565b604051602081830303815290604052610b41565b9050806040516020016108579190611655565b60405160208183030381529060405292505050919050565b60008281526006602052604090206001015461088a816108b9565b610545838361095a565b60006001600160e01b03198216637965db0b60e01b1480610385575061038582610b67565b6108c38133610bb7565b50565b60006108d2838361074d565b6109525760008381526006602090815260408083206001600160a01b03861684529091529020805460ff1916600117905561090a3390565b6001600160a01b0316826001600160a01b0316847f2f8788117e7eff1d82e926ec794901d17c78024a50270940304540a733656f0d60405160405180910390a4506001610385565b506000610385565b6000610966838361074d565b156109525760008381526006602090815260408083206001600160a01b0386168085529252808320805460ff1916905551339286917ff6391f5c32d9c69d2a47ea670b442974b53935d1edc7fd64eb21e047a839171b9190a4506001610385565b6001600160a01b0382166109f157604051633250574960e11b815260006004820152602401610461565b60006109ff83836000610bf4565b90506001600160a01b0381161561057e576040516339e3563760e11b815260006004820152602401610461565b6000818152600260205260408120546001600160a01b03168061038557604051637e27328960e01b815260048101849052602401610461565b60606000610a7283610cef565b600101905060008167ffffffffffffffff811115610a9257610a926112a3565b6040519080825280601f01601f191660200182016040528015610abc576020820181803683370190505b5090508181016020015b600019016f181899199a1a9b1b9c1cb0b131b232b360811b600a86061a8153600a8504945084610ac657509392505050565b60606000610b0583610a65565b610b0e85610a65565b604051602001610b1f92919061169a565b6040516020818303038152906040529050610b3981610b41565b949350505050565b606061038582604051806060016040528060408152602001611a34604091396001610dc7565b60006001600160e01b031982166380ac58cd60e01b1480610b9857506001600160e01b03198216635b5e139f60e01b145b8061038557506301ffc9a760e01b6001600160e01b0319831614610385565b610bc1828261074d565b610bf05760405163e2517d3f60e01b81526001600160a01b038216600482015260248101839052604401610461565b5050565b6000828152600260205260408120546001600160a01b0390811690831615610c2157610c21818486610f47565b6001600160a01b03811615610c5f57610c3e600085600080610fab565b6001600160a01b038116600090815260036020526040902080546000190190555b6001600160a01b03851615610c8e576001600160a01b0385166000908152600360205260409020805460010190555b60008481526002602052604080822080546001600160a01b0319166001600160a01b0389811691821790925591518793918516917fddf252ad1be2c89b69c2b068fc378daa952ba7f163c4a11628f55a4df523b3ef91a490505b9392505050565b60008072184f03e93ff9f4daa797ed6e38ed64bf6a1f0160401b8310610d2e5772184f03e93ff9f4daa797ed6e38ed64bf6a1f0160401b830492506040015b6d04ee2d6d415b85acef81000000008310610d5a576d04ee2d6d415b85acef8100000000830492506020015b662386f26fc100008310610d7857662386f26fc10000830492506010015b6305f5e1008310610d90576305f5e100830492506008015b6127108310610da457612710830492506004015b60648310610db6576064830492506002015b600a83106103855760010192915050565b60608351600003610de75750604080516020810190915260008152610ce8565b600082610e1857600385516004610dfe91906119e7565b610e099060026119fe565b610e139190611a11565b610e3d565b600385516002610e2891906119fe565b610e329190611a11565b610e3d9060046119e7565b905060008167ffffffffffffffff811115610e5a57610e5a6112a3565b6040519080825280601f01601f191660200182016040528015610e84576020820181803683370190505b50905060018501602082018788518901602081018051600082525b82841015610efa576003840193508351603f8160121c168701518653600186019550603f81600c1c168701518653600186019550603f8160061c168701518653600186019550603f8116870151865350600185019450610e9f565b905250508515610f3b57600388510660018114610f1e5760028114610f3157610f39565b603d6001830353603d6002830353610f39565b603d60018303535b505b50909695505050505050565b610f528383836110a8565b61057e576001600160a01b038316610f8057604051637e27328960e01b815260048101829052602401610461565b60405163177e802f60e01b81526001600160a01b038316600482015260248101829052604401610461565b8080610fbf57506001600160a01b03821615155b15611078576000610fcf84610a2c565b90506001600160a01b03831615801590610ffb5750826001600160a01b0316816001600160a01b031614155b8015611005575060015b1561102e5760405163a9fbf51f60e01b81526001600160a01b0384166004820152602401610461565b81156110765783856001600160a01b0316826001600160a01b03167f8c5be1e5ebec7d5bd14f71427d1e84f3dd0314c0f7b2291e5b200ac8c7c3b92560405160405180910390a45b505b5050600090815260046020526040902080546001600160a01b0319166001600160a01b0392909216919091179055565b60006001600160a01b03831615801590610b395750826001600160a01b0316846001600160a01b031614806110db575060005b80610b395750506000908152600460205260409020546001600160a01b03908116911614919050565b60006020828403121561111657600080fd5b81356001600160e01b031981168114610ce857600080fd5b60005b83811015611149578181015183820152602001611131565b50506000910152565b602081526000825180602084015261117181604085016020870161112e565b601f01601f19169190910160400192915050565b60006020828403121561119757600080fd5b5035919050565b80356001600160a01b03811681146111b557600080fd5b919050565b600080604083850312156111cd57600080fd5b6111d68361119e565b946020939093013593505050565b6000806000606084860312156111f957600080fd5b6112028461119e565b92506112106020850161119e565b9150604084013590509250925092565b6000806040838503121561123357600080fd5b823591506112436020840161119e565b90509250929050565b60006020828403121561125e57600080fd5b610ce88261119e565b6000806040838503121561127a57600080fd5b6112838361119e565b91506020830135801515811461129857600080fd5b809150509250929050565b634e487b7160e01b600052604160045260246000fd5b600080600080608085870312156112cf57600080fd5b6112d88561119e565b93506112e66020860161119e565b925060408501359150606085013567ffffffffffffffff8082111561130a57600080fd5b818701915087601f83011261131e57600080fd5b813581811115611330576113306112a3565b604051601f8201601f19908116603f01168101908382118183101715611358576113586112a3565b816040528281528a602084870101111561137157600080fd5b82602086016020830137600060208483010152809550505050505092959194509250565b600080604083850312156113a857600080fd5b6113b18361119e565b91506112436020840161119e565b600181811c908216806113d357607f821691505b6020821081036113f357634e487b7160e01b600052602260045260246000fd5b50919050565b634e487b7160e01b600052601160045260246000fd5b600060018201611421576114216113f9565b5060010190565b6000815161143a81856020860161112e565b9290920192915050565b7f7b226e616d65223a202257696e6e65722042616467652023000000000000000081526000855161147c816018850160208a0161112e565b61088b60f21b60189184019182018190527f226465736372697074696f6e223a2022536f756c626f756e6420746f6b656e20601a83015274666f722077696e6e696e672061756374696f6e202360581b603a83015286516114e481604f850160208b0161112e565b604f9201918201527f22696d616765223a2022646174613a696d6167652f7376672b786d6c3b626173605182015263194d8d0b60e21b607182015261164a61163c6115fd6115bb6115ac6115a661156d61155261154460758a018e611428565b61088b60f21b815260020190565b6e2261747472696275746573223a205b60881b8152600f0190565b7f7b2274726169745f74797065223a202241756374696f6e204944222c20227661815266363ab2911d101160c91b602082015260270190565b89611428565b62089f4b60ea1b815260030190565b7f7b2274726169745f74797065223a202254797065222c202276616c7565223a2081526f0895da5b9b995c8810985919d9489f4b60821b602082015260300190565b7f7b2274726169745f74797065223a20225472616e7366657261626c65222c202281526c76616c7565223a20224e6f227d60981b6020820152602d0190565b615d7d60f01b815260020190565b979650505050505050565b7f646174613a6170706c69636174696f6e2f6a736f6e3b6261736536342c00000081526000825161168d81601d85016020870161112e565b91909101601d0192915050565b7f3c73766720786d6c6e733d22687474703a2f2f7777772e77332e6f72672f323081527f30302f737667222077696474683d2234303022206865696768743d223430302260208201527f2076696577426f783d223020302034303020343030223e00000000000000000060408201527f3c726563742077696474683d2234303022206865696768743d2234303022206660578201526e34b6361e911198b098b098b091179f60891b60778201527f3c636972636c652063783d22323030222063793d223230302220723d2231353060868201527f222066696c6c3d222334613930653222207374726f6b653d222366666666666660a682015273111039ba3937b5b296bbb4b23a341e911a11179f60611b60c68201527f3c7465787420783d223230302220793d223138302220746578742d616e63686f60da820152600080516020611a7483398151915260fa8201527f616d696c793d22417269616c2220666f6e742d73697a653d2232342220666f6e61011a8201527f742d7765696768743d22626f6c64223e57494e4e45523c2f746578743e00000061013a8201526000610b396119d56119566118cd6119506118e0826118c76101578a017f3c7465787420783d223230302220793d223231302220746578742d616e63686f8152600080516020611a7483398151915260208201527f616d696c793d22417269616c2220666f6e742d73697a653d223138223e41756360408201526574696f6e202360d01b606082015260660190565b8b611428565b661e17ba32bc3a1f60c91b815260070190565b7f3c7465787420783d223230302220793d223234302220746578742d616e63686f8152600080516020611a7483398151915260208201527f616d696c793d22417269616c2220666f6e742d73697a653d223136223e4261646040820152636765202360e01b606082015260640190565b87611428565b7f3c7465787420783d223230302220793d223237302220746578742d616e63686f8152600080516020611a7483398151915260208201527f616d696c793d22417269616c2220666f6e742d73697a653d223134223e536f75604082015272363137bab732102a37b5b2b71e17ba32bc3a1f60691b606082015260730190565b651e17b9bb339f60d11b815260060190565b8082028115828204841417610385576103856113f9565b80820180821115610385576103856113f9565b600082611a2e57634e487b7160e01b600052601260045260246000fd5b50049056fe4142434445464748494a4b4c4d4e4f505152535455565758595a6162636465666768696a6b6c6d6e6f707172737475767778797a303132333435363738392b2f723d226d6964646c65222066696c6c3d22236666666666662220666f6e742d66a26469706673582212201fa109726d1c07f9eb826ff6794ff6aa77fd7ec5fa7f70179bdc6fbcaedd3e7f64736f6c63430008180033",
  "linkReferences": {},
  "deployedLinkReferences": {}
}